{
	"contracts/arrays.sol": {
		"arrays": {
			"abi": [
				{
					"inputs": [
						{
							"internalType": "string",
							"name": "_name",
							"type": "string"
						},
						{
							"internalType": "uint256",
							"name": "_favoriteNumber",
							"type": "uint256"
						}
					],
					"name": "addPerson",
					"outputs": [],
					"stateMutability": "nonpayable",
					"type": "function"
				},
				{
					"inputs": [
						{
							"internalType": "string",
							"name": "",
							"type": "string"
						}
					],
					"name": "findFavNumber",
					"outputs": [
						{
							"internalType": "uint256",
							"name": "",
							"type": "uint256"
						}
					],
					"stateMutability": "view",
					"type": "function"
				},
				{
					"inputs": [
						{
							"internalType": "uint256",
							"name": "",
							"type": "uint256"
						}
					],
					"name": "findpersonFromNumber",
					"outputs": [
						{
							"internalType": "string",
							"name": "",
							"type": "string"
						}
					],
					"stateMutability": "view",
					"type": "function"
				},
				{
					"inputs": [
						{
							"internalType": "uint256",
							"name": "",
							"type": "uint256"
						}
					],
					"name": "listofPeople",
					"outputs": [
						{
							"internalType": "uint256",
							"name": "favnumber",
							"type": "uint256"
						},
						{
							"internalType": "string",
							"name": "name",
							"type": "string"
						}
					],
					"stateMutability": "view",
					"type": "function"
				},
				{
					"inputs": [],
					"name": "retrieve",
					"outputs": [
						{
							"internalType": "uint256",
							"name": "",
							"type": "uint256"
						}
					],
					"stateMutability": "view",
					"type": "function"
				},
				{
					"inputs": [
						{
							"internalType": "uint256",
							"name": "_favnumber",
							"type": "uint256"
						}
					],
					"name": "store",
					"outputs": [],
					"stateMutability": "nonpayable",
					"type": "function"
				}
			],
			"devdoc": {
				"kind": "dev",
				"methods": {},
				"version": 1
			},
			"evm": {
				"assembly": "    /* \"contracts/arrays.sol\":80:1287  contract arrays {... */\n  mstore(0x40, 0x80)\n  callvalue\n  dup1\n  iszero\n  tag_1\n  jumpi\n  0x00\n  dup1\n  revert\ntag_1:\n  pop\n  dataSize(sub_0)\n  dup1\n  dataOffset(sub_0)\n  0x00\n  codecopy\n  0x00\n  return\nstop\n\nsub_0: assembly {\n        /* \"contracts/arrays.sol\":80:1287  contract arrays {... */\n      mstore(0x40, 0x80)\n      callvalue\n      dup1\n      iszero\n      tag_1\n      jumpi\n      0x00\n      dup1\n      revert\n    tag_1:\n      pop\n      jumpi(tag_2, lt(calldatasize, 0x04))\n      shr(0xe0, calldataload(0x00))\n      dup1\n      0x2e5effac\n      eq\n      tag_3\n      jumpi\n      dup1\n      0x2e64cec1\n      eq\n      tag_4\n      jumpi\n      dup1\n      0x397a01f9\n      eq\n      tag_5\n      jumpi\n      dup1\n      0x5d19f424\n      eq\n      tag_6\n      jumpi\n      dup1\n      0x6057361d\n      eq\n      tag_7\n      jumpi\n      dup1\n      0x6f760f41\n      eq\n      tag_8\n      jumpi\n    tag_2:\n      0x00\n      dup1\n      revert\n        /* \"contracts/arrays.sol\":425:453  person[] public listofPeople */\n    tag_3:\n      tag_9\n      0x04\n      dup1\n      calldatasize\n      sub\n      dup2\n      add\n      swap1\n      tag_10\n      swap2\n      swap1\n      tag_11\n      jump\t// in\n    tag_10:\n      tag_12\n      jump\t// in\n    tag_9:\n      mload(0x40)\n      tag_13\n      swap3\n      swap2\n      swap1\n      tag_14\n      jump\t// in\n    tag_13:\n      mload(0x40)\n      dup1\n      swap2\n      sub\n      swap1\n      return\n        /* \"contracts/arrays.sol\":737:824  function retrieve() public view returns(uint256){... */\n    tag_4:\n      tag_15\n      tag_16\n      jump\t// in\n    tag_15:\n      mload(0x40)\n      tag_17\n      swap2\n      swap1\n      tag_18\n      jump\t// in\n    tag_17:\n      mload(0x40)\n      dup1\n      swap2\n      sub\n      swap1\n      return\n        /* \"contracts/arrays.sol\":577:632  mapping (uint256 => string) public findpersonFromNumber */\n    tag_5:\n      tag_19\n      0x04\n      dup1\n      calldatasize\n      sub\n      dup2\n      add\n      swap1\n      tag_20\n      swap2\n      swap1\n      tag_11\n      jump\t// in\n    tag_20:\n      tag_21\n      jump\t// in\n    tag_19:\n      mload(0x40)\n      tag_22\n      swap2\n      swap1\n      tag_23\n      jump\t// in\n    tag_22:\n      mload(0x40)\n      dup1\n      swap2\n      sub\n      swap1\n      return\n        /* \"contracts/arrays.sol\":521:569  mapping (string => uint256) public findFavNumber */\n    tag_6:\n      tag_24\n      0x04\n      dup1\n      calldatasize\n      sub\n      dup2\n      add\n      swap1\n      tag_25\n      swap2\n      swap1\n      tag_26\n      jump\t// in\n    tag_25:\n      tag_27\n      jump\t// in\n    tag_24:\n      mload(0x40)\n      tag_28\n      swap2\n      swap1\n      tag_18\n      jump\t// in\n    tag_28:\n      mload(0x40)\n      dup1\n      swap2\n      sub\n      swap1\n      return\n        /* \"contracts/arrays.sol\":644:730  function store(uint256 _favnumber)public {... */\n    tag_7:\n      tag_29\n      0x04\n      dup1\n      calldatasize\n      sub\n      dup2\n      add\n      swap1\n      tag_30\n      swap2\n      swap1\n      tag_11\n      jump\t// in\n    tag_30:\n      tag_31\n      jump\t// in\n    tag_29:\n      stop\n        /* \"contracts/arrays.sol\":831:1284  function addPerson(string memory _name, uint256 _favoriteNumber) public {... */\n    tag_8:\n      tag_32\n      0x04\n      dup1\n      calldatasize\n      sub\n      dup2\n      add\n      swap1\n      tag_33\n      swap2\n      swap1\n      tag_34\n      jump\t// in\n    tag_33:\n      tag_35\n      jump\t// in\n    tag_32:\n      stop\n        /* \"contracts/arrays.sol\":425:453  person[] public listofPeople */\n    tag_12:\n      0x01\n      dup2\n      dup2\n      sload\n      dup2\n      lt\n      tag_36\n      jumpi\n      0x00\n      dup1\n      revert\n    tag_36:\n      swap1\n      0x00\n      mstore\n      keccak256(0x00, 0x20)\n      swap1\n      0x02\n      mul\n      add\n      0x00\n      swap2\n      pop\n      swap1\n      pop\n      dup1\n      0x00\n      add\n      sload\n      swap1\n      dup1\n      0x01\n      add\n      dup1\n      sload\n      tag_38\n      swap1\n      tag_39\n      jump\t// in\n    tag_38:\n      dup1\n      0x1f\n      add\n      0x20\n      dup1\n      swap2\n      div\n      mul\n      0x20\n      add\n      mload(0x40)\n      swap1\n      dup2\n      add\n      0x40\n      mstore\n      dup1\n      swap3\n      swap2\n      swap1\n      dup2\n      dup2\n      mstore\n      0x20\n      add\n      dup3\n      dup1\n      sload\n      tag_40\n      swap1\n      tag_39\n      jump\t// in\n    tag_40:\n      dup1\n      iszero\n      tag_41\n      jumpi\n      dup1\n      0x1f\n      lt\n      tag_42\n      jumpi\n      0x0100\n      dup1\n      dup4\n      sload\n      div\n      mul\n      dup4\n      mstore\n      swap2\n      0x20\n      add\n      swap2\n      jump(tag_41)\n    tag_42:\n      dup3\n      add\n      swap2\n      swap1\n      0x00\n      mstore\n      keccak256(0x00, 0x20)\n      swap1\n    tag_43:\n      dup2\n      sload\n      dup2\n      mstore\n      swap1\n      0x01\n      add\n      swap1\n      0x20\n      add\n      dup1\n      dup4\n      gt\n      tag_43\n      jumpi\n      dup3\n      swap1\n      sub\n      0x1f\n      and\n      dup3\n      add\n      swap2\n    tag_41:\n      pop\n      pop\n      pop\n      pop\n      pop\n      swap1\n      pop\n      dup3\n      jump\t// out\n        /* \"contracts/arrays.sol\":737:824  function retrieve() public view returns(uint256){... */\n    tag_16:\n        /* \"contracts/arrays.sol\":777:784  uint256 */\n      0x00\n        /* \"contracts/arrays.sol\":803:817  favoriteNumber */\n      dup1\n      sload\n        /* \"contracts/arrays.sol\":796:817  return favoriteNumber */\n      swap1\n      pop\n        /* \"contracts/arrays.sol\":737:824  function retrieve() public view returns(uint256){... */\n      swap1\n      jump\t// out\n        /* \"contracts/arrays.sol\":577:632  mapping (uint256 => string) public findpersonFromNumber */\n    tag_21:\n      mstore(0x20, 0x03)\n      dup1\n      0x00\n      mstore\n      keccak256(0x00, 0x40)\n      0x00\n      swap2\n      pop\n      swap1\n      pop\n      dup1\n      sload\n      tag_45\n      swap1\n      tag_39\n      jump\t// in\n    tag_45:\n      dup1\n      0x1f\n      add\n      0x20\n      dup1\n      swap2\n      div\n      mul\n      0x20\n      add\n      mload(0x40)\n      swap1\n      dup2\n      add\n      0x40\n      mstore\n      dup1\n      swap3\n      swap2\n      swap1\n      dup2\n      dup2\n      mstore\n      0x20\n      add\n      dup3\n      dup1\n      sload\n      tag_46\n      swap1\n      tag_39\n      jump\t// in\n    tag_46:\n      dup1\n      iszero\n      tag_47\n      jumpi\n      dup1\n      0x1f\n      lt\n      tag_48\n      jumpi\n      0x0100\n      dup1\n      dup4\n      sload\n      div\n      mul\n      dup4\n      mstore\n      swap2\n      0x20\n      add\n      swap2\n      jump(tag_47)\n    tag_48:\n      dup3\n      add\n      swap2\n      swap1\n      0x00\n      mstore\n      keccak256(0x00, 0x20)\n      swap1\n    tag_49:\n      dup2\n      sload\n      dup2\n      mstore\n      swap1\n      0x01\n      add\n      swap1\n      0x20\n      add\n      dup1\n      dup4\n      gt\n      tag_49\n      jumpi\n      dup3\n      swap1\n      sub\n      0x1f\n      and\n      dup3\n      add\n      swap2\n    tag_47:\n      pop\n      pop\n      pop\n      pop\n      pop\n      dup2\n      jump\t// out\n        /* \"contracts/arrays.sol\":521:569  mapping (string => uint256) public findFavNumber */\n    tag_27:\n      0x02\n      dup2\n      dup1\n      mload\n      0x20\n      dup2\n      add\n      dup3\n      add\n      dup1\n      mload\n      dup5\n      dup3\n      mstore\n      0x20\n      dup4\n      add\n      0x20\n      dup6\n      add\n      keccak256\n      dup2\n      dup4\n      mstore\n      dup1\n      swap6\n      pop\n      pop\n      pop\n      pop\n      pop\n      pop\n      0x00\n      swap2\n      pop\n      swap1\n      pop\n      sload\n      dup2\n      jump\t// out\n        /* \"contracts/arrays.sol\":644:730  function store(uint256 _favnumber)public {... */\n    tag_31:\n        /* \"contracts/arrays.sol\":713:723  _favnumber */\n      dup1\n        /* \"contracts/arrays.sol\":696:710  favoriteNumber */\n      0x00\n        /* \"contracts/arrays.sol\":696:723  favoriteNumber = _favnumber */\n      dup2\n      swap1\n      sstore\n      pop\n        /* \"contracts/arrays.sol\":644:730  function store(uint256 _favnumber)public {... */\n      pop\n      jump\t// out\n        /* \"contracts/arrays.sol\":831:1284  function addPerson(string memory _name, uint256 _favoriteNumber) public {... */\n    tag_35:\n        /* \"contracts/arrays.sol\":921:944  person memory newPerson */\n      0x00\n        /* \"contracts/arrays.sol\":947:976  person(_favoriteNumber,_name) */\n      mload(0x40)\n      dup1\n      0x40\n      add\n      0x40\n      mstore\n      dup1\n        /* \"contracts/arrays.sol\":954:969  _favoriteNumber */\n      dup4\n        /* \"contracts/arrays.sol\":947:976  person(_favoriteNumber,_name) */\n      dup2\n      mstore\n      0x20\n      add\n        /* \"contracts/arrays.sol\":970:975  _name */\n      dup5\n        /* \"contracts/arrays.sol\":947:976  person(_favoriteNumber,_name) */\n      dup2\n      mstore\n      pop\n        /* \"contracts/arrays.sol\":921:976  person memory newPerson = person(_favoriteNumber,_name) */\n      swap1\n      pop\n        /* \"contracts/arrays.sol\":995:1007  listofPeople */\n      0x01\n        /* \"contracts/arrays.sol\":1013:1022  newPerson */\n      dup2\n        /* \"contracts/arrays.sol\":995:1023  listofPeople.push(newPerson) */\n      swap1\n      dup1\n      0x01\n      dup2\n      sload\n      add\n      dup1\n      dup3\n      sstore\n      dup1\n      swap2\n      pop\n      pop\n      0x01\n      swap1\n      sub\n      swap1\n      0x00\n      mstore\n      keccak256(0x00, 0x20)\n      swap1\n      0x02\n      mul\n      add\n      0x00\n      swap1\n      swap2\n      swap1\n      swap2\n      swap1\n      swap2\n      pop\n      0x00\n      dup3\n      add\n      mload\n      dup2\n      0x00\n      add\n      sstore\n      0x20\n      dup3\n      add\n      mload\n      dup2\n      0x01\n      add\n      swap1\n      dup2\n      tag_53\n      swap2\n      swap1\n      tag_54\n      jump\t// in\n    tag_53:\n      pop\n      pop\n      pop\n        /* \"contracts/arrays.sol\":1120:1135  _favoriteNumber */\n      dup2\n        /* \"contracts/arrays.sol\":1097:1110  findFavNumber */\n      0x02\n        /* \"contracts/arrays.sol\":1111:1116  _name */\n      dup5\n        /* \"contracts/arrays.sol\":1097:1117  findFavNumber[_name] */\n      mload(0x40)\n      tag_55\n      swap2\n      swap1\n      tag_56\n      jump\t// in\n    tag_55:\n      swap1\n      dup2\n      mstore\n      0x20\n      add\n      mload(0x40)\n      dup1\n      swap2\n      sub\n      swap1\n      keccak256\n        /* \"contracts/arrays.sol\":1097:1135  findFavNumber[_name] = _favoriteNumber */\n      dup2\n      swap1\n      sstore\n      pop\n        /* \"contracts/arrays.sol\":1187:1192  _name */\n      dup3\n        /* \"contracts/arrays.sol\":1147:1167  findpersonFromNumber */\n      0x03\n        /* \"contracts/arrays.sol\":1147:1184  findpersonFromNumber[_favoriteNumber] */\n      0x00\n        /* \"contracts/arrays.sol\":1168:1183  _favoriteNumber */\n      dup5\n        /* \"contracts/arrays.sol\":1147:1184  findpersonFromNumber[_favoriteNumber] */\n      dup2\n      mstore\n      0x20\n      add\n      swap1\n      dup2\n      mstore\n      0x20\n      add\n      0x00\n      keccak256\n        /* \"contracts/arrays.sol\":1147:1192  findpersonFromNumber[_favoriteNumber] = _name */\n      swap1\n      dup2\n      tag_57\n      swap2\n      swap1\n      tag_54\n      jump\t// in\n    tag_57:\n      pop\n        /* \"contracts/arrays.sol\":903:1284  {... */\n      pop\n        /* \"contracts/arrays.sol\":831:1284  function addPerson(string memory _name, uint256 _favoriteNumber) public {... */\n      pop\n      pop\n      jump\t// out\n        /* \"#utility.yul\":7:82   */\n    tag_58:\n        /* \"#utility.yul\":40:46   */\n      0x00\n        /* \"#utility.yul\":73:75   */\n      0x40\n        /* \"#utility.yul\":67:76   */\n      mload\n        /* \"#utility.yul\":57:76   */\n      swap1\n      pop\n        /* \"#utility.yul\":7:82   */\n      swap1\n      jump\t// out\n        /* \"#utility.yul\":88:205   */\n    tag_59:\n        /* \"#utility.yul\":197:198   */\n      0x00\n        /* \"#utility.yul\":194:195   */\n      dup1\n        /* \"#utility.yul\":187:199   */\n      revert\n        /* \"#utility.yul\":211:328   */\n    tag_60:\n        /* \"#utility.yul\":320:321   */\n      0x00\n        /* \"#utility.yul\":317:318   */\n      dup1\n        /* \"#utility.yul\":310:322   */\n      revert\n        /* \"#utility.yul\":334:411   */\n    tag_61:\n        /* \"#utility.yul\":371:378   */\n      0x00\n        /* \"#utility.yul\":400:405   */\n      dup2\n        /* \"#utility.yul\":389:405   */\n      swap1\n      pop\n        /* \"#utility.yul\":334:411   */\n      swap2\n      swap1\n      pop\n      jump\t// out\n        /* \"#utility.yul\":417:539   */\n    tag_62:\n        /* \"#utility.yul\":490:514   */\n      tag_103\n        /* \"#utility.yul\":508:513   */\n      dup2\n        /* \"#utility.yul\":490:514   */\n      tag_61\n      jump\t// in\n    tag_103:\n        /* \"#utility.yul\":483:488   */\n      dup2\n        /* \"#utility.yul\":480:515   */\n      eq\n        /* \"#utility.yul\":470:533   */\n      tag_104\n      jumpi\n        /* \"#utility.yul\":529:530   */\n      0x00\n        /* \"#utility.yul\":526:527   */\n      dup1\n        /* \"#utility.yul\":519:531   */\n      revert\n        /* \"#utility.yul\":470:533   */\n    tag_104:\n        /* \"#utility.yul\":417:539   */\n      pop\n      jump\t// out\n        /* \"#utility.yul\":545:684   */\n    tag_63:\n        /* \"#utility.yul\":591:596   */\n      0x00\n        /* \"#utility.yul\":629:635   */\n      dup2\n        /* \"#utility.yul\":616:636   */\n      calldataload\n        /* \"#utility.yul\":607:636   */\n      swap1\n      pop\n        /* \"#utility.yul\":645:678   */\n      tag_106\n        /* \"#utility.yul\":672:677   */\n      dup2\n        /* \"#utility.yul\":645:678   */\n      tag_62\n      jump\t// in\n    tag_106:\n        /* \"#utility.yul\":545:684   */\n      swap3\n      swap2\n      pop\n      pop\n      jump\t// out\n        /* \"#utility.yul\":690:1019   */\n    tag_11:\n        /* \"#utility.yul\":749:755   */\n      0x00\n        /* \"#utility.yul\":798:800   */\n      0x20\n        /* \"#utility.yul\":786:795   */\n      dup3\n        /* \"#utility.yul\":777:784   */\n      dup5\n        /* \"#utility.yul\":773:796   */\n      sub\n        /* \"#utility.yul\":769:801   */\n      slt\n        /* \"#utility.yul\":766:885   */\n      iszero\n      tag_108\n      jumpi\n        /* \"#utility.yul\":804:883   */\n      tag_109\n      tag_59\n      jump\t// in\n    tag_109:\n        /* \"#utility.yul\":766:885   */\n    tag_108:\n        /* \"#utility.yul\":924:925   */\n      0x00\n        /* \"#utility.yul\":949:1002   */\n      tag_110\n        /* \"#utility.yul\":994:1001   */\n      dup5\n        /* \"#utility.yul\":985:991   */\n      dup3\n        /* \"#utility.yul\":974:983   */\n      dup6\n        /* \"#utility.yul\":970:992   */\n      add\n        /* \"#utility.yul\":949:1002   */\n      tag_63\n      jump\t// in\n    tag_110:\n        /* \"#utility.yul\":939:1002   */\n      swap2\n      pop\n        /* \"#utility.yul\":895:1012   */\n      pop\n        /* \"#utility.yul\":690:1019   */\n      swap3\n      swap2\n      pop\n      pop\n      jump\t// out\n        /* \"#utility.yul\":1025:1143   */\n    tag_64:\n        /* \"#utility.yul\":1112:1136   */\n      tag_112\n        /* \"#utility.yul\":1130:1135   */\n      dup2\n        /* \"#utility.yul\":1112:1136   */\n      tag_61\n      jump\t// in\n    tag_112:\n        /* \"#utility.yul\":1107:1110   */\n      dup3\n        /* \"#utility.yul\":1100:1137   */\n      mstore\n        /* \"#utility.yul\":1025:1143   */\n      pop\n      pop\n      jump\t// out\n        /* \"#utility.yul\":1149:1248   */\n    tag_65:\n        /* \"#utility.yul\":1201:1207   */\n      0x00\n        /* \"#utility.yul\":1235:1240   */\n      dup2\n        /* \"#utility.yul\":1229:1241   */\n      mload\n        /* \"#utility.yul\":1219:1241   */\n      swap1\n      pop\n        /* \"#utility.yul\":1149:1248   */\n      swap2\n      swap1\n      pop\n      jump\t// out\n        /* \"#utility.yul\":1254:1423   */\n    tag_66:\n        /* \"#utility.yul\":1338:1349   */\n      0x00\n        /* \"#utility.yul\":1372:1378   */\n      dup3\n        /* \"#utility.yul\":1367:1370   */\n      dup3\n        /* \"#utility.yul\":1360:1379   */\n      mstore\n        /* \"#utility.yul\":1412:1416   */\n      0x20\n        /* \"#utility.yul\":1407:1410   */\n      dup3\n        /* \"#utility.yul\":1403:1417   */\n      add\n        /* \"#utility.yul\":1388:1417   */\n      swap1\n      pop\n        /* \"#utility.yul\":1254:1423   */\n      swap3\n      swap2\n      pop\n      pop\n      jump\t// out\n        /* \"#utility.yul\":1429:1568   */\n    tag_67:\n        /* \"#utility.yul\":1518:1524   */\n      dup3\n        /* \"#utility.yul\":1513:1516   */\n      dup2\n        /* \"#utility.yul\":1508:1511   */\n      dup4\n        /* \"#utility.yul\":1502:1525   */\n      mcopy\n        /* \"#utility.yul\":1559:1560   */\n      0x00\n        /* \"#utility.yul\":1550:1556   */\n      dup4\n        /* \"#utility.yul\":1545:1548   */\n      dup4\n        /* \"#utility.yul\":1541:1557   */\n      add\n        /* \"#utility.yul\":1534:1561   */\n      mstore\n        /* \"#utility.yul\":1429:1568   */\n      pop\n      pop\n      pop\n      jump\t// out\n        /* \"#utility.yul\":1574:1676   */\n    tag_68:\n        /* \"#utility.yul\":1615:1621   */\n      0x00\n        /* \"#utility.yul\":1666:1668   */\n      0x1f\n        /* \"#utility.yul\":1662:1669   */\n      not\n        /* \"#utility.yul\":1657:1659   */\n      0x1f\n        /* \"#utility.yul\":1650:1655   */\n      dup4\n        /* \"#utility.yul\":1646:1660   */\n      add\n        /* \"#utility.yul\":1642:1670   */\n      and\n        /* \"#utility.yul\":1632:1670   */\n      swap1\n      pop\n        /* \"#utility.yul\":1574:1676   */\n      swap2\n      swap1\n      pop\n      jump\t// out\n        /* \"#utility.yul\":1682:2059   */\n    tag_69:\n        /* \"#utility.yul\":1770:1773   */\n      0x00\n        /* \"#utility.yul\":1798:1837   */\n      tag_118\n        /* \"#utility.yul\":1831:1836   */\n      dup3\n        /* \"#utility.yul\":1798:1837   */\n      tag_65\n      jump\t// in\n    tag_118:\n        /* \"#utility.yul\":1853:1924   */\n      tag_119\n        /* \"#utility.yul\":1917:1923   */\n      dup2\n        /* \"#utility.yul\":1912:1915   */\n      dup6\n        /* \"#utility.yul\":1853:1924   */\n      tag_66\n      jump\t// in\n    tag_119:\n        /* \"#utility.yul\":1846:1924   */\n      swap4\n      pop\n        /* \"#utility.yul\":1933:1998   */\n      tag_120\n        /* \"#utility.yul\":1991:1997   */\n      dup2\n        /* \"#utility.yul\":1986:1989   */\n      dup6\n        /* \"#utility.yul\":1979:1983   */\n      0x20\n        /* \"#utility.yul\":1972:1977   */\n      dup7\n        /* \"#utility.yul\":1968:1984   */\n      add\n        /* \"#utility.yul\":1933:1998   */\n      tag_67\n      jump\t// in\n    tag_120:\n        /* \"#utility.yul\":2023:2052   */\n      tag_121\n        /* \"#utility.yul\":2045:2051   */\n      dup2\n        /* \"#utility.yul\":2023:2052   */\n      tag_68\n      jump\t// in\n    tag_121:\n        /* \"#utility.yul\":2018:2021   */\n      dup5\n        /* \"#utility.yul\":2014:2053   */\n      add\n        /* \"#utility.yul\":2007:2053   */\n      swap2\n      pop\n        /* \"#utility.yul\":1774:2059   */\n      pop\n        /* \"#utility.yul\":1682:2059   */\n      swap3\n      swap2\n      pop\n      pop\n      jump\t// out\n        /* \"#utility.yul\":2065:2488   */\n    tag_14:\n        /* \"#utility.yul\":2206:2210   */\n      0x00\n        /* \"#utility.yul\":2244:2246   */\n      0x40\n        /* \"#utility.yul\":2233:2242   */\n      dup3\n        /* \"#utility.yul\":2229:2247   */\n      add\n        /* \"#utility.yul\":2221:2247   */\n      swap1\n      pop\n        /* \"#utility.yul\":2257:2328   */\n      tag_123\n        /* \"#utility.yul\":2325:2326   */\n      0x00\n        /* \"#utility.yul\":2314:2323   */\n      dup4\n        /* \"#utility.yul\":2310:2327   */\n      add\n        /* \"#utility.yul\":2301:2307   */\n      dup6\n        /* \"#utility.yul\":2257:2328   */\n      tag_64\n      jump\t// in\n    tag_123:\n        /* \"#utility.yul\":2375:2384   */\n      dup2\n        /* \"#utility.yul\":2369:2373   */\n      dup2\n        /* \"#utility.yul\":2365:2385   */\n      sub\n        /* \"#utility.yul\":2360:2362   */\n      0x20\n        /* \"#utility.yul\":2349:2358   */\n      dup4\n        /* \"#utility.yul\":2345:2363   */\n      add\n        /* \"#utility.yul\":2338:2386   */\n      mstore\n        /* \"#utility.yul\":2403:2481   */\n      tag_124\n        /* \"#utility.yul\":2476:2480   */\n      dup2\n        /* \"#utility.yul\":2467:2473   */\n      dup5\n        /* \"#utility.yul\":2403:2481   */\n      tag_69\n      jump\t// in\n    tag_124:\n        /* \"#utility.yul\":2395:2481   */\n      swap1\n      pop\n        /* \"#utility.yul\":2065:2488   */\n      swap4\n      swap3\n      pop\n      pop\n      pop\n      jump\t// out\n        /* \"#utility.yul\":2494:2716   */\n    tag_18:\n        /* \"#utility.yul\":2587:2591   */\n      0x00\n        /* \"#utility.yul\":2625:2627   */\n      0x20\n        /* \"#utility.yul\":2614:2623   */\n      dup3\n        /* \"#utility.yul\":2610:2628   */\n      add\n        /* \"#utility.yul\":2602:2628   */\n      swap1\n      pop\n        /* \"#utility.yul\":2638:2709   */\n      tag_126\n        /* \"#utility.yul\":2706:2707   */\n      0x00\n        /* \"#utility.yul\":2695:2704   */\n      dup4\n        /* \"#utility.yul\":2691:2708   */\n      add\n        /* \"#utility.yul\":2682:2688   */\n      dup5\n        /* \"#utility.yul\":2638:2709   */\n      tag_64\n      jump\t// in\n    tag_126:\n        /* \"#utility.yul\":2494:2716   */\n      swap3\n      swap2\n      pop\n      pop\n      jump\t// out\n        /* \"#utility.yul\":2722:3035   */\n    tag_23:\n        /* \"#utility.yul\":2835:2839   */\n      0x00\n        /* \"#utility.yul\":2873:2875   */\n      0x20\n        /* \"#utility.yul\":2862:2871   */\n      dup3\n        /* \"#utility.yul\":2858:2876   */\n      add\n        /* \"#utility.yul\":2850:2876   */\n      swap1\n      pop\n        /* \"#utility.yul\":2922:2931   */\n      dup2\n        /* \"#utility.yul\":2916:2920   */\n      dup2\n        /* \"#utility.yul\":2912:2932   */\n      sub\n        /* \"#utility.yul\":2908:2909   */\n      0x00\n        /* \"#utility.yul\":2897:2906   */\n      dup4\n        /* \"#utility.yul\":2893:2910   */\n      add\n        /* \"#utility.yul\":2886:2933   */\n      mstore\n        /* \"#utility.yul\":2950:3028   */\n      tag_128\n        /* \"#utility.yul\":3023:3027   */\n      dup2\n        /* \"#utility.yul\":3014:3020   */\n      dup5\n        /* \"#utility.yul\":2950:3028   */\n      tag_69\n      jump\t// in\n    tag_128:\n        /* \"#utility.yul\":2942:3028   */\n      swap1\n      pop\n        /* \"#utility.yul\":2722:3035   */\n      swap3\n      swap2\n      pop\n      pop\n      jump\t// out\n        /* \"#utility.yul\":3041:3158   */\n    tag_70:\n        /* \"#utility.yul\":3150:3151   */\n      0x00\n        /* \"#utility.yul\":3147:3148   */\n      dup1\n        /* \"#utility.yul\":3140:3152   */\n      revert\n        /* \"#utility.yul\":3164:3281   */\n    tag_71:\n        /* \"#utility.yul\":3273:3274   */\n      0x00\n        /* \"#utility.yul\":3270:3271   */\n      dup1\n        /* \"#utility.yul\":3263:3275   */\n      revert\n        /* \"#utility.yul\":3287:3467   */\n    tag_72:\n        /* \"#utility.yul\":3335:3412   */\n      0x4e487b7100000000000000000000000000000000000000000000000000000000\n        /* \"#utility.yul\":3332:3333   */\n      0x00\n        /* \"#utility.yul\":3325:3413   */\n      mstore\n        /* \"#utility.yul\":3432:3436   */\n      0x41\n        /* \"#utility.yul\":3429:3430   */\n      0x04\n        /* \"#utility.yul\":3422:3437   */\n      mstore\n        /* \"#utility.yul\":3456:3460   */\n      0x24\n        /* \"#utility.yul\":3453:3454   */\n      0x00\n        /* \"#utility.yul\":3446:3461   */\n      revert\n        /* \"#utility.yul\":3473:3754   */\n    tag_73:\n        /* \"#utility.yul\":3556:3583   */\n      tag_133\n        /* \"#utility.yul\":3578:3582   */\n      dup3\n        /* \"#utility.yul\":3556:3583   */\n      tag_68\n      jump\t// in\n    tag_133:\n        /* \"#utility.yul\":3548:3554   */\n      dup2\n        /* \"#utility.yul\":3544:3584   */\n      add\n        /* \"#utility.yul\":3686:3692   */\n      dup2\n        /* \"#utility.yul\":3674:3684   */\n      dup2\n        /* \"#utility.yul\":3671:3693   */\n      lt\n        /* \"#utility.yul\":3650:3668   */\n      0xffffffffffffffff\n        /* \"#utility.yul\":3638:3648   */\n      dup3\n        /* \"#utility.yul\":3635:3669   */\n      gt\n        /* \"#utility.yul\":3632:3694   */\n      or\n        /* \"#utility.yul\":3629:3717   */\n      iszero\n      tag_134\n      jumpi\n        /* \"#utility.yul\":3697:3715   */\n      tag_135\n      tag_72\n      jump\t// in\n    tag_135:\n        /* \"#utility.yul\":3629:3717   */\n    tag_134:\n        /* \"#utility.yul\":3737:3747   */\n      dup1\n        /* \"#utility.yul\":3733:3735   */\n      0x40\n        /* \"#utility.yul\":3726:3748   */\n      mstore\n        /* \"#utility.yul\":3516:3754   */\n      pop\n        /* \"#utility.yul\":3473:3754   */\n      pop\n      pop\n      jump\t// out\n        /* \"#utility.yul\":3760:3889   */\n    tag_74:\n        /* \"#utility.yul\":3794:3800   */\n      0x00\n        /* \"#utility.yul\":3821:3841   */\n      tag_137\n      tag_58\n      jump\t// in\n    tag_137:\n        /* \"#utility.yul\":3811:3841   */\n      swap1\n      pop\n        /* \"#utility.yul\":3850:3883   */\n      tag_138\n        /* \"#utility.yul\":3878:3882   */\n      dup3\n        /* \"#utility.yul\":3870:3876   */\n      dup3\n        /* \"#utility.yul\":3850:3883   */\n      tag_73\n      jump\t// in\n    tag_138:\n        /* \"#utility.yul\":3760:3889   */\n      swap2\n      swap1\n      pop\n      jump\t// out\n        /* \"#utility.yul\":3895:4203   */\n    tag_75:\n        /* \"#utility.yul\":3957:3961   */\n      0x00\n        /* \"#utility.yul\":4047:4065   */\n      0xffffffffffffffff\n        /* \"#utility.yul\":4039:4045   */\n      dup3\n        /* \"#utility.yul\":4036:4066   */\n      gt\n        /* \"#utility.yul\":4033:4089   */\n      iszero\n      tag_140\n      jumpi\n        /* \"#utility.yul\":4069:4087   */\n      tag_141\n      tag_72\n      jump\t// in\n    tag_141:\n        /* \"#utility.yul\":4033:4089   */\n    tag_140:\n        /* \"#utility.yul\":4107:4136   */\n      tag_142\n        /* \"#utility.yul\":4129:4135   */\n      dup3\n        /* \"#utility.yul\":4107:4136   */\n      tag_68\n      jump\t// in\n    tag_142:\n        /* \"#utility.yul\":4099:4136   */\n      swap1\n      pop\n        /* \"#utility.yul\":4191:4195   */\n      0x20\n        /* \"#utility.yul\":4185:4189   */\n      dup2\n        /* \"#utility.yul\":4181:4196   */\n      add\n        /* \"#utility.yul\":4173:4196   */\n      swap1\n      pop\n        /* \"#utility.yul\":3895:4203   */\n      swap2\n      swap1\n      pop\n      jump\t// out\n        /* \"#utility.yul\":4209:4357   */\n    tag_76:\n        /* \"#utility.yul\":4307:4313   */\n      dup3\n        /* \"#utility.yul\":4302:4305   */\n      dup2\n        /* \"#utility.yul\":4297:4300   */\n      dup4\n        /* \"#utility.yul\":4284:4314   */\n      calldatacopy\n        /* \"#utility.yul\":4348:4349   */\n      0x00\n        /* \"#utility.yul\":4339:4345   */\n      dup4\n        /* \"#utility.yul\":4334:4337   */\n      dup4\n        /* \"#utility.yul\":4330:4346   */\n      add\n        /* \"#utility.yul\":4323:4350   */\n      mstore\n        /* \"#utility.yul\":4209:4357   */\n      pop\n      pop\n      pop\n      jump\t// out\n        /* \"#utility.yul\":4363:4788   */\n    tag_77:\n        /* \"#utility.yul\":4441:4446   */\n      0x00\n        /* \"#utility.yul\":4466:4532   */\n      tag_145\n        /* \"#utility.yul\":4482:4531   */\n      tag_146\n        /* \"#utility.yul\":4524:4530   */\n      dup5\n        /* \"#utility.yul\":4482:4531   */\n      tag_75\n      jump\t// in\n    tag_146:\n        /* \"#utility.yul\":4466:4532   */\n      tag_74\n      jump\t// in\n    tag_145:\n        /* \"#utility.yul\":4457:4532   */\n      swap1\n      pop\n        /* \"#utility.yul\":4555:4561   */\n      dup3\n        /* \"#utility.yul\":4548:4553   */\n      dup2\n        /* \"#utility.yul\":4541:4562   */\n      mstore\n        /* \"#utility.yul\":4593:4597   */\n      0x20\n        /* \"#utility.yul\":4586:4591   */\n      dup2\n        /* \"#utility.yul\":4582:4598   */\n      add\n        /* \"#utility.yul\":4631:4634   */\n      dup5\n        /* \"#utility.yul\":4622:4628   */\n      dup5\n        /* \"#utility.yul\":4617:4620   */\n      dup5\n        /* \"#utility.yul\":4613:4629   */\n      add\n        /* \"#utility.yul\":4610:4635   */\n      gt\n        /* \"#utility.yul\":4607:4719   */\n      iszero\n      tag_147\n      jumpi\n        /* \"#utility.yul\":4638:4717   */\n      tag_148\n      tag_71\n      jump\t// in\n    tag_148:\n        /* \"#utility.yul\":4607:4719   */\n    tag_147:\n        /* \"#utility.yul\":4728:4782   */\n      tag_149\n        /* \"#utility.yul\":4775:4781   */\n      dup5\n        /* \"#utility.yul\":4770:4773   */\n      dup3\n        /* \"#utility.yul\":4765:4768   */\n      dup6\n        /* \"#utility.yul\":4728:4782   */\n      tag_76\n      jump\t// in\n    tag_149:\n        /* \"#utility.yul\":4447:4788   */\n      pop\n        /* \"#utility.yul\":4363:4788   */\n      swap4\n      swap3\n      pop\n      pop\n      pop\n      jump\t// out\n        /* \"#utility.yul\":4808:5148   */\n    tag_78:\n        /* \"#utility.yul\":4864:4869   */\n      0x00\n        /* \"#utility.yul\":4913:4916   */\n      dup3\n        /* \"#utility.yul\":4906:4910   */\n      0x1f\n        /* \"#utility.yul\":4898:4904   */\n      dup4\n        /* \"#utility.yul\":4894:4911   */\n      add\n        /* \"#utility.yul\":4890:4917   */\n      slt\n        /* \"#utility.yul\":4880:5002   */\n      tag_151\n      jumpi\n        /* \"#utility.yul\":4921:5000   */\n      tag_152\n      tag_70\n      jump\t// in\n    tag_152:\n        /* \"#utility.yul\":4880:5002   */\n    tag_151:\n        /* \"#utility.yul\":5038:5044   */\n      dup2\n        /* \"#utility.yul\":5025:5045   */\n      calldataload\n        /* \"#utility.yul\":5063:5142   */\n      tag_153\n        /* \"#utility.yul\":5138:5141   */\n      dup5\n        /* \"#utility.yul\":5130:5136   */\n      dup3\n        /* \"#utility.yul\":5123:5127   */\n      0x20\n        /* \"#utility.yul\":5115:5121   */\n      dup7\n        /* \"#utility.yul\":5111:5128   */\n      add\n        /* \"#utility.yul\":5063:5142   */\n      tag_77\n      jump\t// in\n    tag_153:\n        /* \"#utility.yul\":5054:5142   */\n      swap2\n      pop\n        /* \"#utility.yul\":4870:5148   */\n      pop\n        /* \"#utility.yul\":4808:5148   */\n      swap3\n      swap2\n      pop\n      pop\n      jump\t// out\n        /* \"#utility.yul\":5154:5663   */\n    tag_26:\n        /* \"#utility.yul\":5223:5229   */\n      0x00\n        /* \"#utility.yul\":5272:5274   */\n      0x20\n        /* \"#utility.yul\":5260:5269   */\n      dup3\n        /* \"#utility.yul\":5251:5258   */\n      dup5\n        /* \"#utility.yul\":5247:5270   */\n      sub\n        /* \"#utility.yul\":5243:5275   */\n      slt\n        /* \"#utility.yul\":5240:5359   */\n      iszero\n      tag_155\n      jumpi\n        /* \"#utility.yul\":5278:5357   */\n      tag_156\n      tag_59\n      jump\t// in\n    tag_156:\n        /* \"#utility.yul\":5240:5359   */\n    tag_155:\n        /* \"#utility.yul\":5426:5427   */\n      0x00\n        /* \"#utility.yul\":5415:5424   */\n      dup3\n        /* \"#utility.yul\":5411:5428   */\n      add\n        /* \"#utility.yul\":5398:5429   */\n      calldataload\n        /* \"#utility.yul\":5456:5474   */\n      0xffffffffffffffff\n        /* \"#utility.yul\":5448:5454   */\n      dup2\n        /* \"#utility.yul\":5445:5475   */\n      gt\n        /* \"#utility.yul\":5442:5559   */\n      iszero\n      tag_157\n      jumpi\n        /* \"#utility.yul\":5478:5557   */\n      tag_158\n      tag_60\n      jump\t// in\n    tag_158:\n        /* \"#utility.yul\":5442:5559   */\n    tag_157:\n        /* \"#utility.yul\":5583:5646   */\n      tag_159\n        /* \"#utility.yul\":5638:5645   */\n      dup5\n        /* \"#utility.yul\":5629:5635   */\n      dup3\n        /* \"#utility.yul\":5618:5627   */\n      dup6\n        /* \"#utility.yul\":5614:5636   */\n      add\n        /* \"#utility.yul\":5583:5646   */\n      tag_78\n      jump\t// in\n    tag_159:\n        /* \"#utility.yul\":5573:5646   */\n      swap2\n      pop\n        /* \"#utility.yul\":5369:5656   */\n      pop\n        /* \"#utility.yul\":5154:5663   */\n      swap3\n      swap2\n      pop\n      pop\n      jump\t// out\n        /* \"#utility.yul\":5669:6323   */\n    tag_34:\n        /* \"#utility.yul\":5747:5753   */\n      0x00\n        /* \"#utility.yul\":5755:5761   */\n      dup1\n        /* \"#utility.yul\":5804:5806   */\n      0x40\n        /* \"#utility.yul\":5792:5801   */\n      dup4\n        /* \"#utility.yul\":5783:5790   */\n      dup6\n        /* \"#utility.yul\":5779:5802   */\n      sub\n        /* \"#utility.yul\":5775:5807   */\n      slt\n        /* \"#utility.yul\":5772:5891   */\n      iszero\n      tag_161\n      jumpi\n        /* \"#utility.yul\":5810:5889   */\n      tag_162\n      tag_59\n      jump\t// in\n    tag_162:\n        /* \"#utility.yul\":5772:5891   */\n    tag_161:\n        /* \"#utility.yul\":5958:5959   */\n      0x00\n        /* \"#utility.yul\":5947:5956   */\n      dup4\n        /* \"#utility.yul\":5943:5960   */\n      add\n        /* \"#utility.yul\":5930:5961   */\n      calldataload\n        /* \"#utility.yul\":5988:6006   */\n      0xffffffffffffffff\n        /* \"#utility.yul\":5980:5986   */\n      dup2\n        /* \"#utility.yul\":5977:6007   */\n      gt\n        /* \"#utility.yul\":5974:6091   */\n      iszero\n      tag_163\n      jumpi\n        /* \"#utility.yul\":6010:6089   */\n      tag_164\n      tag_60\n      jump\t// in\n    tag_164:\n        /* \"#utility.yul\":5974:6091   */\n    tag_163:\n        /* \"#utility.yul\":6115:6178   */\n      tag_165\n        /* \"#utility.yul\":6170:6177   */\n      dup6\n        /* \"#utility.yul\":6161:6167   */\n      dup3\n        /* \"#utility.yul\":6150:6159   */\n      dup7\n        /* \"#utility.yul\":6146:6168   */\n      add\n        /* \"#utility.yul\":6115:6178   */\n      tag_78\n      jump\t// in\n    tag_165:\n        /* \"#utility.yul\":6105:6178   */\n      swap3\n      pop\n        /* \"#utility.yul\":5901:6188   */\n      pop\n        /* \"#utility.yul\":6227:6229   */\n      0x20\n        /* \"#utility.yul\":6253:6306   */\n      tag_166\n        /* \"#utility.yul\":6298:6305   */\n      dup6\n        /* \"#utility.yul\":6289:6295   */\n      dup3\n        /* \"#utility.yul\":6278:6287   */\n      dup7\n        /* \"#utility.yul\":6274:6296   */\n      add\n        /* \"#utility.yul\":6253:6306   */\n      tag_63\n      jump\t// in\n    tag_166:\n        /* \"#utility.yul\":6243:6306   */\n      swap2\n      pop\n        /* \"#utility.yul\":6198:6316   */\n      pop\n        /* \"#utility.yul\":5669:6323   */\n      swap3\n      pop\n      swap3\n      swap1\n      pop\n      jump\t// out\n        /* \"#utility.yul\":6329:6509   */\n    tag_79:\n        /* \"#utility.yul\":6377:6454   */\n      0x4e487b7100000000000000000000000000000000000000000000000000000000\n        /* \"#utility.yul\":6374:6375   */\n      0x00\n        /* \"#utility.yul\":6367:6455   */\n      mstore\n        /* \"#utility.yul\":6474:6478   */\n      0x22\n        /* \"#utility.yul\":6471:6472   */\n      0x04\n        /* \"#utility.yul\":6464:6479   */\n      mstore\n        /* \"#utility.yul\":6498:6502   */\n      0x24\n        /* \"#utility.yul\":6495:6496   */\n      0x00\n        /* \"#utility.yul\":6488:6503   */\n      revert\n        /* \"#utility.yul\":6515:6835   */\n    tag_39:\n        /* \"#utility.yul\":6559:6565   */\n      0x00\n        /* \"#utility.yul\":6596:6597   */\n      0x02\n        /* \"#utility.yul\":6590:6594   */\n      dup3\n        /* \"#utility.yul\":6586:6598   */\n      div\n        /* \"#utility.yul\":6576:6598   */\n      swap1\n      pop\n        /* \"#utility.yul\":6643:6644   */\n      0x01\n        /* \"#utility.yul\":6637:6641   */\n      dup3\n        /* \"#utility.yul\":6633:6645   */\n      and\n        /* \"#utility.yul\":6664:6682   */\n      dup1\n        /* \"#utility.yul\":6654:6735   */\n      tag_169\n      jumpi\n        /* \"#utility.yul\":6720:6724   */\n      0x7f\n        /* \"#utility.yul\":6712:6718   */\n      dup3\n        /* \"#utility.yul\":6708:6725   */\n      and\n        /* \"#utility.yul\":6698:6725   */\n      swap2\n      pop\n        /* \"#utility.yul\":6654:6735   */\n    tag_169:\n        /* \"#utility.yul\":6782:6784   */\n      0x20\n        /* \"#utility.yul\":6774:6780   */\n      dup3\n        /* \"#utility.yul\":6771:6785   */\n      lt\n        /* \"#utility.yul\":6751:6769   */\n      dup2\n        /* \"#utility.yul\":6748:6786   */\n      sub\n        /* \"#utility.yul\":6745:6829   */\n      tag_170\n      jumpi\n        /* \"#utility.yul\":6801:6819   */\n      tag_171\n      tag_79\n      jump\t// in\n    tag_171:\n        /* \"#utility.yul\":6745:6829   */\n    tag_170:\n        /* \"#utility.yul\":6566:6835   */\n      pop\n        /* \"#utility.yul\":6515:6835   */\n      swap2\n      swap1\n      pop\n      jump\t// out\n        /* \"#utility.yul\":6841:6982   */\n    tag_80:\n        /* \"#utility.yul\":6890:6894   */\n      0x00\n        /* \"#utility.yul\":6913:6916   */\n      dup2\n        /* \"#utility.yul\":6905:6916   */\n      swap1\n      pop\n        /* \"#utility.yul\":6936:6939   */\n      dup2\n        /* \"#utility.yul\":6933:6934   */\n      0x00\n        /* \"#utility.yul\":6926:6940   */\n      mstore\n        /* \"#utility.yul\":6970:6974   */\n      0x20\n        /* \"#utility.yul\":6967:6968   */\n      0x00\n        /* \"#utility.yul\":6957:6975   */\n      keccak256\n        /* \"#utility.yul\":6949:6975   */\n      swap1\n      pop\n        /* \"#utility.yul\":6841:6982   */\n      swap2\n      swap1\n      pop\n      jump\t// out\n        /* \"#utility.yul\":6988:7081   */\n    tag_81:\n        /* \"#utility.yul\":7025:7031   */\n      0x00\n        /* \"#utility.yul\":7072:7074   */\n      0x20\n        /* \"#utility.yul\":7067:7069   */\n      0x1f\n        /* \"#utility.yul\":7060:7065   */\n      dup4\n        /* \"#utility.yul\":7056:7070   */\n      add\n        /* \"#utility.yul\":7052:7075   */\n      div\n        /* \"#utility.yul\":7042:7075   */\n      swap1\n      pop\n        /* \"#utility.yul\":6988:7081   */\n      swap2\n      swap1\n      pop\n      jump\t// out\n        /* \"#utility.yul\":7087:7194   */\n    tag_82:\n        /* \"#utility.yul\":7131:7139   */\n      0x00\n        /* \"#utility.yul\":7181:7186   */\n      dup3\n        /* \"#utility.yul\":7175:7179   */\n      dup3\n        /* \"#utility.yul\":7171:7187   */\n      shl\n        /* \"#utility.yul\":7150:7187   */\n      swap1\n      pop\n        /* \"#utility.yul\":7087:7194   */\n      swap3\n      swap2\n      pop\n      pop\n      jump\t// out\n        /* \"#utility.yul\":7200:7593   */\n    tag_83:\n        /* \"#utility.yul\":7269:7275   */\n      0x00\n        /* \"#utility.yul\":7319:7320   */\n      0x08\n        /* \"#utility.yul\":7307:7317   */\n      dup4\n        /* \"#utility.yul\":7303:7321   */\n      mul\n        /* \"#utility.yul\":7342:7439   */\n      tag_176\n        /* \"#utility.yul\":7372:7438   */\n      0xffffffffffffffffffffffffffffffffffffffffffffffffffffffffffffffff\n        /* \"#utility.yul\":7361:7370   */\n      dup3\n        /* \"#utility.yul\":7342:7439   */\n      tag_82\n      jump\t// in\n    tag_176:\n        /* \"#utility.yul\":7460:7499   */\n      tag_177\n        /* \"#utility.yul\":7490:7498   */\n      dup7\n        /* \"#utility.yul\":7479:7488   */\n      dup4\n        /* \"#utility.yul\":7460:7499   */\n      tag_82\n      jump\t// in\n    tag_177:\n        /* \"#utility.yul\":7448:7499   */\n      swap6\n      pop\n        /* \"#utility.yul\":7532:7536   */\n      dup1\n        /* \"#utility.yul\":7528:7537   */\n      not\n        /* \"#utility.yul\":7521:7526   */\n      dup5\n        /* \"#utility.yul\":7517:7538   */\n      and\n        /* \"#utility.yul\":7508:7538   */\n      swap4\n      pop\n        /* \"#utility.yul\":7581:7585   */\n      dup1\n        /* \"#utility.yul\":7571:7579   */\n      dup7\n        /* \"#utility.yul\":7567:7586   */\n      and\n        /* \"#utility.yul\":7560:7565   */\n      dup5\n        /* \"#utility.yul\":7557:7587   */\n      or\n        /* \"#utility.yul\":7547:7587   */\n      swap3\n      pop\n        /* \"#utility.yul\":7276:7593   */\n      pop\n      pop\n        /* \"#utility.yul\":7200:7593   */\n      swap4\n      swap3\n      pop\n      pop\n      pop\n      jump\t// out\n        /* \"#utility.yul\":7599:7659   */\n    tag_84:\n        /* \"#utility.yul\":7627:7630   */\n      0x00\n        /* \"#utility.yul\":7648:7653   */\n      dup2\n        /* \"#utility.yul\":7641:7653   */\n      swap1\n      pop\n        /* \"#utility.yul\":7599:7659   */\n      swap2\n      swap1\n      pop\n      jump\t// out\n        /* \"#utility.yul\":7665:7807   */\n    tag_85:\n        /* \"#utility.yul\":7715:7724   */\n      0x00\n        /* \"#utility.yul\":7748:7801   */\n      tag_180\n        /* \"#utility.yul\":7766:7800   */\n      tag_181\n        /* \"#utility.yul\":7775:7799   */\n      tag_182\n        /* \"#utility.yul\":7793:7798   */\n      dup5\n        /* \"#utility.yul\":7775:7799   */\n      tag_61\n      jump\t// in\n    tag_182:\n        /* \"#utility.yul\":7766:7800   */\n      tag_84\n      jump\t// in\n    tag_181:\n        /* \"#utility.yul\":7748:7801   */\n      tag_61\n      jump\t// in\n    tag_180:\n        /* \"#utility.yul\":7735:7801   */\n      swap1\n      pop\n        /* \"#utility.yul\":7665:7807   */\n      swap2\n      swap1\n      pop\n      jump\t// out\n        /* \"#utility.yul\":7813:7888   */\n    tag_86:\n        /* \"#utility.yul\":7856:7859   */\n      0x00\n        /* \"#utility.yul\":7877:7882   */\n      dup2\n        /* \"#utility.yul\":7870:7882   */\n      swap1\n      pop\n        /* \"#utility.yul\":7813:7888   */\n      swap2\n      swap1\n      pop\n      jump\t// out\n        /* \"#utility.yul\":7894:8163   */\n    tag_87:\n        /* \"#utility.yul\":8004:8043   */\n      tag_185\n        /* \"#utility.yul\":8035:8042   */\n      dup4\n        /* \"#utility.yul\":8004:8043   */\n      tag_85\n      jump\t// in\n    tag_185:\n        /* \"#utility.yul\":8065:8156   */\n      tag_186\n        /* \"#utility.yul\":8114:8155   */\n      tag_187\n        /* \"#utility.yul\":8138:8154   */\n      dup3\n        /* \"#utility.yul\":8114:8155   */\n      tag_86\n      jump\t// in\n    tag_187:\n        /* \"#utility.yul\":8106:8112   */\n      dup5\n        /* \"#utility.yul\":8099:8103   */\n      dup5\n        /* \"#utility.yul\":8093:8104   */\n      sload\n        /* \"#utility.yul\":8065:8156   */\n      tag_83\n      jump\t// in\n    tag_186:\n        /* \"#utility.yul\":8059:8063   */\n      dup3\n        /* \"#utility.yul\":8052:8157   */\n      sstore\n        /* \"#utility.yul\":7970:8163   */\n      pop\n        /* \"#utility.yul\":7894:8163   */\n      pop\n      pop\n      pop\n      jump\t// out\n        /* \"#utility.yul\":8169:8242   */\n    tag_88:\n        /* \"#utility.yul\":8214:8217   */\n      0x00\n        /* \"#utility.yul\":8169:8242   */\n      swap1\n      jump\t// out\n        /* \"#utility.yul\":8248:8437   */\n    tag_89:\n        /* \"#utility.yul\":8325:8357   */\n      tag_190\n      tag_88\n      jump\t// in\n    tag_190:\n        /* \"#utility.yul\":8366:8431   */\n      tag_191\n        /* \"#utility.yul\":8424:8430   */\n      dup2\n        /* \"#utility.yul\":8416:8422   */\n      dup5\n        /* \"#utility.yul\":8410:8414   */\n      dup5\n        /* \"#utility.yul\":8366:8431   */\n      tag_87\n      jump\t// in\n    tag_191:\n        /* \"#utility.yul\":8301:8437   */\n      pop\n        /* \"#utility.yul\":8248:8437   */\n      pop\n      pop\n      jump\t// out\n        /* \"#utility.yul\":8443:8629   */\n    tag_90:\n        /* \"#utility.yul\":8503:8623   */\n    tag_193:\n        /* \"#utility.yul\":8520:8523   */\n      dup2\n        /* \"#utility.yul\":8513:8518   */\n      dup2\n        /* \"#utility.yul\":8510:8524   */\n      lt\n        /* \"#utility.yul\":8503:8623   */\n      iszero\n      tag_195\n      jumpi\n        /* \"#utility.yul\":8574:8613   */\n      tag_196\n        /* \"#utility.yul\":8611:8612   */\n      0x00\n        /* \"#utility.yul\":8604:8609   */\n      dup3\n        /* \"#utility.yul\":8574:8613   */\n      tag_89\n      jump\t// in\n    tag_196:\n        /* \"#utility.yul\":8547:8548   */\n      0x01\n        /* \"#utility.yul\":8540:8545   */\n      dup2\n        /* \"#utility.yul\":8536:8549   */\n      add\n        /* \"#utility.yul\":8527:8549   */\n      swap1\n      pop\n        /* \"#utility.yul\":8503:8623   */\n      jump(tag_193)\n    tag_195:\n        /* \"#utility.yul\":8443:8629   */\n      pop\n      pop\n      jump\t// out\n        /* \"#utility.yul\":8635:9178   */\n    tag_91:\n        /* \"#utility.yul\":8736:8738   */\n      0x1f\n        /* \"#utility.yul\":8731:8734   */\n      dup3\n        /* \"#utility.yul\":8728:8739   */\n      gt\n        /* \"#utility.yul\":8725:9171   */\n      iszero\n      tag_198\n      jumpi\n        /* \"#utility.yul\":8770:8808   */\n      tag_199\n        /* \"#utility.yul\":8802:8807   */\n      dup2\n        /* \"#utility.yul\":8770:8808   */\n      tag_80\n      jump\t// in\n    tag_199:\n        /* \"#utility.yul\":8854:8883   */\n      tag_200\n        /* \"#utility.yul\":8872:8882   */\n      dup5\n        /* \"#utility.yul\":8854:8883   */\n      tag_81\n      jump\t// in\n    tag_200:\n        /* \"#utility.yul\":8844:8852   */\n      dup2\n        /* \"#utility.yul\":8840:8884   */\n      add\n        /* \"#utility.yul\":9037:9039   */\n      0x20\n        /* \"#utility.yul\":9025:9035   */\n      dup6\n        /* \"#utility.yul\":9022:9040   */\n      lt\n        /* \"#utility.yul\":9019:9068   */\n      iszero\n      tag_201\n      jumpi\n        /* \"#utility.yul\":9058:9066   */\n      dup2\n        /* \"#utility.yul\":9043:9066   */\n      swap1\n      pop\n        /* \"#utility.yul\":9019:9068   */\n    tag_201:\n        /* \"#utility.yul\":9081:9161   */\n      tag_202\n        /* \"#utility.yul\":9137:9159   */\n      tag_203\n        /* \"#utility.yul\":9155:9158   */\n      dup6\n        /* \"#utility.yul\":9137:9159   */\n      tag_81\n      jump\t// in\n    tag_203:\n        /* \"#utility.yul\":9127:9135   */\n      dup4\n        /* \"#utility.yul\":9123:9160   */\n      add\n        /* \"#utility.yul\":9110:9121   */\n      dup3\n        /* \"#utility.yul\":9081:9161   */\n      tag_90\n      jump\t// in\n    tag_202:\n        /* \"#utility.yul\":8740:9171   */\n      pop\n      pop\n        /* \"#utility.yul\":8725:9171   */\n    tag_198:\n        /* \"#utility.yul\":8635:9178   */\n      pop\n      pop\n      pop\n      jump\t// out\n        /* \"#utility.yul\":9184:9301   */\n    tag_92:\n        /* \"#utility.yul\":9238:9246   */\n      0x00\n        /* \"#utility.yul\":9288:9293   */\n      dup3\n        /* \"#utility.yul\":9282:9286   */\n      dup3\n        /* \"#utility.yul\":9278:9294   */\n      shr\n        /* \"#utility.yul\":9257:9294   */\n      swap1\n      pop\n        /* \"#utility.yul\":9184:9301   */\n      swap3\n      swap2\n      pop\n      pop\n      jump\t// out\n        /* \"#utility.yul\":9307:9476   */\n    tag_93:\n        /* \"#utility.yul\":9351:9357   */\n      0x00\n        /* \"#utility.yul\":9384:9435   */\n      tag_206\n        /* \"#utility.yul\":9432:9433   */\n      0x00\n        /* \"#utility.yul\":9428:9434   */\n      not\n        /* \"#utility.yul\":9420:9425   */\n      dup5\n        /* \"#utility.yul\":9417:9418   */\n      0x08\n        /* \"#utility.yul\":9413:9426   */\n      mul\n        /* \"#utility.yul\":9384:9435   */\n      tag_92\n      jump\t// in\n    tag_206:\n        /* \"#utility.yul\":9380:9436   */\n      not\n        /* \"#utility.yul\":9465:9469   */\n      dup1\n        /* \"#utility.yul\":9459:9463   */\n      dup4\n        /* \"#utility.yul\":9455:9470   */\n      and\n        /* \"#utility.yul\":9445:9470   */\n      swap2\n      pop\n        /* \"#utility.yul\":9358:9476   */\n      pop\n        /* \"#utility.yul\":9307:9476   */\n      swap3\n      swap2\n      pop\n      pop\n      jump\t// out\n        /* \"#utility.yul\":9481:9776   */\n    tag_94:\n        /* \"#utility.yul\":9557:9561   */\n      0x00\n        /* \"#utility.yul\":9703:9732   */\n      tag_208\n        /* \"#utility.yul\":9728:9731   */\n      dup4\n        /* \"#utility.yul\":9722:9726   */\n      dup4\n        /* \"#utility.yul\":9703:9732   */\n      tag_93\n      jump\t// in\n    tag_208:\n        /* \"#utility.yul\":9695:9732   */\n      swap2\n      pop\n        /* \"#utility.yul\":9765:9768   */\n      dup3\n        /* \"#utility.yul\":9762:9763   */\n      0x02\n        /* \"#utility.yul\":9758:9769   */\n      mul\n        /* \"#utility.yul\":9752:9756   */\n      dup3\n        /* \"#utility.yul\":9749:9770   */\n      or\n        /* \"#utility.yul\":9741:9770   */\n      swap1\n      pop\n        /* \"#utility.yul\":9481:9776   */\n      swap3\n      swap2\n      pop\n      pop\n      jump\t// out\n        /* \"#utility.yul\":9781:11176   */\n    tag_54:\n        /* \"#utility.yul\":9898:9935   */\n      tag_210\n        /* \"#utility.yul\":9931:9934   */\n      dup3\n        /* \"#utility.yul\":9898:9935   */\n      tag_65\n      jump\t// in\n    tag_210:\n        /* \"#utility.yul\":10000:10018   */\n      0xffffffffffffffff\n        /* \"#utility.yul\":9992:9998   */\n      dup2\n        /* \"#utility.yul\":9989:10019   */\n      gt\n        /* \"#utility.yul\":9986:10042   */\n      iszero\n      tag_211\n      jumpi\n        /* \"#utility.yul\":10022:10040   */\n      tag_212\n      tag_72\n      jump\t// in\n    tag_212:\n        /* \"#utility.yul\":9986:10042   */\n    tag_211:\n        /* \"#utility.yul\":10066:10104   */\n      tag_213\n        /* \"#utility.yul\":10098:10102   */\n      dup3\n        /* \"#utility.yul\":10092:10103   */\n      sload\n        /* \"#utility.yul\":10066:10104   */\n      tag_39\n      jump\t// in\n    tag_213:\n        /* \"#utility.yul\":10151:10218   */\n      tag_214\n        /* \"#utility.yul\":10211:10217   */\n      dup3\n        /* \"#utility.yul\":10203:10209   */\n      dup3\n        /* \"#utility.yul\":10197:10201   */\n      dup6\n        /* \"#utility.yul\":10151:10218   */\n      tag_91\n      jump\t// in\n    tag_214:\n        /* \"#utility.yul\":10245:10246   */\n      0x00\n        /* \"#utility.yul\":10269:10273   */\n      0x20\n        /* \"#utility.yul\":10256:10273   */\n      swap1\n      pop\n        /* \"#utility.yul\":10301:10303   */\n      0x1f\n        /* \"#utility.yul\":10293:10299   */\n      dup4\n        /* \"#utility.yul\":10290:10304   */\n      gt\n        /* \"#utility.yul\":10318:10319   */\n      0x01\n        /* \"#utility.yul\":10313:10931   */\n      dup2\n      eq\n      tag_216\n      jumpi\n        /* \"#utility.yul\":10975:10976   */\n      0x00\n        /* \"#utility.yul\":10992:10998   */\n      dup5\n        /* \"#utility.yul\":10989:11066   */\n      iszero\n      tag_217\n      jumpi\n        /* \"#utility.yul\":11041:11050   */\n      dup3\n        /* \"#utility.yul\":11036:11039   */\n      dup8\n        /* \"#utility.yul\":11032:11051   */\n      add\n        /* \"#utility.yul\":11026:11052   */\n      mload\n        /* \"#utility.yul\":11017:11052   */\n      swap1\n      pop\n        /* \"#utility.yul\":10989:11066   */\n    tag_217:\n        /* \"#utility.yul\":11092:11159   */\n      tag_218\n        /* \"#utility.yul\":11152:11158   */\n      dup6\n        /* \"#utility.yul\":11145:11150   */\n      dup3\n        /* \"#utility.yul\":11092:11159   */\n      tag_94\n      jump\t// in\n    tag_218:\n        /* \"#utility.yul\":11086:11090   */\n      dup7\n        /* \"#utility.yul\":11079:11160   */\n      sstore\n        /* \"#utility.yul\":10948:11170   */\n      pop\n        /* \"#utility.yul\":10283:11170   */\n      jump(tag_215)\n        /* \"#utility.yul\":10313:10931   */\n    tag_216:\n        /* \"#utility.yul\":10365:10369   */\n      0x1f\n        /* \"#utility.yul\":10361:10370   */\n      not\n        /* \"#utility.yul\":10353:10359   */\n      dup5\n        /* \"#utility.yul\":10349:10371   */\n      and\n        /* \"#utility.yul\":10399:10436   */\n      tag_219\n        /* \"#utility.yul\":10431:10435   */\n      dup7\n        /* \"#utility.yul\":10399:10436   */\n      tag_80\n      jump\t// in\n    tag_219:\n        /* \"#utility.yul\":10458:10459   */\n      0x00\n        /* \"#utility.yul\":10472:10680   */\n    tag_220:\n        /* \"#utility.yul\":10486:10493   */\n      dup3\n        /* \"#utility.yul\":10483:10484   */\n      dup2\n        /* \"#utility.yul\":10480:10494   */\n      lt\n        /* \"#utility.yul\":10472:10680   */\n      iszero\n      tag_222\n      jumpi\n        /* \"#utility.yul\":10565:10574   */\n      dup5\n        /* \"#utility.yul\":10560:10563   */\n      dup10\n        /* \"#utility.yul\":10556:10575   */\n      add\n        /* \"#utility.yul\":10550:10576   */\n      mload\n        /* \"#utility.yul\":10542:10548   */\n      dup3\n        /* \"#utility.yul\":10535:10577   */\n      sstore\n        /* \"#utility.yul\":10616:10617   */\n      0x01\n        /* \"#utility.yul\":10608:10614   */\n      dup3\n        /* \"#utility.yul\":10604:10618   */\n      add\n        /* \"#utility.yul\":10594:10618   */\n      swap2\n      pop\n        /* \"#utility.yul\":10663:10665   */\n      0x20\n        /* \"#utility.yul\":10652:10661   */\n      dup6\n        /* \"#utility.yul\":10648:10666   */\n      add\n        /* \"#utility.yul\":10635:10666   */\n      swap5\n      pop\n        /* \"#utility.yul\":10509:10513   */\n      0x20\n        /* \"#utility.yul\":10506:10507   */\n      dup2\n        /* \"#utility.yul\":10502:10514   */\n      add\n        /* \"#utility.yul\":10497:10514   */\n      swap1\n      pop\n        /* \"#utility.yul\":10472:10680   */\n      jump(tag_220)\n    tag_222:\n        /* \"#utility.yul\":10708:10714   */\n      dup7\n        /* \"#utility.yul\":10699:10706   */\n      dup4\n        /* \"#utility.yul\":10696:10715   */\n      lt\n        /* \"#utility.yul\":10693:10872   */\n      iszero\n      tag_223\n      jumpi\n        /* \"#utility.yul\":10766:10775   */\n      dup5\n        /* \"#utility.yul\":10761:10764   */\n      dup10\n        /* \"#utility.yul\":10757:10776   */\n      add\n        /* \"#utility.yul\":10751:10777   */\n      mload\n        /* \"#utility.yul\":10809:10857   */\n      tag_224\n        /* \"#utility.yul\":10851:10855   */\n      0x1f\n        /* \"#utility.yul\":10843:10849   */\n      dup10\n        /* \"#utility.yul\":10839:10856   */\n      and\n        /* \"#utility.yul\":10828:10837   */\n      dup3\n        /* \"#utility.yul\":10809:10857   */\n      tag_93\n      jump\t// in\n    tag_224:\n        /* \"#utility.yul\":10801:10807   */\n      dup4\n        /* \"#utility.yul\":10794:10858   */\n      sstore\n        /* \"#utility.yul\":10716:10872   */\n      pop\n        /* \"#utility.yul\":10693:10872   */\n    tag_223:\n        /* \"#utility.yul\":10918:10919   */\n      0x01\n        /* \"#utility.yul\":10914:10915   */\n      0x02\n        /* \"#utility.yul\":10906:10912   */\n      dup9\n        /* \"#utility.yul\":10902:10916   */\n      mul\n        /* \"#utility.yul\":10898:10920   */\n      add\n        /* \"#utility.yul\":10892:10896   */\n      dup9\n        /* \"#utility.yul\":10885:10921   */\n      sstore\n        /* \"#utility.yul\":10320:10931   */\n      pop\n      pop\n      pop\n        /* \"#utility.yul\":10283:11170   */\n    tag_215:\n      pop\n        /* \"#utility.yul\":9873:11176   */\n      pop\n      pop\n      pop\n        /* \"#utility.yul\":9781:11176   */\n      pop\n      pop\n      jump\t// out\n        /* \"#utility.yul\":11182:11330   */\n    tag_95:\n        /* \"#utility.yul\":11284:11295   */\n      0x00\n        /* \"#utility.yul\":11321:11324   */\n      dup2\n        /* \"#utility.yul\":11306:11324   */\n      swap1\n      pop\n        /* \"#utility.yul\":11182:11330   */\n      swap3\n      swap2\n      pop\n      pop\n      jump\t// out\n        /* \"#utility.yul\":11336:11726   */\n    tag_96:\n        /* \"#utility.yul\":11442:11445   */\n      0x00\n        /* \"#utility.yul\":11470:11509   */\n      tag_227\n        /* \"#utility.yul\":11503:11508   */\n      dup3\n        /* \"#utility.yul\":11470:11509   */\n      tag_65\n      jump\t// in\n    tag_227:\n        /* \"#utility.yul\":11525:11614   */\n      tag_228\n        /* \"#utility.yul\":11607:11613   */\n      dup2\n        /* \"#utility.yul\":11602:11605   */\n      dup6\n        /* \"#utility.yul\":11525:11614   */\n      tag_95\n      jump\t// in\n    tag_228:\n        /* \"#utility.yul\":11518:11614   */\n      swap4\n      pop\n        /* \"#utility.yul\":11623:11688   */\n      tag_229\n        /* \"#utility.yul\":11681:11687   */\n      dup2\n        /* \"#utility.yul\":11676:11679   */\n      dup6\n        /* \"#utility.yul\":11669:11673   */\n      0x20\n        /* \"#utility.yul\":11662:11667   */\n      dup7\n        /* \"#utility.yul\":11658:11674   */\n      add\n        /* \"#utility.yul\":11623:11688   */\n      tag_67\n      jump\t// in\n    tag_229:\n        /* \"#utility.yul\":11713:11719   */\n      dup1\n        /* \"#utility.yul\":11708:11711   */\n      dup5\n        /* \"#utility.yul\":11704:11720   */\n      add\n        /* \"#utility.yul\":11697:11720   */\n      swap2\n      pop\n        /* \"#utility.yul\":11446:11726   */\n      pop\n        /* \"#utility.yul\":11336:11726   */\n      swap3\n      swap2\n      pop\n      pop\n      jump\t// out\n        /* \"#utility.yul\":11732:12007   */\n    tag_56:\n        /* \"#utility.yul\":11864:11867   */\n      0x00\n        /* \"#utility.yul\":11886:11981   */\n      tag_231\n        /* \"#utility.yul\":11977:11980   */\n      dup3\n        /* \"#utility.yul\":11968:11974   */\n      dup5\n        /* \"#utility.yul\":11886:11981   */\n      tag_96\n      jump\t// in\n    tag_231:\n        /* \"#utility.yul\":11879:11981   */\n      swap2\n      pop\n        /* \"#utility.yul\":11998:12001   */\n      dup2\n        /* \"#utility.yul\":11991:12001   */\n      swap1\n      pop\n        /* \"#utility.yul\":11732:12007   */\n      swap3\n      swap2\n      pop\n      pop\n      jump\t// out\n\n    auxdata: 0xa2646970667358221220c3cbee7b0026ecdbebb3837635889517eba1c8fae368842bd62140cfaf43321f64736f6c63430008190033\n}\n",
				"bytecode": {
					"linkReferences": {},
					"object": "6080604052348015600e575f80fd5b506109f28061001c5f395ff3fe608060405234801561000f575f80fd5b5060043610610060575f3560e01c80632e5effac146100645780632e64cec114610095578063397a01f9146100b35780635d19f424146100e35780636057361d146101135780636f760f411461012f575b5f80fd5b61007e600480360381019061007991906103c5565b61014b565b60405161008c92919061046f565b60405180910390f35b61009d610200565b6040516100aa919061049d565b60405180910390f35b6100cd60048036038101906100c891906103c5565b610208565b6040516100da91906104b6565b60405180910390f35b6100fd60048036038101906100f89190610602565b6102a3565b60405161010a919061049d565b60405180910390f35b61012d600480360381019061012891906103c5565b6102d0565b005b61014960048036038101906101449190610649565b6102d9565b005b6001818154811061015a575f80fd5b905f5260205f2090600202015f91509050805f01549080600101805461017f906106d0565b80601f01602080910402602001604051908101604052809291908181526020018280546101ab906106d0565b80156101f65780601f106101cd576101008083540402835291602001916101f6565b820191905f5260205f20905b8154815290600101906020018083116101d957829003601f168201915b5050505050905082565b5f8054905090565b6003602052805f5260405f205f915090508054610224906106d0565b80601f0160208091040260200160405190810160405280929190818152602001828054610250906106d0565b801561029b5780601f106102725761010080835404028352916020019161029b565b820191905f5260205f20905b81548152906001019060200180831161027e57829003601f168201915b505050505081565b6002818051602081018201805184825260208301602085012081835280955050505050505f915090505481565b805f8190555050565b5f6040518060400160405280838152602001848152509050600181908060018154018082558091505060019003905f5260205f2090600202015f909190919091505f820151815f01556020820151816001019081610337919061089d565b5050508160028460405161034b91906109a6565b9081526020016040518091039020819055508260035f8481526020019081526020015f20908161037b919061089d565b50505050565b5f604051905090565b5f80fd5b5f80fd5b5f819050919050565b6103a481610392565b81146103ae575f80fd5b50565b5f813590506103bf8161039b565b92915050565b5f602082840312156103da576103d961038a565b5b5f6103e7848285016103b1565b91505092915050565b6103f981610392565b82525050565b5f81519050919050565b5f82825260208201905092915050565b8281835e5f83830152505050565b5f601f19601f8301169050919050565b5f610441826103ff565b61044b8185610409565b935061045b818560208601610419565b61046481610427565b840191505092915050565b5f6040820190506104825f8301856103f0565b81810360208301526104948184610437565b90509392505050565b5f6020820190506104b05f8301846103f0565b92915050565b5f6020820190508181035f8301526104ce8184610437565b905092915050565b5f80fd5b5f80fd5b7f4e487b71000000000000000000000000000000000000000000000000000000005f52604160045260245ffd5b61051482610427565b810181811067ffffffffffffffff82111715610533576105326104de565b5b80604052505050565b5f610545610381565b9050610551828261050b565b919050565b5f67ffffffffffffffff8211156105705761056f6104de565b5b61057982610427565b9050602081019050919050565b828183375f83830152505050565b5f6105a66105a184610556565b61053c565b9050828152602081018484840111156105c2576105c16104da565b5b6105cd848285610586565b509392505050565b5f82601f8301126105e9576105e86104d6565b5b81356105f9848260208601610594565b91505092915050565b5f602082840312156106175761061661038a565b5b5f82013567ffffffffffffffff8111156106345761063361038e565b5b610640848285016105d5565b91505092915050565b5f806040838503121561065f5761065e61038a565b5b5f83013567ffffffffffffffff81111561067c5761067b61038e565b5b610688858286016105d5565b9250506020610699858286016103b1565b9150509250929050565b7f4e487b71000000000000000000000000000000000000000000000000000000005f52602260045260245ffd5b5f60028204905060018216806106e757607f821691505b6020821081036106fa576106f96106a3565b5b50919050565b5f819050815f5260205f209050919050565b5f6020601f8301049050919050565b5f82821b905092915050565b5f6008830261075c7fffffffffffffffffffffffffffffffffffffffffffffffffffffffffffffffff82610721565b6107668683610721565b95508019841693508086168417925050509392505050565b5f819050919050565b5f6107a161079c61079784610392565b61077e565b610392565b9050919050565b5f819050919050565b6107ba83610787565b6107ce6107c6826107a8565b84845461072d565b825550505050565b5f90565b6107e26107d6565b6107ed8184846107b1565b505050565b5b81811015610810576108055f826107da565b6001810190506107f3565b5050565b601f8211156108555761082681610700565b61082f84610712565b8101602085101561083e578190505b61085261084a85610712565b8301826107f2565b50505b505050565b5f82821c905092915050565b5f6108755f198460080261085a565b1980831691505092915050565b5f61088d8383610866565b9150826002028217905092915050565b6108a6826103ff565b67ffffffffffffffff8111156108bf576108be6104de565b5b6108c982546106d0565b6108d4828285610814565b5f60209050601f831160018114610905575f84156108f3578287015190505b6108fd8582610882565b865550610964565b601f19841661091386610700565b5f5b8281101561093a57848901518255600182019150602085019450602081019050610915565b868310156109575784890151610953601f891682610866565b8355505b6001600288020188555050505b505050505050565b5f81905092915050565b5f610980826103ff565b61098a818561096c565b935061099a818560208601610419565b80840191505092915050565b5f6109b18284610976565b91508190509291505056fea2646970667358221220c3cbee7b0026ecdbebb3837635889517eba1c8fae368842bd62140cfaf43321f64736f6c63430008190033",
					"opcodes": "PUSH1 0x80 PUSH1 0x40 MSTORE CALLVALUE DUP1 ISZERO PUSH1 0xE JUMPI PUSH0 DUP1 REVERT JUMPDEST POP PUSH2 0x9F2 DUP1 PUSH2 0x1C PUSH0 CODECOPY PUSH0 RETURN INVALID PUSH1 0x80 PUSH1 0x40 MSTORE CALLVALUE DUP1 ISZERO PUSH2 0xF JUMPI PUSH0 DUP1 REVERT JUMPDEST POP PUSH1 0x4 CALLDATASIZE LT PUSH2 0x60 JUMPI PUSH0 CALLDATALOAD PUSH1 0xE0 SHR DUP1 PUSH4 0x2E5EFFAC EQ PUSH2 0x64 JUMPI DUP1 PUSH4 0x2E64CEC1 EQ PUSH2 0x95 JUMPI DUP1 PUSH4 0x397A01F9 EQ PUSH2 0xB3 JUMPI DUP1 PUSH4 0x5D19F424 EQ PUSH2 0xE3 JUMPI DUP1 PUSH4 0x6057361D EQ PUSH2 0x113 JUMPI DUP1 PUSH4 0x6F760F41 EQ PUSH2 0x12F JUMPI JUMPDEST PUSH0 DUP1 REVERT JUMPDEST PUSH2 0x7E PUSH1 0x4 DUP1 CALLDATASIZE SUB DUP2 ADD SWAP1 PUSH2 0x79 SWAP2 SWAP1 PUSH2 0x3C5 JUMP JUMPDEST PUSH2 0x14B JUMP JUMPDEST PUSH1 0x40 MLOAD PUSH2 0x8C SWAP3 SWAP2 SWAP1 PUSH2 0x46F JUMP JUMPDEST PUSH1 0x40 MLOAD DUP1 SWAP2 SUB SWAP1 RETURN JUMPDEST PUSH2 0x9D PUSH2 0x200 JUMP JUMPDEST PUSH1 0x40 MLOAD PUSH2 0xAA SWAP2 SWAP1 PUSH2 0x49D JUMP JUMPDEST PUSH1 0x40 MLOAD DUP1 SWAP2 SUB SWAP1 RETURN JUMPDEST PUSH2 0xCD PUSH1 0x4 DUP1 CALLDATASIZE SUB DUP2 ADD SWAP1 PUSH2 0xC8 SWAP2 SWAP1 PUSH2 0x3C5 JUMP JUMPDEST PUSH2 0x208 JUMP JUMPDEST PUSH1 0x40 MLOAD PUSH2 0xDA SWAP2 SWAP1 PUSH2 0x4B6 JUMP JUMPDEST PUSH1 0x40 MLOAD DUP1 SWAP2 SUB SWAP1 RETURN JUMPDEST PUSH2 0xFD PUSH1 0x4 DUP1 CALLDATASIZE SUB DUP2 ADD SWAP1 PUSH2 0xF8 SWAP2 SWAP1 PUSH2 0x602 JUMP JUMPDEST PUSH2 0x2A3 JUMP JUMPDEST PUSH1 0x40 MLOAD PUSH2 0x10A SWAP2 SWAP1 PUSH2 0x49D JUMP JUMPDEST PUSH1 0x40 MLOAD DUP1 SWAP2 SUB SWAP1 RETURN JUMPDEST PUSH2 0x12D PUSH1 0x4 DUP1 CALLDATASIZE SUB DUP2 ADD SWAP1 PUSH2 0x128 SWAP2 SWAP1 PUSH2 0x3C5 JUMP JUMPDEST PUSH2 0x2D0 JUMP JUMPDEST STOP JUMPDEST PUSH2 0x149 PUSH1 0x4 DUP1 CALLDATASIZE SUB DUP2 ADD SWAP1 PUSH2 0x144 SWAP2 SWAP1 PUSH2 0x649 JUMP JUMPDEST PUSH2 0x2D9 JUMP JUMPDEST STOP JUMPDEST PUSH1 0x1 DUP2 DUP2 SLOAD DUP2 LT PUSH2 0x15A JUMPI PUSH0 DUP1 REVERT JUMPDEST SWAP1 PUSH0 MSTORE PUSH1 0x20 PUSH0 KECCAK256 SWAP1 PUSH1 0x2 MUL ADD PUSH0 SWAP2 POP SWAP1 POP DUP1 PUSH0 ADD SLOAD SWAP1 DUP1 PUSH1 0x1 ADD DUP1 SLOAD PUSH2 0x17F SWAP1 PUSH2 0x6D0 JUMP JUMPDEST DUP1 PUSH1 0x1F ADD PUSH1 0x20 DUP1 SWAP2 DIV MUL PUSH1 0x20 ADD PUSH1 0x40 MLOAD SWAP1 DUP2 ADD PUSH1 0x40 MSTORE DUP1 SWAP3 SWAP2 SWAP1 DUP2 DUP2 MSTORE PUSH1 0x20 ADD DUP3 DUP1 SLOAD PUSH2 0x1AB SWAP1 PUSH2 0x6D0 JUMP JUMPDEST DUP1 ISZERO PUSH2 0x1F6 JUMPI DUP1 PUSH1 0x1F LT PUSH2 0x1CD JUMPI PUSH2 0x100 DUP1 DUP4 SLOAD DIV MUL DUP4 MSTORE SWAP2 PUSH1 0x20 ADD SWAP2 PUSH2 0x1F6 JUMP JUMPDEST DUP3 ADD SWAP2 SWAP1 PUSH0 MSTORE PUSH1 0x20 PUSH0 KECCAK256 SWAP1 JUMPDEST DUP2 SLOAD DUP2 MSTORE SWAP1 PUSH1 0x1 ADD SWAP1 PUSH1 0x20 ADD DUP1 DUP4 GT PUSH2 0x1D9 JUMPI DUP3 SWAP1 SUB PUSH1 0x1F AND DUP3 ADD SWAP2 JUMPDEST POP POP POP POP POP SWAP1 POP DUP3 JUMP JUMPDEST PUSH0 DUP1 SLOAD SWAP1 POP SWAP1 JUMP JUMPDEST PUSH1 0x3 PUSH1 0x20 MSTORE DUP1 PUSH0 MSTORE PUSH1 0x40 PUSH0 KECCAK256 PUSH0 SWAP2 POP SWAP1 POP DUP1 SLOAD PUSH2 0x224 SWAP1 PUSH2 0x6D0 JUMP JUMPDEST DUP1 PUSH1 0x1F ADD PUSH1 0x20 DUP1 SWAP2 DIV MUL PUSH1 0x20 ADD PUSH1 0x40 MLOAD SWAP1 DUP2 ADD PUSH1 0x40 MSTORE DUP1 SWAP3 SWAP2 SWAP1 DUP2 DUP2 MSTORE PUSH1 0x20 ADD DUP3 DUP1 SLOAD PUSH2 0x250 SWAP1 PUSH2 0x6D0 JUMP JUMPDEST DUP1 ISZERO PUSH2 0x29B JUMPI DUP1 PUSH1 0x1F LT PUSH2 0x272 JUMPI PUSH2 0x100 DUP1 DUP4 SLOAD DIV MUL DUP4 MSTORE SWAP2 PUSH1 0x20 ADD SWAP2 PUSH2 0x29B JUMP JUMPDEST DUP3 ADD SWAP2 SWAP1 PUSH0 MSTORE PUSH1 0x20 PUSH0 KECCAK256 SWAP1 JUMPDEST DUP2 SLOAD DUP2 MSTORE SWAP1 PUSH1 0x1 ADD SWAP1 PUSH1 0x20 ADD DUP1 DUP4 GT PUSH2 0x27E JUMPI DUP3 SWAP1 SUB PUSH1 0x1F AND DUP3 ADD SWAP2 JUMPDEST POP POP POP POP POP DUP2 JUMP JUMPDEST PUSH1 0x2 DUP2 DUP1 MLOAD PUSH1 0x20 DUP2 ADD DUP3 ADD DUP1 MLOAD DUP5 DUP3 MSTORE PUSH1 0x20 DUP4 ADD PUSH1 0x20 DUP6 ADD KECCAK256 DUP2 DUP4 MSTORE DUP1 SWAP6 POP POP POP POP POP POP PUSH0 SWAP2 POP SWAP1 POP SLOAD DUP2 JUMP JUMPDEST DUP1 PUSH0 DUP2 SWAP1 SSTORE POP POP JUMP JUMPDEST PUSH0 PUSH1 0x40 MLOAD DUP1 PUSH1 0x40 ADD PUSH1 0x40 MSTORE DUP1 DUP4 DUP2 MSTORE PUSH1 0x20 ADD DUP5 DUP2 MSTORE POP SWAP1 POP PUSH1 0x1 DUP2 SWAP1 DUP1 PUSH1 0x1 DUP2 SLOAD ADD DUP1 DUP3 SSTORE DUP1 SWAP2 POP POP PUSH1 0x1 SWAP1 SUB SWAP1 PUSH0 MSTORE PUSH1 0x20 PUSH0 KECCAK256 SWAP1 PUSH1 0x2 MUL ADD PUSH0 SWAP1 SWAP2 SWAP1 SWAP2 SWAP1 SWAP2 POP PUSH0 DUP3 ADD MLOAD DUP2 PUSH0 ADD SSTORE PUSH1 0x20 DUP3 ADD MLOAD DUP2 PUSH1 0x1 ADD SWAP1 DUP2 PUSH2 0x337 SWAP2 SWAP1 PUSH2 0x89D JUMP JUMPDEST POP POP POP DUP2 PUSH1 0x2 DUP5 PUSH1 0x40 MLOAD PUSH2 0x34B SWAP2 SWAP1 PUSH2 0x9A6 JUMP JUMPDEST SWAP1 DUP2 MSTORE PUSH1 0x20 ADD PUSH1 0x40 MLOAD DUP1 SWAP2 SUB SWAP1 KECCAK256 DUP2 SWAP1 SSTORE POP DUP3 PUSH1 0x3 PUSH0 DUP5 DUP2 MSTORE PUSH1 0x20 ADD SWAP1 DUP2 MSTORE PUSH1 0x20 ADD PUSH0 KECCAK256 SWAP1 DUP2 PUSH2 0x37B SWAP2 SWAP1 PUSH2 0x89D JUMP JUMPDEST POP POP POP POP JUMP JUMPDEST PUSH0 PUSH1 0x40 MLOAD SWAP1 POP SWAP1 JUMP JUMPDEST PUSH0 DUP1 REVERT JUMPDEST PUSH0 DUP1 REVERT JUMPDEST PUSH0 DUP2 SWAP1 POP SWAP2 SWAP1 POP JUMP JUMPDEST PUSH2 0x3A4 DUP2 PUSH2 0x392 JUMP JUMPDEST DUP2 EQ PUSH2 0x3AE JUMPI PUSH0 DUP1 REVERT JUMPDEST POP JUMP JUMPDEST PUSH0 DUP2 CALLDATALOAD SWAP1 POP PUSH2 0x3BF DUP2 PUSH2 0x39B JUMP JUMPDEST SWAP3 SWAP2 POP POP JUMP JUMPDEST PUSH0 PUSH1 0x20 DUP3 DUP5 SUB SLT ISZERO PUSH2 0x3DA JUMPI PUSH2 0x3D9 PUSH2 0x38A JUMP JUMPDEST JUMPDEST PUSH0 PUSH2 0x3E7 DUP5 DUP3 DUP6 ADD PUSH2 0x3B1 JUMP JUMPDEST SWAP2 POP POP SWAP3 SWAP2 POP POP JUMP JUMPDEST PUSH2 0x3F9 DUP2 PUSH2 0x392 JUMP JUMPDEST DUP3 MSTORE POP POP JUMP JUMPDEST PUSH0 DUP2 MLOAD SWAP1 POP SWAP2 SWAP1 POP JUMP JUMPDEST PUSH0 DUP3 DUP3 MSTORE PUSH1 0x20 DUP3 ADD SWAP1 POP SWAP3 SWAP2 POP POP JUMP JUMPDEST DUP3 DUP2 DUP4 MCOPY PUSH0 DUP4 DUP4 ADD MSTORE POP POP POP JUMP JUMPDEST PUSH0 PUSH1 0x1F NOT PUSH1 0x1F DUP4 ADD AND SWAP1 POP SWAP2 SWAP1 POP JUMP JUMPDEST PUSH0 PUSH2 0x441 DUP3 PUSH2 0x3FF JUMP JUMPDEST PUSH2 0x44B DUP2 DUP6 PUSH2 0x409 JUMP JUMPDEST SWAP4 POP PUSH2 0x45B DUP2 DUP6 PUSH1 0x20 DUP7 ADD PUSH2 0x419 JUMP JUMPDEST PUSH2 0x464 DUP2 PUSH2 0x427 JUMP JUMPDEST DUP5 ADD SWAP2 POP POP SWAP3 SWAP2 POP POP JUMP JUMPDEST PUSH0 PUSH1 0x40 DUP3 ADD SWAP1 POP PUSH2 0x482 PUSH0 DUP4 ADD DUP6 PUSH2 0x3F0 JUMP JUMPDEST DUP2 DUP2 SUB PUSH1 0x20 DUP4 ADD MSTORE PUSH2 0x494 DUP2 DUP5 PUSH2 0x437 JUMP JUMPDEST SWAP1 POP SWAP4 SWAP3 POP POP POP JUMP JUMPDEST PUSH0 PUSH1 0x20 DUP3 ADD SWAP1 POP PUSH2 0x4B0 PUSH0 DUP4 ADD DUP5 PUSH2 0x3F0 JUMP JUMPDEST SWAP3 SWAP2 POP POP JUMP JUMPDEST PUSH0 PUSH1 0x20 DUP3 ADD SWAP1 POP DUP2 DUP2 SUB PUSH0 DUP4 ADD MSTORE PUSH2 0x4CE DUP2 DUP5 PUSH2 0x437 JUMP JUMPDEST SWAP1 POP SWAP3 SWAP2 POP POP JUMP JUMPDEST PUSH0 DUP1 REVERT JUMPDEST PUSH0 DUP1 REVERT JUMPDEST PUSH32 0x4E487B7100000000000000000000000000000000000000000000000000000000 PUSH0 MSTORE PUSH1 0x41 PUSH1 0x4 MSTORE PUSH1 0x24 PUSH0 REVERT JUMPDEST PUSH2 0x514 DUP3 PUSH2 0x427 JUMP JUMPDEST DUP2 ADD DUP2 DUP2 LT PUSH8 0xFFFFFFFFFFFFFFFF DUP3 GT OR ISZERO PUSH2 0x533 JUMPI PUSH2 0x532 PUSH2 0x4DE JUMP JUMPDEST JUMPDEST DUP1 PUSH1 0x40 MSTORE POP POP POP JUMP JUMPDEST PUSH0 PUSH2 0x545 PUSH2 0x381 JUMP JUMPDEST SWAP1 POP PUSH2 0x551 DUP3 DUP3 PUSH2 0x50B JUMP JUMPDEST SWAP2 SWAP1 POP JUMP JUMPDEST PUSH0 PUSH8 0xFFFFFFFFFFFFFFFF DUP3 GT ISZERO PUSH2 0x570 JUMPI PUSH2 0x56F PUSH2 0x4DE JUMP JUMPDEST JUMPDEST PUSH2 0x579 DUP3 PUSH2 0x427 JUMP JUMPDEST SWAP1 POP PUSH1 0x20 DUP2 ADD SWAP1 POP SWAP2 SWAP1 POP JUMP JUMPDEST DUP3 DUP2 DUP4 CALLDATACOPY PUSH0 DUP4 DUP4 ADD MSTORE POP POP POP JUMP JUMPDEST PUSH0 PUSH2 0x5A6 PUSH2 0x5A1 DUP5 PUSH2 0x556 JUMP JUMPDEST PUSH2 0x53C JUMP JUMPDEST SWAP1 POP DUP3 DUP2 MSTORE PUSH1 0x20 DUP2 ADD DUP5 DUP5 DUP5 ADD GT ISZERO PUSH2 0x5C2 JUMPI PUSH2 0x5C1 PUSH2 0x4DA JUMP JUMPDEST JUMPDEST PUSH2 0x5CD DUP5 DUP3 DUP6 PUSH2 0x586 JUMP JUMPDEST POP SWAP4 SWAP3 POP POP POP JUMP JUMPDEST PUSH0 DUP3 PUSH1 0x1F DUP4 ADD SLT PUSH2 0x5E9 JUMPI PUSH2 0x5E8 PUSH2 0x4D6 JUMP JUMPDEST JUMPDEST DUP2 CALLDATALOAD PUSH2 0x5F9 DUP5 DUP3 PUSH1 0x20 DUP7 ADD PUSH2 0x594 JUMP JUMPDEST SWAP2 POP POP SWAP3 SWAP2 POP POP JUMP JUMPDEST PUSH0 PUSH1 0x20 DUP3 DUP5 SUB SLT ISZERO PUSH2 0x617 JUMPI PUSH2 0x616 PUSH2 0x38A JUMP JUMPDEST JUMPDEST PUSH0 DUP3 ADD CALLDATALOAD PUSH8 0xFFFFFFFFFFFFFFFF DUP2 GT ISZERO PUSH2 0x634 JUMPI PUSH2 0x633 PUSH2 0x38E JUMP JUMPDEST JUMPDEST PUSH2 0x640 DUP5 DUP3 DUP6 ADD PUSH2 0x5D5 JUMP JUMPDEST SWAP2 POP POP SWAP3 SWAP2 POP POP JUMP JUMPDEST PUSH0 DUP1 PUSH1 0x40 DUP4 DUP6 SUB SLT ISZERO PUSH2 0x65F JUMPI PUSH2 0x65E PUSH2 0x38A JUMP JUMPDEST JUMPDEST PUSH0 DUP4 ADD CALLDATALOAD PUSH8 0xFFFFFFFFFFFFFFFF DUP2 GT ISZERO PUSH2 0x67C JUMPI PUSH2 0x67B PUSH2 0x38E JUMP JUMPDEST JUMPDEST PUSH2 0x688 DUP6 DUP3 DUP7 ADD PUSH2 0x5D5 JUMP JUMPDEST SWAP3 POP POP PUSH1 0x20 PUSH2 0x699 DUP6 DUP3 DUP7 ADD PUSH2 0x3B1 JUMP JUMPDEST SWAP2 POP POP SWAP3 POP SWAP3 SWAP1 POP JUMP JUMPDEST PUSH32 0x4E487B7100000000000000000000000000000000000000000000000000000000 PUSH0 MSTORE PUSH1 0x22 PUSH1 0x4 MSTORE PUSH1 0x24 PUSH0 REVERT JUMPDEST PUSH0 PUSH1 0x2 DUP3 DIV SWAP1 POP PUSH1 0x1 DUP3 AND DUP1 PUSH2 0x6E7 JUMPI PUSH1 0x7F DUP3 AND SWAP2 POP JUMPDEST PUSH1 0x20 DUP3 LT DUP2 SUB PUSH2 0x6FA JUMPI PUSH2 0x6F9 PUSH2 0x6A3 JUMP JUMPDEST JUMPDEST POP SWAP2 SWAP1 POP JUMP JUMPDEST PUSH0 DUP2 SWAP1 POP DUP2 PUSH0 MSTORE PUSH1 0x20 PUSH0 KECCAK256 SWAP1 POP SWAP2 SWAP1 POP JUMP JUMPDEST PUSH0 PUSH1 0x20 PUSH1 0x1F DUP4 ADD DIV SWAP1 POP SWAP2 SWAP1 POP JUMP JUMPDEST PUSH0 DUP3 DUP3 SHL SWAP1 POP SWAP3 SWAP2 POP POP JUMP JUMPDEST PUSH0 PUSH1 0x8 DUP4 MUL PUSH2 0x75C PUSH32 0xFFFFFFFFFFFFFFFFFFFFFFFFFFFFFFFFFFFFFFFFFFFFFFFFFFFFFFFFFFFFFFFF DUP3 PUSH2 0x721 JUMP JUMPDEST PUSH2 0x766 DUP7 DUP4 PUSH2 0x721 JUMP JUMPDEST SWAP6 POP DUP1 NOT DUP5 AND SWAP4 POP DUP1 DUP7 AND DUP5 OR SWAP3 POP POP POP SWAP4 SWAP3 POP POP POP JUMP JUMPDEST PUSH0 DUP2 SWAP1 POP SWAP2 SWAP1 POP JUMP JUMPDEST PUSH0 PUSH2 0x7A1 PUSH2 0x79C PUSH2 0x797 DUP5 PUSH2 0x392 JUMP JUMPDEST PUSH2 0x77E JUMP JUMPDEST PUSH2 0x392 JUMP JUMPDEST SWAP1 POP SWAP2 SWAP1 POP JUMP JUMPDEST PUSH0 DUP2 SWAP1 POP SWAP2 SWAP1 POP JUMP JUMPDEST PUSH2 0x7BA DUP4 PUSH2 0x787 JUMP JUMPDEST PUSH2 0x7CE PUSH2 0x7C6 DUP3 PUSH2 0x7A8 JUMP JUMPDEST DUP5 DUP5 SLOAD PUSH2 0x72D JUMP JUMPDEST DUP3 SSTORE POP POP POP POP JUMP JUMPDEST PUSH0 SWAP1 JUMP JUMPDEST PUSH2 0x7E2 PUSH2 0x7D6 JUMP JUMPDEST PUSH2 0x7ED DUP2 DUP5 DUP5 PUSH2 0x7B1 JUMP JUMPDEST POP POP POP JUMP JUMPDEST JUMPDEST DUP2 DUP2 LT ISZERO PUSH2 0x810 JUMPI PUSH2 0x805 PUSH0 DUP3 PUSH2 0x7DA JUMP JUMPDEST PUSH1 0x1 DUP2 ADD SWAP1 POP PUSH2 0x7F3 JUMP JUMPDEST POP POP JUMP JUMPDEST PUSH1 0x1F DUP3 GT ISZERO PUSH2 0x855 JUMPI PUSH2 0x826 DUP2 PUSH2 0x700 JUMP JUMPDEST PUSH2 0x82F DUP5 PUSH2 0x712 JUMP JUMPDEST DUP2 ADD PUSH1 0x20 DUP6 LT ISZERO PUSH2 0x83E JUMPI DUP2 SWAP1 POP JUMPDEST PUSH2 0x852 PUSH2 0x84A DUP6 PUSH2 0x712 JUMP JUMPDEST DUP4 ADD DUP3 PUSH2 0x7F2 JUMP JUMPDEST POP POP JUMPDEST POP POP POP JUMP JUMPDEST PUSH0 DUP3 DUP3 SHR SWAP1 POP SWAP3 SWAP2 POP POP JUMP JUMPDEST PUSH0 PUSH2 0x875 PUSH0 NOT DUP5 PUSH1 0x8 MUL PUSH2 0x85A JUMP JUMPDEST NOT DUP1 DUP4 AND SWAP2 POP POP SWAP3 SWAP2 POP POP JUMP JUMPDEST PUSH0 PUSH2 0x88D DUP4 DUP4 PUSH2 0x866 JUMP JUMPDEST SWAP2 POP DUP3 PUSH1 0x2 MUL DUP3 OR SWAP1 POP SWAP3 SWAP2 POP POP JUMP JUMPDEST PUSH2 0x8A6 DUP3 PUSH2 0x3FF JUMP JUMPDEST PUSH8 0xFFFFFFFFFFFFFFFF DUP2 GT ISZERO PUSH2 0x8BF JUMPI PUSH2 0x8BE PUSH2 0x4DE JUMP JUMPDEST JUMPDEST PUSH2 0x8C9 DUP3 SLOAD PUSH2 0x6D0 JUMP JUMPDEST PUSH2 0x8D4 DUP3 DUP3 DUP6 PUSH2 0x814 JUMP JUMPDEST PUSH0 PUSH1 0x20 SWAP1 POP PUSH1 0x1F DUP4 GT PUSH1 0x1 DUP2 EQ PUSH2 0x905 JUMPI PUSH0 DUP5 ISZERO PUSH2 0x8F3 JUMPI DUP3 DUP8 ADD MLOAD SWAP1 POP JUMPDEST PUSH2 0x8FD DUP6 DUP3 PUSH2 0x882 JUMP JUMPDEST DUP7 SSTORE POP PUSH2 0x964 JUMP JUMPDEST PUSH1 0x1F NOT DUP5 AND PUSH2 0x913 DUP7 PUSH2 0x700 JUMP JUMPDEST PUSH0 JUMPDEST DUP3 DUP2 LT ISZERO PUSH2 0x93A JUMPI DUP5 DUP10 ADD MLOAD DUP3 SSTORE PUSH1 0x1 DUP3 ADD SWAP2 POP PUSH1 0x20 DUP6 ADD SWAP5 POP PUSH1 0x20 DUP2 ADD SWAP1 POP PUSH2 0x915 JUMP JUMPDEST DUP7 DUP4 LT ISZERO PUSH2 0x957 JUMPI DUP5 DUP10 ADD MLOAD PUSH2 0x953 PUSH1 0x1F DUP10 AND DUP3 PUSH2 0x866 JUMP JUMPDEST DUP4 SSTORE POP JUMPDEST PUSH1 0x1 PUSH1 0x2 DUP9 MUL ADD DUP9 SSTORE POP POP POP JUMPDEST POP POP POP POP POP POP JUMP JUMPDEST PUSH0 DUP2 SWAP1 POP SWAP3 SWAP2 POP POP JUMP JUMPDEST PUSH0 PUSH2 0x980 DUP3 PUSH2 0x3FF JUMP JUMPDEST PUSH2 0x98A DUP2 DUP6 PUSH2 0x96C JUMP JUMPDEST SWAP4 POP PUSH2 0x99A DUP2 DUP6 PUSH1 0x20 DUP7 ADD PUSH2 0x419 JUMP JUMPDEST DUP1 DUP5 ADD SWAP2 POP POP SWAP3 SWAP2 POP POP JUMP JUMPDEST PUSH0 PUSH2 0x9B1 DUP3 DUP5 PUSH2 0x976 JUMP JUMPDEST SWAP2 POP DUP2 SWAP1 POP SWAP3 SWAP2 POP POP JUMP INVALID LOG2 PUSH5 0x6970667358 0x22 SLT KECCAK256 0xC3 0xCB 0xEE PUSH28 0x26ECDBEBB3837635889517EBA1C8FAE368842BD62140CFAF43321F PUSH5 0x736F6C6343 STOP ADDMOD NOT STOP CALLER "
				},
				"gasEstimates": {
					"creation": {
						"codeDepositCost": "509200",
						"executionCost": "541",
						"totalCost": "509741"
					},
					"external": {
						"addPerson(string,uint256)": "infinite",
						"findFavNumber(string)": "infinite",
						"findpersonFromNumber(uint256)": "infinite",
						"listofPeople(uint256)": "infinite",
						"retrieve()": "2432",
						"store(uint256)": "22580"
					}
				},
				"methodIdentifiers": {
					"addPerson(string,uint256)": "6f760f41",
					"findFavNumber(string)": "5d19f424",
					"findpersonFromNumber(uint256)": "397a01f9",
					"listofPeople(uint256)": "2e5effac",
					"retrieve()": "2e64cec1",
					"store(uint256)": "6057361d"
				}
			},
			"storageLayout": {
				"storage": [
					{
						"astId": 3,
						"contract": "contracts/arrays.sol:arrays",
						"label": "favoriteNumber",
						"offset": 0,
						"slot": "0",
						"type": "t_uint256"
					},
					{
						"astId": 12,
						"contract": "contracts/arrays.sol:arrays",
						"label": "listofPeople",
						"offset": 0,
						"slot": "1",
						"type": "t_array(t_struct(person)8_storage)dyn_storage"
					},
					{
						"astId": 16,
						"contract": "contracts/arrays.sol:arrays",
						"label": "findFavNumber",
						"offset": 0,
						"slot": "2",
						"type": "t_mapping(t_string_memory_ptr,t_uint256)"
					},
					{
						"astId": 20,
						"contract": "contracts/arrays.sol:arrays",
						"label": "findpersonFromNumber",
						"offset": 0,
						"slot": "3",
						"type": "t_mapping(t_uint256,t_string_storage)"
					}
				],
				"types": {
					"t_array(t_struct(person)8_storage)dyn_storage": {
						"base": "t_struct(person)8_storage",
						"encoding": "dynamic_array",
						"label": "struct arrays.person[]",
						"numberOfBytes": "32"
					},
					"t_mapping(t_string_memory_ptr,t_uint256)": {
						"encoding": "mapping",
						"key": "t_string_memory_ptr",
						"label": "mapping(string => uint256)",
						"numberOfBytes": "32",
						"value": "t_uint256"
					},
					"t_mapping(t_uint256,t_string_storage)": {
						"encoding": "mapping",
						"key": "t_uint256",
						"label": "mapping(uint256 => string)",
						"numberOfBytes": "32",
						"value": "t_string_storage"
					},
					"t_string_memory_ptr": {
						"encoding": "bytes",
						"label": "string",
						"numberOfBytes": "32"
					},
					"t_string_storage": {
						"encoding": "bytes",
						"label": "string",
						"numberOfBytes": "32"
					},
					"t_struct(person)8_storage": {
						"encoding": "inplace",
						"label": "struct arrays.person",
						"members": [
							{
								"astId": 5,
								"contract": "contracts/arrays.sol:arrays",
								"label": "favnumber",
								"offset": 0,
								"slot": "0",
								"type": "t_uint256"
							},
							{
								"astId": 7,
								"contract": "contracts/arrays.sol:arrays",
								"label": "name",
								"offset": 0,
								"slot": "1",
								"type": "t_string_storage"
							}
						],
						"numberOfBytes": "64"
					},
					"t_uint256": {
						"encoding": "inplace",
						"label": "uint256",
						"numberOfBytes": "32"
					}
				}
			},
			"userdoc": {
				"kind": "user",
				"methods": {},
				"version": 1
			}
		}
	}
}