{
	"contracts/arrays.sol": {
		"arrays": {
			"abi": [
				{
					"inputs": [
						{
							"internalType": "string",
							"name": "_name",
							"type": "string"
						},
						{
							"internalType": "uint256",
							"name": "_favoriteNumber",
							"type": "uint256"
						}
					],
					"name": "addPerson",
					"outputs": [],
					"stateMutability": "nonpayable",
					"type": "function"
				},
				{
					"inputs": [
						{
							"internalType": "string",
							"name": "",
							"type": "string"
						}
					],
					"name": "findFavNumber",
					"outputs": [
						{
							"internalType": "uint256",
							"name": "",
							"type": "uint256"
						}
					],
					"stateMutability": "view",
					"type": "function"
				},
				{
					"inputs": [
						{
							"internalType": "uint256",
							"name": "",
							"type": "uint256"
						}
					],
					"name": "findpersonFromNumber",
					"outputs": [
						{
							"internalType": "string",
							"name": "",
							"type": "string"
						}
					],
					"stateMutability": "view",
					"type": "function"
				},
				{
					"inputs": [
						{
							"internalType": "uint256",
							"name": "",
							"type": "uint256"
						}
					],
					"name": "listofPeople",
					"outputs": [
						{
							"internalType": "uint256",
							"name": "favnumber",
							"type": "uint256"
						},
						{
							"internalType": "string",
							"name": "name",
							"type": "string"
						}
					],
					"stateMutability": "view",
					"type": "function"
				},
				{
					"inputs": [],
					"name": "retrieve",
					"outputs": [
						{
							"internalType": "uint256",
							"name": "",
							"type": "uint256"
						}
					],
					"stateMutability": "view",
					"type": "function"
				},
				{
					"inputs": [
						{
							"internalType": "uint256",
							"name": "_favnumber",
							"type": "uint256"
						}
					],
					"name": "store",
					"outputs": [],
					"stateMutability": "nonpayable",
					"type": "function"
				}
			],
			"devdoc": {
				"kind": "dev",
				"methods": {},
				"version": 1
			},
			"evm": {
				"assembly": "    /* \"contracts/arrays.sol\":80:1287  contract arrays {... */\n  mstore(0x40, 0x80)\n  callvalue\n  dup1\n  iszero\n  tag_1\n  jumpi\n  0x00\n  dup1\n  revert\ntag_1:\n  pop\n  dataSize(sub_0)\n  dup1\n  dataOffset(sub_0)\n  0x00\n  codecopy\n  0x00\n  return\nstop\n\nsub_0: assembly {\n        /* \"contracts/arrays.sol\":80:1287  contract arrays {... */\n      mstore(0x40, 0x80)\n      callvalue\n      dup1\n      iszero\n      tag_1\n      jumpi\n      0x00\n      dup1\n      revert\n    tag_1:\n      pop\n      jumpi(tag_2, lt(calldatasize, 0x04))\n      shr(0xe0, calldataload(0x00))\n      dup1\n      0x2e5effac\n      eq\n      tag_3\n      jumpi\n      dup1\n      0x2e64cec1\n      eq\n      tag_4\n      jumpi\n      dup1\n      0x397a01f9\n      eq\n      tag_5\n      jumpi\n      dup1\n      0x5d19f424\n      eq\n      tag_6\n      jumpi\n      dup1\n      0x6057361d\n      eq\n      tag_7\n      jumpi\n      dup1\n      0x6f760f41\n      eq\n      tag_8\n      jumpi\n    tag_2:\n      0x00\n      dup1\n      revert\n        /* \"contracts/arrays.sol\":425:453  person[] public listofPeople */\n    tag_3:\n      tag_9\n      0x04\n      dup1\n      calldatasize\n      sub\n      dup2\n      add\n      swap1\n      tag_10\n      swap2\n      swap1\n      tag_11\n      jump\t// in\n    tag_10:\n      tag_12\n      jump\t// in\n    tag_9:\n      mload(0x40)\n      tag_13\n      swap3\n      swap2\n      swap1\n      tag_14\n      jump\t// in\n    tag_13:\n      mload(0x40)\n      dup1\n      swap2\n      sub\n      swap1\n      return\n        /* \"contracts/arrays.sol\":737:824  function retrieve() public view returns(uint256){... */\n    tag_4:\n      tag_15\n      tag_16\n      jump\t// in\n    tag_15:\n      mload(0x40)\n      tag_17\n      swap2\n      swap1\n      tag_18\n      jump\t// in\n    tag_17:\n      mload(0x40)\n      dup1\n      swap2\n      sub\n      swap1\n      return\n        /* \"contracts/arrays.sol\":577:632  mapping (uint256 => string) public findpersonFromNumber */\n    tag_5:\n      tag_19\n      0x04\n      dup1\n      calldatasize\n      sub\n      dup2\n      add\n      swap1\n      tag_20\n      swap2\n      swap1\n      tag_11\n      jump\t// in\n    tag_20:\n      tag_21\n      jump\t// in\n    tag_19:\n      mload(0x40)\n      tag_22\n      swap2\n      swap1\n      tag_23\n      jump\t// in\n    tag_22:\n      mload(0x40)\n      dup1\n      swap2\n      sub\n      swap1\n      return\n        /* \"contracts/arrays.sol\":521:569  mapping (string => uint256) public findFavNumber */\n    tag_6:\n      tag_24\n      0x04\n      dup1\n      calldatasize\n      sub\n      dup2\n      add\n      swap1\n      tag_25\n      swap2\n      swap1\n      tag_26\n      jump\t// in\n    tag_25:\n      tag_27\n      jump\t// in\n    tag_24:\n      mload(0x40)\n      tag_28\n      swap2\n      swap1\n      tag_18\n      jump\t// in\n    tag_28:\n      mload(0x40)\n      dup1\n      swap2\n      sub\n      swap1\n      return\n        /* \"contracts/arrays.sol\":644:730  function store(uint256 _favnumber)public {... */\n    tag_7:\n      tag_29\n      0x04\n      dup1\n      calldatasize\n      sub\n      dup2\n      add\n      swap1\n      tag_30\n      swap2\n      swap1\n      tag_11\n      jump\t// in\n    tag_30:\n      tag_31\n      jump\t// in\n    tag_29:\n      stop\n        /* \"contracts/arrays.sol\":831:1284  function addPerson(string memory _name, uint256 _favoriteNumber) public {... */\n    tag_8:\n      tag_32\n      0x04\n      dup1\n      calldatasize\n      sub\n      dup2\n      add\n      swap1\n      tag_33\n      swap2\n      swap1\n      tag_34\n      jump\t// in\n    tag_33:\n      tag_35\n      jump\t// in\n    tag_32:\n      stop\n        /* \"contracts/arrays.sol\":425:453  person[] public listofPeople */\n    tag_12:\n      0x01\n      dup2\n      dup2\n      sload\n      dup2\n      lt\n      tag_36\n      jumpi\n      0x00\n      dup1\n      revert\n    tag_36:\n      swap1\n      0x00\n      mstore\n      keccak256(0x00, 0x20)\n      swap1\n      0x02\n      mul\n      add\n      0x00\n      swap2\n      pop\n      swap1\n      pop\n      dup1\n      0x00\n      add\n      sload\n      swap1\n      dup1\n      0x01\n      add\n      dup1\n      sload\n      tag_38\n      swap1\n      tag_39\n      jump\t// in\n    tag_38:\n      dup1\n      0x1f\n      add\n      0x20\n      dup1\n      swap2\n      div\n      mul\n      0x20\n      add\n      mload(0x40)\n      swap1\n      dup2\n      add\n      0x40\n      mstore\n      dup1\n      swap3\n      swap2\n      swap1\n      dup2\n      dup2\n      mstore\n      0x20\n      add\n      dup3\n      dup1\n      sload\n      tag_40\n      swap1\n      tag_39\n      jump\t// in\n    tag_40:\n      dup1\n      iszero\n      tag_41\n      jumpi\n      dup1\n      0x1f\n      lt\n      tag_42\n      jumpi\n      0x0100\n      dup1\n      dup4\n      sload\n      div\n      mul\n      dup4\n      mstore\n      swap2\n      0x20\n      add\n      swap2\n      jump(tag_41)\n    tag_42:\n      dup3\n      add\n      swap2\n      swap1\n      0x00\n      mstore\n      keccak256(0x00, 0x20)\n      swap1\n    tag_43:\n      dup2\n      sload\n      dup2\n      mstore\n      swap1\n      0x01\n      add\n      swap1\n      0x20\n      add\n      dup1\n      dup4\n      gt\n      tag_43\n      jumpi\n      dup3\n      swap1\n      sub\n      0x1f\n      and\n      dup3\n      add\n      swap2\n    tag_41:\n      pop\n      pop\n      pop\n      pop\n      pop\n      swap1\n      pop\n      dup3\n      jump\t// out\n        /* \"contracts/arrays.sol\":737:824  function retrieve() public view returns(uint256){... */\n    tag_16:\n        /* \"contracts/arrays.sol\":777:784  uint256 */\n      0x00\n        /* \"contracts/arrays.sol\":803:817  favoriteNumber */\n      dup1\n      sload\n        /* \"contracts/arrays.sol\":796:817  return favoriteNumber */\n      swap1\n      pop\n        /* \"contracts/arrays.sol\":737:824  function retrieve() public view returns(uint256){... */\n      swap1\n      jump\t// out\n        /* \"contracts/arrays.sol\":577:632  mapping (uint256 => string) public findpersonFromNumber */\n    tag_21:\n      mstore(0x20, 0x03)\n      dup1\n      0x00\n      mstore\n      keccak256(0x00, 0x40)\n      0x00\n      swap2\n      pop\n      swap1\n      pop\n      dup1\n      sload\n      tag_45\n      swap1\n      tag_39\n      jump\t// in\n    tag_45:\n      dup1\n      0x1f\n      add\n      0x20\n      dup1\n      swap2\n      div\n      mul\n      0x20\n      add\n      mload(0x40)\n      swap1\n      dup2\n      add\n      0x40\n      mstore\n      dup1\n      swap3\n      swap2\n      swap1\n      dup2\n      dup2\n      mstore\n      0x20\n      add\n      dup3\n      dup1\n      sload\n      tag_46\n      swap1\n      tag_39\n      jump\t// in\n    tag_46:\n      dup1\n      iszero\n      tag_47\n      jumpi\n      dup1\n      0x1f\n      lt\n      tag_48\n      jumpi\n      0x0100\n      dup1\n      dup4\n      sload\n      div\n      mul\n      dup4\n      mstore\n      swap2\n      0x20\n      add\n      swap2\n      jump(tag_47)\n    tag_48:\n      dup3\n      add\n      swap2\n      swap1\n      0x00\n      mstore\n      keccak256(0x00, 0x20)\n      swap1\n    tag_49:\n      dup2\n      sload\n      dup2\n      mstore\n      swap1\n      0x01\n      add\n      swap1\n      0x20\n      add\n      dup1\n      dup4\n      gt\n      tag_49\n      jumpi\n      dup3\n      swap1\n      sub\n      0x1f\n      and\n      dup3\n      add\n      swap2\n    tag_47:\n      pop\n      pop\n      pop\n      pop\n      pop\n      dup2\n      jump\t// out\n        /* \"contracts/arrays.sol\":521:569  mapping (string => uint256) public findFavNumber */\n    tag_27:\n      0x02\n      dup2\n      dup1\n      mload\n      0x20\n      dup2\n      add\n      dup3\n      add\n      dup1\n      mload\n      dup5\n      dup3\n      mstore\n      0x20\n      dup4\n      add\n      0x20\n      dup6\n      add\n      keccak256\n      dup2\n      dup4\n      mstore\n      dup1\n      swap6\n      pop\n      pop\n      pop\n      pop\n      pop\n      pop\n      0x00\n      swap2\n      pop\n      swap1\n      pop\n      sload\n      dup2\n      jump\t// out\n        /* \"contracts/arrays.sol\":644:730  function store(uint256 _favnumber)public {... */\n    tag_31:\n        /* \"contracts/arrays.sol\":713:723  _favnumber */\n      dup1\n        /* \"contracts/arrays.sol\":696:710  favoriteNumber */\n      0x00\n        /* \"contracts/arrays.sol\":696:723  favoriteNumber = _favnumber */\n      dup2\n      swap1\n      sstore\n      pop\n        /* \"contracts/arrays.sol\":644:730  function store(uint256 _favnumber)public {... */\n      pop\n      jump\t// out\n        /* \"contracts/arrays.sol\":831:1284  function addPerson(string memory _name, uint256 _favoriteNumber) public {... */\n    tag_35:\n        /* \"contracts/arrays.sol\":921:944  person memory newPerson */\n      0x00\n        /* \"contracts/arrays.sol\":947:976  person(_favoriteNumber,_name) */\n      mload(0x40)\n      dup1\n      0x40\n      add\n      0x40\n      mstore\n      dup1\n        /* \"contracts/arrays.sol\":954:969  _favoriteNumber */\n      dup4\n        /* \"contracts/arrays.sol\":947:976  person(_favoriteNumber,_name) */\n      dup2\n      mstore\n      0x20\n      add\n        /* \"contracts/arrays.sol\":970:975  _name */\n      dup5\n        /* \"contracts/arrays.sol\":947:976  person(_favoriteNumber,_name) */\n      dup2\n      mstore\n      pop\n        /* \"contracts/arrays.sol\":921:976  person memory newPerson = person(_favoriteNumber,_name) */\n      swap1\n      pop\n        /* \"contracts/arrays.sol\":995:1007  listofPeople */\n      0x01\n        /* \"contracts/arrays.sol\":1013:1022  newPerson */\n      dup2\n        /* \"contracts/arrays.sol\":995:1023  listofPeople.push(newPerson) */\n      swap1\n      dup1\n      0x01\n      dup2\n      sload\n      add\n      dup1\n      dup3\n      sstore\n      dup1\n      swap2\n      pop\n      pop\n      0x01\n      swap1\n      sub\n      swap1\n      0x00\n      mstore\n      keccak256(0x00, 0x20)\n      swap1\n      0x02\n      mul\n      add\n      0x00\n      swap1\n      swap2\n      swap1\n      swap2\n      swap1\n      swap2\n      pop\n      0x00\n      dup3\n      add\n      mload\n      dup2\n      0x00\n      add\n      sstore\n      0x20\n      dup3\n      add\n      mload\n      dup2\n      0x01\n      add\n      swap1\n      dup2\n      tag_53\n      swap2\n      swap1\n      tag_54\n      jump\t// in\n    tag_53:\n      pop\n      pop\n      pop\n        /* \"contracts/arrays.sol\":1120:1135  _favoriteNumber */\n      dup2\n        /* \"contracts/arrays.sol\":1097:1110  findFavNumber */\n      0x02\n        /* \"contracts/arrays.sol\":1111:1116  _name */\n      dup5\n        /* \"contracts/arrays.sol\":1097:1117  findFavNumber[_name] */\n      mload(0x40)\n      tag_55\n      swap2\n      swap1\n      tag_56\n      jump\t// in\n    tag_55:\n      swap1\n      dup2\n      mstore\n      0x20\n      add\n      mload(0x40)\n      dup1\n      swap2\n      sub\n      swap1\n      keccak256\n        /* \"contracts/arrays.sol\":1097:1135  findFavNumber[_name] = _favoriteNumber */\n      dup2\n      swap1\n      sstore\n      pop\n        /* \"contracts/arrays.sol\":1187:1192  _name */\n      dup3\n        /* \"contracts/arrays.sol\":1147:1167  findpersonFromNumber */\n      0x03\n        /* \"contracts/arrays.sol\":1147:1184  findpersonFromNumber[_favoriteNumber] */\n      0x00\n        /* \"contracts/arrays.sol\":1168:1183  _favoriteNumber */\n      dup5\n        /* \"contracts/arrays.sol\":1147:1184  findpersonFromNumber[_favoriteNumber] */\n      dup2\n      mstore\n      0x20\n      add\n      swap1\n      dup2\n      mstore\n      0x20\n      add\n      0x00\n      keccak256\n        /* \"contracts/arrays.sol\":1147:1192  findpersonFromNumber[_favoriteNumber] = _name */\n      swap1\n      dup2\n      tag_57\n      swap2\n      swap1\n      tag_54\n      jump\t// in\n    tag_57:\n      pop\n        /* \"contracts/arrays.sol\":903:1284  {... */\n      pop\n        /* \"contracts/arrays.sol\":831:1284  function addPerson(string memory _name, uint256 _favoriteNumber) public {... */\n      pop\n      pop\n      jump\t// out\n        /* \"#utility.yul\":7:82   */\n    tag_58:\n        /* \"#utility.yul\":40:46   */\n      0x00\n        /* \"#utility.yul\":73:75   */\n      0x40\n        /* \"#utility.yul\":67:76   */\n      mload\n        /* \"#utility.yul\":57:76   */\n      swap1\n      pop\n        /* \"#utility.yul\":7:82   */\n      swap1\n      jump\t// out\n        /* \"#utility.yul\":88:205   */\n    tag_59:\n        /* \"#utility.yul\":197:198   */\n      0x00\n        /* \"#utility.yul\":194:195   */\n      dup1\n        /* \"#utility.yul\":187:199   */\n      revert\n        /* \"#utility.yul\":211:328   */\n    tag_60:\n        /* \"#utility.yul\":320:321   */\n      0x00\n        /* \"#utility.yul\":317:318   */\n      dup1\n        /* \"#utility.yul\":310:322   */\n      revert\n        /* \"#utility.yul\":334:411   */\n    tag_61:\n        /* \"#utility.yul\":371:378   */\n      0x00\n        /* \"#utility.yul\":400:405   */\n      dup2\n        /* \"#utility.yul\":389:405   */\n      swap1\n      pop\n        /* \"#utility.yul\":334:411   */\n      swap2\n      swap1\n      pop\n      jump\t// out\n        /* \"#utility.yul\":417:539   */\n    tag_62:\n        /* \"#utility.yul\":490:514   */\n      tag_103\n        /* \"#utility.yul\":508:513   */\n      dup2\n        /* \"#utility.yul\":490:514   */\n      tag_61\n      jump\t// in\n    tag_103:\n        /* \"#utility.yul\":483:488   */\n      dup2\n        /* \"#utility.yul\":480:515   */\n      eq\n        /* \"#utility.yul\":470:533   */\n      tag_104\n      jumpi\n        /* \"#utility.yul\":529:530   */\n      0x00\n        /* \"#utility.yul\":526:527   */\n      dup1\n        /* \"#utility.yul\":519:531   */\n      revert\n        /* \"#utility.yul\":470:533   */\n    tag_104:\n        /* \"#utility.yul\":417:539   */\n      pop\n      jump\t// out\n        /* \"#utility.yul\":545:684   */\n    tag_63:\n        /* \"#utility.yul\":591:596   */\n      0x00\n        /* \"#utility.yul\":629:635   */\n      dup2\n        /* \"#utility.yul\":616:636   */\n      calldataload\n        /* \"#utility.yul\":607:636   */\n      swap1\n      pop\n        /* \"#utility.yul\":645:678   */\n      tag_106\n        /* \"#utility.yul\":672:677   */\n      dup2\n        /* \"#utility.yul\":645:678   */\n      tag_62\n      jump\t// in\n    tag_106:\n        /* \"#utility.yul\":545:684   */\n      swap3\n      swap2\n      pop\n      pop\n      jump\t// out\n        /* \"#utility.yul\":690:1019   */\n    tag_11:\n        /* \"#utility.yul\":749:755   */\n      0x00\n        /* \"#utility.yul\":798:800   */\n      0x20\n        /* \"#utility.yul\":786:795   */\n      dup3\n        /* \"#utility.yul\":777:784   */\n      dup5\n        /* \"#utility.yul\":773:796   */\n      sub\n        /* \"#utility.yul\":769:801   */\n      slt\n        /* \"#utility.yul\":766:885   */\n      iszero\n      tag_108\n      jumpi\n        /* \"#utility.yul\":804:883   */\n      tag_109\n      tag_59\n      jump\t// in\n    tag_109:\n        /* \"#utility.yul\":766:885   */\n    tag_108:\n        /* \"#utility.yul\":924:925   */\n      0x00\n        /* \"#utility.yul\":949:1002   */\n      tag_110\n        /* \"#utility.yul\":994:1001   */\n      dup5\n        /* \"#utility.yul\":985:991   */\n      dup3\n        /* \"#utility.yul\":974:983   */\n      dup6\n        /* \"#utility.yul\":970:992   */\n      add\n        /* \"#utility.yul\":949:1002   */\n      tag_63\n      jump\t// in\n    tag_110:\n        /* \"#utility.yul\":939:1002   */\n      swap2\n      pop\n        /* \"#utility.yul\":895:1012   */\n      pop\n        /* \"#utility.yul\":690:1019   */\n      swap3\n      swap2\n      pop\n      pop\n      jump\t// out\n        /* \"#utility.yul\":1025:1143   */\n    tag_64:\n        /* \"#utility.yul\":1112:1136   */\n      tag_112\n        /* \"#utility.yul\":1130:1135   */\n      dup2\n        /* \"#utility.yul\":1112:1136   */\n      tag_61\n      jump\t// in\n    tag_112:\n        /* \"#utility.yul\":1107:1110   */\n      dup3\n        /* \"#utility.yul\":1100:1137   */\n      mstore\n        /* \"#utility.yul\":1025:1143   */\n      pop\n      pop\n      jump\t// out\n        /* \"#utility.yul\":1149:1248   */\n    tag_65:\n        /* \"#utility.yul\":1201:1207   */\n      0x00\n        /* \"#utility.yul\":1235:1240   */\n      dup2\n        /* \"#utility.yul\":1229:1241   */\n      mload\n        /* \"#utility.yul\":1219:1241   */\n      swap1\n      pop\n        /* \"#utility.yul\":1149:1248   */\n      swap2\n      swap1\n      pop\n      jump\t// out\n        /* \"#utility.yul\":1254:1423   */\n    tag_66:\n        /* \"#utility.yul\":1338:1349   */\n      0x00\n        /* \"#utility.yul\":1372:1378   */\n      dup3\n        /* \"#utility.yul\":1367:1370   */\n      dup3\n        /* \"#utility.yul\":1360:1379   */\n      mstore\n        /* \"#utility.yul\":1412:1416   */\n      0x20\n        /* \"#utility.yul\":1407:1410   */\n      dup3\n        /* \"#utility.yul\":1403:1417   */\n      add\n        /* \"#utility.yul\":1388:1417   */\n      swap1\n      pop\n        /* \"#utility.yul\":1254:1423   */\n      swap3\n      swap2\n      pop\n      pop\n      jump\t// out\n        /* \"#utility.yul\":1429:1675   */\n    tag_67:\n        /* \"#utility.yul\":1510:1511   */\n      0x00\n        /* \"#utility.yul\":1520:1633   */\n    tag_116:\n        /* \"#utility.yul\":1534:1540   */\n      dup4\n        /* \"#utility.yul\":1531:1532   */\n      dup2\n        /* \"#utility.yul\":1528:1541   */\n      lt\n        /* \"#utility.yul\":1520:1633   */\n      iszero\n      tag_118\n      jumpi\n        /* \"#utility.yul\":1619:1620   */\n      dup1\n        /* \"#utility.yul\":1614:1617   */\n      dup3\n        /* \"#utility.yul\":1610:1621   */\n      add\n        /* \"#utility.yul\":1604:1622   */\n      mload\n        /* \"#utility.yul\":1600:1601   */\n      dup2\n        /* \"#utility.yul\":1595:1598   */\n      dup5\n        /* \"#utility.yul\":1591:1602   */\n      add\n        /* \"#utility.yul\":1584:1623   */\n      mstore\n        /* \"#utility.yul\":1556:1558   */\n      0x20\n        /* \"#utility.yul\":1553:1554   */\n      dup2\n        /* \"#utility.yul\":1549:1559   */\n      add\n        /* \"#utility.yul\":1544:1559   */\n      swap1\n      pop\n        /* \"#utility.yul\":1520:1633   */\n      jump(tag_116)\n    tag_118:\n        /* \"#utility.yul\":1667:1668   */\n      0x00\n        /* \"#utility.yul\":1658:1664   */\n      dup5\n        /* \"#utility.yul\":1653:1656   */\n      dup5\n        /* \"#utility.yul\":1649:1665   */\n      add\n        /* \"#utility.yul\":1642:1669   */\n      mstore\n        /* \"#utility.yul\":1491:1675   */\n      pop\n        /* \"#utility.yul\":1429:1675   */\n      pop\n      pop\n      pop\n      jump\t// out\n        /* \"#utility.yul\":1681:1783   */\n    tag_68:\n        /* \"#utility.yul\":1722:1728   */\n      0x00\n        /* \"#utility.yul\":1773:1775   */\n      0x1f\n        /* \"#utility.yul\":1769:1776   */\n      not\n        /* \"#utility.yul\":1764:1766   */\n      0x1f\n        /* \"#utility.yul\":1757:1762   */\n      dup4\n        /* \"#utility.yul\":1753:1767   */\n      add\n        /* \"#utility.yul\":1749:1777   */\n      and\n        /* \"#utility.yul\":1739:1777   */\n      swap1\n      pop\n        /* \"#utility.yul\":1681:1783   */\n      swap2\n      swap1\n      pop\n      jump\t// out\n        /* \"#utility.yul\":1789:2166   */\n    tag_69:\n        /* \"#utility.yul\":1877:1880   */\n      0x00\n        /* \"#utility.yul\":1905:1944   */\n      tag_121\n        /* \"#utility.yul\":1938:1943   */\n      dup3\n        /* \"#utility.yul\":1905:1944   */\n      tag_65\n      jump\t// in\n    tag_121:\n        /* \"#utility.yul\":1960:2031   */\n      tag_122\n        /* \"#utility.yul\":2024:2030   */\n      dup2\n        /* \"#utility.yul\":2019:2022   */\n      dup6\n        /* \"#utility.yul\":1960:2031   */\n      tag_66\n      jump\t// in\n    tag_122:\n        /* \"#utility.yul\":1953:2031   */\n      swap4\n      pop\n        /* \"#utility.yul\":2040:2105   */\n      tag_123\n        /* \"#utility.yul\":2098:2104   */\n      dup2\n        /* \"#utility.yul\":2093:2096   */\n      dup6\n        /* \"#utility.yul\":2086:2090   */\n      0x20\n        /* \"#utility.yul\":2079:2084   */\n      dup7\n        /* \"#utility.yul\":2075:2091   */\n      add\n        /* \"#utility.yul\":2040:2105   */\n      tag_67\n      jump\t// in\n    tag_123:\n        /* \"#utility.yul\":2130:2159   */\n      tag_124\n        /* \"#utility.yul\":2152:2158   */\n      dup2\n        /* \"#utility.yul\":2130:2159   */\n      tag_68\n      jump\t// in\n    tag_124:\n        /* \"#utility.yul\":2125:2128   */\n      dup5\n        /* \"#utility.yul\":2121:2160   */\n      add\n        /* \"#utility.yul\":2114:2160   */\n      swap2\n      pop\n        /* \"#utility.yul\":1881:2166   */\n      pop\n        /* \"#utility.yul\":1789:2166   */\n      swap3\n      swap2\n      pop\n      pop\n      jump\t// out\n        /* \"#utility.yul\":2172:2595   */\n    tag_14:\n        /* \"#utility.yul\":2313:2317   */\n      0x00\n        /* \"#utility.yul\":2351:2353   */\n      0x40\n        /* \"#utility.yul\":2340:2349   */\n      dup3\n        /* \"#utility.yul\":2336:2354   */\n      add\n        /* \"#utility.yul\":2328:2354   */\n      swap1\n      pop\n        /* \"#utility.yul\":2364:2435   */\n      tag_126\n        /* \"#utility.yul\":2432:2433   */\n      0x00\n        /* \"#utility.yul\":2421:2430   */\n      dup4\n        /* \"#utility.yul\":2417:2434   */\n      add\n        /* \"#utility.yul\":2408:2414   */\n      dup6\n        /* \"#utility.yul\":2364:2435   */\n      tag_64\n      jump\t// in\n    tag_126:\n        /* \"#utility.yul\":2482:2491   */\n      dup2\n        /* \"#utility.yul\":2476:2480   */\n      dup2\n        /* \"#utility.yul\":2472:2492   */\n      sub\n        /* \"#utility.yul\":2467:2469   */\n      0x20\n        /* \"#utility.yul\":2456:2465   */\n      dup4\n        /* \"#utility.yul\":2452:2470   */\n      add\n        /* \"#utility.yul\":2445:2493   */\n      mstore\n        /* \"#utility.yul\":2510:2588   */\n      tag_127\n        /* \"#utility.yul\":2583:2587   */\n      dup2\n        /* \"#utility.yul\":2574:2580   */\n      dup5\n        /* \"#utility.yul\":2510:2588   */\n      tag_69\n      jump\t// in\n    tag_127:\n        /* \"#utility.yul\":2502:2588   */\n      swap1\n      pop\n        /* \"#utility.yul\":2172:2595   */\n      swap4\n      swap3\n      pop\n      pop\n      pop\n      jump\t// out\n        /* \"#utility.yul\":2601:2823   */\n    tag_18:\n        /* \"#utility.yul\":2694:2698   */\n      0x00\n        /* \"#utility.yul\":2732:2734   */\n      0x20\n        /* \"#utility.yul\":2721:2730   */\n      dup3\n        /* \"#utility.yul\":2717:2735   */\n      add\n        /* \"#utility.yul\":2709:2735   */\n      swap1\n      pop\n        /* \"#utility.yul\":2745:2816   */\n      tag_129\n        /* \"#utility.yul\":2813:2814   */\n      0x00\n        /* \"#utility.yul\":2802:2811   */\n      dup4\n        /* \"#utility.yul\":2798:2815   */\n      add\n        /* \"#utility.yul\":2789:2795   */\n      dup5\n        /* \"#utility.yul\":2745:2816   */\n      tag_64\n      jump\t// in\n    tag_129:\n        /* \"#utility.yul\":2601:2823   */\n      swap3\n      swap2\n      pop\n      pop\n      jump\t// out\n        /* \"#utility.yul\":2829:3142   */\n    tag_23:\n        /* \"#utility.yul\":2942:2946   */\n      0x00\n        /* \"#utility.yul\":2980:2982   */\n      0x20\n        /* \"#utility.yul\":2969:2978   */\n      dup3\n        /* \"#utility.yul\":2965:2983   */\n      add\n        /* \"#utility.yul\":2957:2983   */\n      swap1\n      pop\n        /* \"#utility.yul\":3029:3038   */\n      dup2\n        /* \"#utility.yul\":3023:3027   */\n      dup2\n        /* \"#utility.yul\":3019:3039   */\n      sub\n        /* \"#utility.yul\":3015:3016   */\n      0x00\n        /* \"#utility.yul\":3004:3013   */\n      dup4\n        /* \"#utility.yul\":3000:3017   */\n      add\n        /* \"#utility.yul\":2993:3040   */\n      mstore\n        /* \"#utility.yul\":3057:3135   */\n      tag_131\n        /* \"#utility.yul\":3130:3134   */\n      dup2\n        /* \"#utility.yul\":3121:3127   */\n      dup5\n        /* \"#utility.yul\":3057:3135   */\n      tag_69\n      jump\t// in\n    tag_131:\n        /* \"#utility.yul\":3049:3135   */\n      swap1\n      pop\n        /* \"#utility.yul\":2829:3142   */\n      swap3\n      swap2\n      pop\n      pop\n      jump\t// out\n        /* \"#utility.yul\":3148:3265   */\n    tag_70:\n        /* \"#utility.yul\":3257:3258   */\n      0x00\n        /* \"#utility.yul\":3254:3255   */\n      dup1\n        /* \"#utility.yul\":3247:3259   */\n      revert\n        /* \"#utility.yul\":3271:3388   */\n    tag_71:\n        /* \"#utility.yul\":3380:3381   */\n      0x00\n        /* \"#utility.yul\":3377:3378   */\n      dup1\n        /* \"#utility.yul\":3370:3382   */\n      revert\n        /* \"#utility.yul\":3394:3574   */\n    tag_72:\n        /* \"#utility.yul\":3442:3519   */\n      0x4e487b7100000000000000000000000000000000000000000000000000000000\n        /* \"#utility.yul\":3439:3440   */\n      0x00\n        /* \"#utility.yul\":3432:3520   */\n      mstore\n        /* \"#utility.yul\":3539:3543   */\n      0x41\n        /* \"#utility.yul\":3536:3537   */\n      0x04\n        /* \"#utility.yul\":3529:3544   */\n      mstore\n        /* \"#utility.yul\":3563:3567   */\n      0x24\n        /* \"#utility.yul\":3560:3561   */\n      0x00\n        /* \"#utility.yul\":3553:3568   */\n      revert\n        /* \"#utility.yul\":3580:3861   */\n    tag_73:\n        /* \"#utility.yul\":3663:3690   */\n      tag_136\n        /* \"#utility.yul\":3685:3689   */\n      dup3\n        /* \"#utility.yul\":3663:3690   */\n      tag_68\n      jump\t// in\n    tag_136:\n        /* \"#utility.yul\":3655:3661   */\n      dup2\n        /* \"#utility.yul\":3651:3691   */\n      add\n        /* \"#utility.yul\":3793:3799   */\n      dup2\n        /* \"#utility.yul\":3781:3791   */\n      dup2\n        /* \"#utility.yul\":3778:3800   */\n      lt\n        /* \"#utility.yul\":3757:3775   */\n      0xffffffffffffffff\n        /* \"#utility.yul\":3745:3755   */\n      dup3\n        /* \"#utility.yul\":3742:3776   */\n      gt\n        /* \"#utility.yul\":3739:3801   */\n      or\n        /* \"#utility.yul\":3736:3824   */\n      iszero\n      tag_137\n      jumpi\n        /* \"#utility.yul\":3804:3822   */\n      tag_138\n      tag_72\n      jump\t// in\n    tag_138:\n        /* \"#utility.yul\":3736:3824   */\n    tag_137:\n        /* \"#utility.yul\":3844:3854   */\n      dup1\n        /* \"#utility.yul\":3840:3842   */\n      0x40\n        /* \"#utility.yul\":3833:3855   */\n      mstore\n        /* \"#utility.yul\":3623:3861   */\n      pop\n        /* \"#utility.yul\":3580:3861   */\n      pop\n      pop\n      jump\t// out\n        /* \"#utility.yul\":3867:3996   */\n    tag_74:\n        /* \"#utility.yul\":3901:3907   */\n      0x00\n        /* \"#utility.yul\":3928:3948   */\n      tag_140\n      tag_58\n      jump\t// in\n    tag_140:\n        /* \"#utility.yul\":3918:3948   */\n      swap1\n      pop\n        /* \"#utility.yul\":3957:3990   */\n      tag_141\n        /* \"#utility.yul\":3985:3989   */\n      dup3\n        /* \"#utility.yul\":3977:3983   */\n      dup3\n        /* \"#utility.yul\":3957:3990   */\n      tag_73\n      jump\t// in\n    tag_141:\n        /* \"#utility.yul\":3867:3996   */\n      swap2\n      swap1\n      pop\n      jump\t// out\n        /* \"#utility.yul\":4002:4310   */\n    tag_75:\n        /* \"#utility.yul\":4064:4068   */\n      0x00\n        /* \"#utility.yul\":4154:4172   */\n      0xffffffffffffffff\n        /* \"#utility.yul\":4146:4152   */\n      dup3\n        /* \"#utility.yul\":4143:4173   */\n      gt\n        /* \"#utility.yul\":4140:4196   */\n      iszero\n      tag_143\n      jumpi\n        /* \"#utility.yul\":4176:4194   */\n      tag_144\n      tag_72\n      jump\t// in\n    tag_144:\n        /* \"#utility.yul\":4140:4196   */\n    tag_143:\n        /* \"#utility.yul\":4214:4243   */\n      tag_145\n        /* \"#utility.yul\":4236:4242   */\n      dup3\n        /* \"#utility.yul\":4214:4243   */\n      tag_68\n      jump\t// in\n    tag_145:\n        /* \"#utility.yul\":4206:4243   */\n      swap1\n      pop\n        /* \"#utility.yul\":4298:4302   */\n      0x20\n        /* \"#utility.yul\":4292:4296   */\n      dup2\n        /* \"#utility.yul\":4288:4303   */\n      add\n        /* \"#utility.yul\":4280:4303   */\n      swap1\n      pop\n        /* \"#utility.yul\":4002:4310   */\n      swap2\n      swap1\n      pop\n      jump\t// out\n        /* \"#utility.yul\":4316:4462   */\n    tag_76:\n        /* \"#utility.yul\":4413:4419   */\n      dup3\n        /* \"#utility.yul\":4408:4411   */\n      dup2\n        /* \"#utility.yul\":4403:4406   */\n      dup4\n        /* \"#utility.yul\":4390:4420   */\n      calldatacopy\n        /* \"#utility.yul\":4454:4455   */\n      0x00\n        /* \"#utility.yul\":4445:4451   */\n      dup4\n        /* \"#utility.yul\":4440:4443   */\n      dup4\n        /* \"#utility.yul\":4436:4452   */\n      add\n        /* \"#utility.yul\":4429:4456   */\n      mstore\n        /* \"#utility.yul\":4316:4462   */\n      pop\n      pop\n      pop\n      jump\t// out\n        /* \"#utility.yul\":4468:4893   */\n    tag_77:\n        /* \"#utility.yul\":4546:4551   */\n      0x00\n        /* \"#utility.yul\":4571:4637   */\n      tag_148\n        /* \"#utility.yul\":4587:4636   */\n      tag_149\n        /* \"#utility.yul\":4629:4635   */\n      dup5\n        /* \"#utility.yul\":4587:4636   */\n      tag_75\n      jump\t// in\n    tag_149:\n        /* \"#utility.yul\":4571:4637   */\n      tag_74\n      jump\t// in\n    tag_148:\n        /* \"#utility.yul\":4562:4637   */\n      swap1\n      pop\n        /* \"#utility.yul\":4660:4666   */\n      dup3\n        /* \"#utility.yul\":4653:4658   */\n      dup2\n        /* \"#utility.yul\":4646:4667   */\n      mstore\n        /* \"#utility.yul\":4698:4702   */\n      0x20\n        /* \"#utility.yul\":4691:4696   */\n      dup2\n        /* \"#utility.yul\":4687:4703   */\n      add\n        /* \"#utility.yul\":4736:4739   */\n      dup5\n        /* \"#utility.yul\":4727:4733   */\n      dup5\n        /* \"#utility.yul\":4722:4725   */\n      dup5\n        /* \"#utility.yul\":4718:4734   */\n      add\n        /* \"#utility.yul\":4715:4740   */\n      gt\n        /* \"#utility.yul\":4712:4824   */\n      iszero\n      tag_150\n      jumpi\n        /* \"#utility.yul\":4743:4822   */\n      tag_151\n      tag_71\n      jump\t// in\n    tag_151:\n        /* \"#utility.yul\":4712:4824   */\n    tag_150:\n        /* \"#utility.yul\":4833:4887   */\n      tag_152\n        /* \"#utility.yul\":4880:4886   */\n      dup5\n        /* \"#utility.yul\":4875:4878   */\n      dup3\n        /* \"#utility.yul\":4870:4873   */\n      dup6\n        /* \"#utility.yul\":4833:4887   */\n      tag_76\n      jump\t// in\n    tag_152:\n        /* \"#utility.yul\":4552:4893   */\n      pop\n        /* \"#utility.yul\":4468:4893   */\n      swap4\n      swap3\n      pop\n      pop\n      pop\n      jump\t// out\n        /* \"#utility.yul\":4913:5253   */\n    tag_78:\n        /* \"#utility.yul\":4969:4974   */\n      0x00\n        /* \"#utility.yul\":5018:5021   */\n      dup3\n        /* \"#utility.yul\":5011:5015   */\n      0x1f\n        /* \"#utility.yul\":5003:5009   */\n      dup4\n        /* \"#utility.yul\":4999:5016   */\n      add\n        /* \"#utility.yul\":4995:5022   */\n      slt\n        /* \"#utility.yul\":4985:5107   */\n      tag_154\n      jumpi\n        /* \"#utility.yul\":5026:5105   */\n      tag_155\n      tag_70\n      jump\t// in\n    tag_155:\n        /* \"#utility.yul\":4985:5107   */\n    tag_154:\n        /* \"#utility.yul\":5143:5149   */\n      dup2\n        /* \"#utility.yul\":5130:5150   */\n      calldataload\n        /* \"#utility.yul\":5168:5247   */\n      tag_156\n        /* \"#utility.yul\":5243:5246   */\n      dup5\n        /* \"#utility.yul\":5235:5241   */\n      dup3\n        /* \"#utility.yul\":5228:5232   */\n      0x20\n        /* \"#utility.yul\":5220:5226   */\n      dup7\n        /* \"#utility.yul\":5216:5233   */\n      add\n        /* \"#utility.yul\":5168:5247   */\n      tag_77\n      jump\t// in\n    tag_156:\n        /* \"#utility.yul\":5159:5247   */\n      swap2\n      pop\n        /* \"#utility.yul\":4975:5253   */\n      pop\n        /* \"#utility.yul\":4913:5253   */\n      swap3\n      swap2\n      pop\n      pop\n      jump\t// out\n        /* \"#utility.yul\":5259:5768   */\n    tag_26:\n        /* \"#utility.yul\":5328:5334   */\n      0x00\n        /* \"#utility.yul\":5377:5379   */\n      0x20\n        /* \"#utility.yul\":5365:5374   */\n      dup3\n        /* \"#utility.yul\":5356:5363   */\n      dup5\n        /* \"#utility.yul\":5352:5375   */\n      sub\n        /* \"#utility.yul\":5348:5380   */\n      slt\n        /* \"#utility.yul\":5345:5464   */\n      iszero\n      tag_158\n      jumpi\n        /* \"#utility.yul\":5383:5462   */\n      tag_159\n      tag_59\n      jump\t// in\n    tag_159:\n        /* \"#utility.yul\":5345:5464   */\n    tag_158:\n        /* \"#utility.yul\":5531:5532   */\n      0x00\n        /* \"#utility.yul\":5520:5529   */\n      dup3\n        /* \"#utility.yul\":5516:5533   */\n      add\n        /* \"#utility.yul\":5503:5534   */\n      calldataload\n        /* \"#utility.yul\":5561:5579   */\n      0xffffffffffffffff\n        /* \"#utility.yul\":5553:5559   */\n      dup2\n        /* \"#utility.yul\":5550:5580   */\n      gt\n        /* \"#utility.yul\":5547:5664   */\n      iszero\n      tag_160\n      jumpi\n        /* \"#utility.yul\":5583:5662   */\n      tag_161\n      tag_60\n      jump\t// in\n    tag_161:\n        /* \"#utility.yul\":5547:5664   */\n    tag_160:\n        /* \"#utility.yul\":5688:5751   */\n      tag_162\n        /* \"#utility.yul\":5743:5750   */\n      dup5\n        /* \"#utility.yul\":5734:5740   */\n      dup3\n        /* \"#utility.yul\":5723:5732   */\n      dup6\n        /* \"#utility.yul\":5719:5741   */\n      add\n        /* \"#utility.yul\":5688:5751   */\n      tag_78\n      jump\t// in\n    tag_162:\n        /* \"#utility.yul\":5678:5751   */\n      swap2\n      pop\n        /* \"#utility.yul\":5474:5761   */\n      pop\n        /* \"#utility.yul\":5259:5768   */\n      swap3\n      swap2\n      pop\n      pop\n      jump\t// out\n        /* \"#utility.yul\":5774:6428   */\n    tag_34:\n        /* \"#utility.yul\":5852:5858   */\n      0x00\n        /* \"#utility.yul\":5860:5866   */\n      dup1\n        /* \"#utility.yul\":5909:5911   */\n      0x40\n        /* \"#utility.yul\":5897:5906   */\n      dup4\n        /* \"#utility.yul\":5888:5895   */\n      dup6\n        /* \"#utility.yul\":5884:5907   */\n      sub\n        /* \"#utility.yul\":5880:5912   */\n      slt\n        /* \"#utility.yul\":5877:5996   */\n      iszero\n      tag_164\n      jumpi\n        /* \"#utility.yul\":5915:5994   */\n      tag_165\n      tag_59\n      jump\t// in\n    tag_165:\n        /* \"#utility.yul\":5877:5996   */\n    tag_164:\n        /* \"#utility.yul\":6063:6064   */\n      0x00\n        /* \"#utility.yul\":6052:6061   */\n      dup4\n        /* \"#utility.yul\":6048:6065   */\n      add\n        /* \"#utility.yul\":6035:6066   */\n      calldataload\n        /* \"#utility.yul\":6093:6111   */\n      0xffffffffffffffff\n        /* \"#utility.yul\":6085:6091   */\n      dup2\n        /* \"#utility.yul\":6082:6112   */\n      gt\n        /* \"#utility.yul\":6079:6196   */\n      iszero\n      tag_166\n      jumpi\n        /* \"#utility.yul\":6115:6194   */\n      tag_167\n      tag_60\n      jump\t// in\n    tag_167:\n        /* \"#utility.yul\":6079:6196   */\n    tag_166:\n        /* \"#utility.yul\":6220:6283   */\n      tag_168\n        /* \"#utility.yul\":6275:6282   */\n      dup6\n        /* \"#utility.yul\":6266:6272   */\n      dup3\n        /* \"#utility.yul\":6255:6264   */\n      dup7\n        /* \"#utility.yul\":6251:6273   */\n      add\n        /* \"#utility.yul\":6220:6283   */\n      tag_78\n      jump\t// in\n    tag_168:\n        /* \"#utility.yul\":6210:6283   */\n      swap3\n      pop\n        /* \"#utility.yul\":6006:6293   */\n      pop\n        /* \"#utility.yul\":6332:6334   */\n      0x20\n        /* \"#utility.yul\":6358:6411   */\n      tag_169\n        /* \"#utility.yul\":6403:6410   */\n      dup6\n        /* \"#utility.yul\":6394:6400   */\n      dup3\n        /* \"#utility.yul\":6383:6392   */\n      dup7\n        /* \"#utility.yul\":6379:6401   */\n      add\n        /* \"#utility.yul\":6358:6411   */\n      tag_63\n      jump\t// in\n    tag_169:\n        /* \"#utility.yul\":6348:6411   */\n      swap2\n      pop\n        /* \"#utility.yul\":6303:6421   */\n      pop\n        /* \"#utility.yul\":5774:6428   */\n      swap3\n      pop\n      swap3\n      swap1\n      pop\n      jump\t// out\n        /* \"#utility.yul\":6434:6614   */\n    tag_79:\n        /* \"#utility.yul\":6482:6559   */\n      0x4e487b7100000000000000000000000000000000000000000000000000000000\n        /* \"#utility.yul\":6479:6480   */\n      0x00\n        /* \"#utility.yul\":6472:6560   */\n      mstore\n        /* \"#utility.yul\":6579:6583   */\n      0x22\n        /* \"#utility.yul\":6576:6577   */\n      0x04\n        /* \"#utility.yul\":6569:6584   */\n      mstore\n        /* \"#utility.yul\":6603:6607   */\n      0x24\n        /* \"#utility.yul\":6600:6601   */\n      0x00\n        /* \"#utility.yul\":6593:6608   */\n      revert\n        /* \"#utility.yul\":6620:6940   */\n    tag_39:\n        /* \"#utility.yul\":6664:6670   */\n      0x00\n        /* \"#utility.yul\":6701:6702   */\n      0x02\n        /* \"#utility.yul\":6695:6699   */\n      dup3\n        /* \"#utility.yul\":6691:6703   */\n      div\n        /* \"#utility.yul\":6681:6703   */\n      swap1\n      pop\n        /* \"#utility.yul\":6748:6749   */\n      0x01\n        /* \"#utility.yul\":6742:6746   */\n      dup3\n        /* \"#utility.yul\":6738:6750   */\n      and\n        /* \"#utility.yul\":6769:6787   */\n      dup1\n        /* \"#utility.yul\":6759:6840   */\n      tag_172\n      jumpi\n        /* \"#utility.yul\":6825:6829   */\n      0x7f\n        /* \"#utility.yul\":6817:6823   */\n      dup3\n        /* \"#utility.yul\":6813:6830   */\n      and\n        /* \"#utility.yul\":6803:6830   */\n      swap2\n      pop\n        /* \"#utility.yul\":6759:6840   */\n    tag_172:\n        /* \"#utility.yul\":6887:6889   */\n      0x20\n        /* \"#utility.yul\":6879:6885   */\n      dup3\n        /* \"#utility.yul\":6876:6890   */\n      lt\n        /* \"#utility.yul\":6856:6874   */\n      dup2\n        /* \"#utility.yul\":6853:6891   */\n      sub\n        /* \"#utility.yul\":6850:6934   */\n      tag_173\n      jumpi\n        /* \"#utility.yul\":6906:6924   */\n      tag_174\n      tag_79\n      jump\t// in\n    tag_174:\n        /* \"#utility.yul\":6850:6934   */\n    tag_173:\n        /* \"#utility.yul\":6671:6940   */\n      pop\n        /* \"#utility.yul\":6620:6940   */\n      swap2\n      swap1\n      pop\n      jump\t// out\n        /* \"#utility.yul\":6946:7087   */\n    tag_80:\n        /* \"#utility.yul\":6995:6999   */\n      0x00\n        /* \"#utility.yul\":7018:7021   */\n      dup2\n        /* \"#utility.yul\":7010:7021   */\n      swap1\n      pop\n        /* \"#utility.yul\":7041:7044   */\n      dup2\n        /* \"#utility.yul\":7038:7039   */\n      0x00\n        /* \"#utility.yul\":7031:7045   */\n      mstore\n        /* \"#utility.yul\":7075:7079   */\n      0x20\n        /* \"#utility.yul\":7072:7073   */\n      0x00\n        /* \"#utility.yul\":7062:7080   */\n      keccak256\n        /* \"#utility.yul\":7054:7080   */\n      swap1\n      pop\n        /* \"#utility.yul\":6946:7087   */\n      swap2\n      swap1\n      pop\n      jump\t// out\n        /* \"#utility.yul\":7093:7186   */\n    tag_81:\n        /* \"#utility.yul\":7130:7136   */\n      0x00\n        /* \"#utility.yul\":7177:7179   */\n      0x20\n        /* \"#utility.yul\":7172:7174   */\n      0x1f\n        /* \"#utility.yul\":7165:7170   */\n      dup4\n        /* \"#utility.yul\":7161:7175   */\n      add\n        /* \"#utility.yul\":7157:7180   */\n      div\n        /* \"#utility.yul\":7147:7180   */\n      swap1\n      pop\n        /* \"#utility.yul\":7093:7186   */\n      swap2\n      swap1\n      pop\n      jump\t// out\n        /* \"#utility.yul\":7192:7299   */\n    tag_82:\n        /* \"#utility.yul\":7236:7244   */\n      0x00\n        /* \"#utility.yul\":7286:7291   */\n      dup3\n        /* \"#utility.yul\":7280:7284   */\n      dup3\n        /* \"#utility.yul\":7276:7292   */\n      shl\n        /* \"#utility.yul\":7255:7292   */\n      swap1\n      pop\n        /* \"#utility.yul\":7192:7299   */\n      swap3\n      swap2\n      pop\n      pop\n      jump\t// out\n        /* \"#utility.yul\":7305:7698   */\n    tag_83:\n        /* \"#utility.yul\":7374:7380   */\n      0x00\n        /* \"#utility.yul\":7424:7425   */\n      0x08\n        /* \"#utility.yul\":7412:7422   */\n      dup4\n        /* \"#utility.yul\":7408:7426   */\n      mul\n        /* \"#utility.yul\":7447:7544   */\n      tag_179\n        /* \"#utility.yul\":7477:7543   */\n      0xffffffffffffffffffffffffffffffffffffffffffffffffffffffffffffffff\n        /* \"#utility.yul\":7466:7475   */\n      dup3\n        /* \"#utility.yul\":7447:7544   */\n      tag_82\n      jump\t// in\n    tag_179:\n        /* \"#utility.yul\":7565:7604   */\n      tag_180\n        /* \"#utility.yul\":7595:7603   */\n      dup7\n        /* \"#utility.yul\":7584:7593   */\n      dup4\n        /* \"#utility.yul\":7565:7604   */\n      tag_82\n      jump\t// in\n    tag_180:\n        /* \"#utility.yul\":7553:7604   */\n      swap6\n      pop\n        /* \"#utility.yul\":7637:7641   */\n      dup1\n        /* \"#utility.yul\":7633:7642   */\n      not\n        /* \"#utility.yul\":7626:7631   */\n      dup5\n        /* \"#utility.yul\":7622:7643   */\n      and\n        /* \"#utility.yul\":7613:7643   */\n      swap4\n      pop\n        /* \"#utility.yul\":7686:7690   */\n      dup1\n        /* \"#utility.yul\":7676:7684   */\n      dup7\n        /* \"#utility.yul\":7672:7691   */\n      and\n        /* \"#utility.yul\":7665:7670   */\n      dup5\n        /* \"#utility.yul\":7662:7692   */\n      or\n        /* \"#utility.yul\":7652:7692   */\n      swap3\n      pop\n        /* \"#utility.yul\":7381:7698   */\n      pop\n      pop\n        /* \"#utility.yul\":7305:7698   */\n      swap4\n      swap3\n      pop\n      pop\n      pop\n      jump\t// out\n        /* \"#utility.yul\":7704:7764   */\n    tag_84:\n        /* \"#utility.yul\":7732:7735   */\n      0x00\n        /* \"#utility.yul\":7753:7758   */\n      dup2\n        /* \"#utility.yul\":7746:7758   */\n      swap1\n      pop\n        /* \"#utility.yul\":7704:7764   */\n      swap2\n      swap1\n      pop\n      jump\t// out\n        /* \"#utility.yul\":7770:7912   */\n    tag_85:\n        /* \"#utility.yul\":7820:7829   */\n      0x00\n        /* \"#utility.yul\":7853:7906   */\n      tag_183\n        /* \"#utility.yul\":7871:7905   */\n      tag_184\n        /* \"#utility.yul\":7880:7904   */\n      tag_185\n        /* \"#utility.yul\":7898:7903   */\n      dup5\n        /* \"#utility.yul\":7880:7904   */\n      tag_61\n      jump\t// in\n    tag_185:\n        /* \"#utility.yul\":7871:7905   */\n      tag_84\n      jump\t// in\n    tag_184:\n        /* \"#utility.yul\":7853:7906   */\n      tag_61\n      jump\t// in\n    tag_183:\n        /* \"#utility.yul\":7840:7906   */\n      swap1\n      pop\n        /* \"#utility.yul\":7770:7912   */\n      swap2\n      swap1\n      pop\n      jump\t// out\n        /* \"#utility.yul\":7918:7993   */\n    tag_86:\n        /* \"#utility.yul\":7961:7964   */\n      0x00\n        /* \"#utility.yul\":7982:7987   */\n      dup2\n        /* \"#utility.yul\":7975:7987   */\n      swap1\n      pop\n        /* \"#utility.yul\":7918:7993   */\n      swap2\n      swap1\n      pop\n      jump\t// out\n        /* \"#utility.yul\":7999:8268   */\n    tag_87:\n        /* \"#utility.yul\":8109:8148   */\n      tag_188\n        /* \"#utility.yul\":8140:8147   */\n      dup4\n        /* \"#utility.yul\":8109:8148   */\n      tag_85\n      jump\t// in\n    tag_188:\n        /* \"#utility.yul\":8170:8261   */\n      tag_189\n        /* \"#utility.yul\":8219:8260   */\n      tag_190\n        /* \"#utility.yul\":8243:8259   */\n      dup3\n        /* \"#utility.yul\":8219:8260   */\n      tag_86\n      jump\t// in\n    tag_190:\n        /* \"#utility.yul\":8211:8217   */\n      dup5\n        /* \"#utility.yul\":8204:8208   */\n      dup5\n        /* \"#utility.yul\":8198:8209   */\n      sload\n        /* \"#utility.yul\":8170:8261   */\n      tag_83\n      jump\t// in\n    tag_189:\n        /* \"#utility.yul\":8164:8168   */\n      dup3\n        /* \"#utility.yul\":8157:8262   */\n      sstore\n        /* \"#utility.yul\":8075:8268   */\n      pop\n        /* \"#utility.yul\":7999:8268   */\n      pop\n      pop\n      pop\n      jump\t// out\n        /* \"#utility.yul\":8274:8347   */\n    tag_88:\n        /* \"#utility.yul\":8319:8322   */\n      0x00\n        /* \"#utility.yul\":8274:8347   */\n      swap1\n      jump\t// out\n        /* \"#utility.yul\":8353:8542   */\n    tag_89:\n        /* \"#utility.yul\":8430:8462   */\n      tag_193\n      tag_88\n      jump\t// in\n    tag_193:\n        /* \"#utility.yul\":8471:8536   */\n      tag_194\n        /* \"#utility.yul\":8529:8535   */\n      dup2\n        /* \"#utility.yul\":8521:8527   */\n      dup5\n        /* \"#utility.yul\":8515:8519   */\n      dup5\n        /* \"#utility.yul\":8471:8536   */\n      tag_87\n      jump\t// in\n    tag_194:\n        /* \"#utility.yul\":8406:8542   */\n      pop\n        /* \"#utility.yul\":8353:8542   */\n      pop\n      pop\n      jump\t// out\n        /* \"#utility.yul\":8548:8734   */\n    tag_90:\n        /* \"#utility.yul\":8608:8728   */\n    tag_196:\n        /* \"#utility.yul\":8625:8628   */\n      dup2\n        /* \"#utility.yul\":8618:8623   */\n      dup2\n        /* \"#utility.yul\":8615:8629   */\n      lt\n        /* \"#utility.yul\":8608:8728   */\n      iszero\n      tag_198\n      jumpi\n        /* \"#utility.yul\":8679:8718   */\n      tag_199\n        /* \"#utility.yul\":8716:8717   */\n      0x00\n        /* \"#utility.yul\":8709:8714   */\n      dup3\n        /* \"#utility.yul\":8679:8718   */\n      tag_89\n      jump\t// in\n    tag_199:\n        /* \"#utility.yul\":8652:8653   */\n      0x01\n        /* \"#utility.yul\":8645:8650   */\n      dup2\n        /* \"#utility.yul\":8641:8654   */\n      add\n        /* \"#utility.yul\":8632:8654   */\n      swap1\n      pop\n        /* \"#utility.yul\":8608:8728   */\n      jump(tag_196)\n    tag_198:\n        /* \"#utility.yul\":8548:8734   */\n      pop\n      pop\n      jump\t// out\n        /* \"#utility.yul\":8740:9283   */\n    tag_91:\n        /* \"#utility.yul\":8841:8843   */\n      0x1f\n        /* \"#utility.yul\":8836:8839   */\n      dup3\n        /* \"#utility.yul\":8833:8844   */\n      gt\n        /* \"#utility.yul\":8830:9276   */\n      iszero\n      tag_201\n      jumpi\n        /* \"#utility.yul\":8875:8913   */\n      tag_202\n        /* \"#utility.yul\":8907:8912   */\n      dup2\n        /* \"#utility.yul\":8875:8913   */\n      tag_80\n      jump\t// in\n    tag_202:\n        /* \"#utility.yul\":8959:8988   */\n      tag_203\n        /* \"#utility.yul\":8977:8987   */\n      dup5\n        /* \"#utility.yul\":8959:8988   */\n      tag_81\n      jump\t// in\n    tag_203:\n        /* \"#utility.yul\":8949:8957   */\n      dup2\n        /* \"#utility.yul\":8945:8989   */\n      add\n        /* \"#utility.yul\":9142:9144   */\n      0x20\n        /* \"#utility.yul\":9130:9140   */\n      dup6\n        /* \"#utility.yul\":9127:9145   */\n      lt\n        /* \"#utility.yul\":9124:9173   */\n      iszero\n      tag_204\n      jumpi\n        /* \"#utility.yul\":9163:9171   */\n      dup2\n        /* \"#utility.yul\":9148:9171   */\n      swap1\n      pop\n        /* \"#utility.yul\":9124:9173   */\n    tag_204:\n        /* \"#utility.yul\":9186:9266   */\n      tag_205\n        /* \"#utility.yul\":9242:9264   */\n      tag_206\n        /* \"#utility.yul\":9260:9263   */\n      dup6\n        /* \"#utility.yul\":9242:9264   */\n      tag_81\n      jump\t// in\n    tag_206:\n        /* \"#utility.yul\":9232:9240   */\n      dup4\n        /* \"#utility.yul\":9228:9265   */\n      add\n        /* \"#utility.yul\":9215:9226   */\n      dup3\n        /* \"#utility.yul\":9186:9266   */\n      tag_90\n      jump\t// in\n    tag_205:\n        /* \"#utility.yul\":8845:9276   */\n      pop\n      pop\n        /* \"#utility.yul\":8830:9276   */\n    tag_201:\n        /* \"#utility.yul\":8740:9283   */\n      pop\n      pop\n      pop\n      jump\t// out\n        /* \"#utility.yul\":9289:9406   */\n    tag_92:\n        /* \"#utility.yul\":9343:9351   */\n      0x00\n        /* \"#utility.yul\":9393:9398   */\n      dup3\n        /* \"#utility.yul\":9387:9391   */\n      dup3\n        /* \"#utility.yul\":9383:9399   */\n      shr\n        /* \"#utility.yul\":9362:9399   */\n      swap1\n      pop\n        /* \"#utility.yul\":9289:9406   */\n      swap3\n      swap2\n      pop\n      pop\n      jump\t// out\n        /* \"#utility.yul\":9412:9581   */\n    tag_93:\n        /* \"#utility.yul\":9456:9462   */\n      0x00\n        /* \"#utility.yul\":9489:9540   */\n      tag_209\n        /* \"#utility.yul\":9537:9538   */\n      0x00\n        /* \"#utility.yul\":9533:9539   */\n      not\n        /* \"#utility.yul\":9525:9530   */\n      dup5\n        /* \"#utility.yul\":9522:9523   */\n      0x08\n        /* \"#utility.yul\":9518:9531   */\n      mul\n        /* \"#utility.yul\":9489:9540   */\n      tag_92\n      jump\t// in\n    tag_209:\n        /* \"#utility.yul\":9485:9541   */\n      not\n        /* \"#utility.yul\":9570:9574   */\n      dup1\n        /* \"#utility.yul\":9564:9568   */\n      dup4\n        /* \"#utility.yul\":9560:9575   */\n      and\n        /* \"#utility.yul\":9550:9575   */\n      swap2\n      pop\n        /* \"#utility.yul\":9463:9581   */\n      pop\n        /* \"#utility.yul\":9412:9581   */\n      swap3\n      swap2\n      pop\n      pop\n      jump\t// out\n        /* \"#utility.yul\":9586:9881   */\n    tag_94:\n        /* \"#utility.yul\":9662:9666   */\n      0x00\n        /* \"#utility.yul\":9808:9837   */\n      tag_211\n        /* \"#utility.yul\":9833:9836   */\n      dup4\n        /* \"#utility.yul\":9827:9831   */\n      dup4\n        /* \"#utility.yul\":9808:9837   */\n      tag_93\n      jump\t// in\n    tag_211:\n        /* \"#utility.yul\":9800:9837   */\n      swap2\n      pop\n        /* \"#utility.yul\":9870:9873   */\n      dup3\n        /* \"#utility.yul\":9867:9868   */\n      0x02\n        /* \"#utility.yul\":9863:9874   */\n      mul\n        /* \"#utility.yul\":9857:9861   */\n      dup3\n        /* \"#utility.yul\":9854:9875   */\n      or\n        /* \"#utility.yul\":9846:9875   */\n      swap1\n      pop\n        /* \"#utility.yul\":9586:9881   */\n      swap3\n      swap2\n      pop\n      pop\n      jump\t// out\n        /* \"#utility.yul\":9886:11281   */\n    tag_54:\n        /* \"#utility.yul\":10003:10040   */\n      tag_213\n        /* \"#utility.yul\":10036:10039   */\n      dup3\n        /* \"#utility.yul\":10003:10040   */\n      tag_65\n      jump\t// in\n    tag_213:\n        /* \"#utility.yul\":10105:10123   */\n      0xffffffffffffffff\n        /* \"#utility.yul\":10097:10103   */\n      dup2\n        /* \"#utility.yul\":10094:10124   */\n      gt\n        /* \"#utility.yul\":10091:10147   */\n      iszero\n      tag_214\n      jumpi\n        /* \"#utility.yul\":10127:10145   */\n      tag_215\n      tag_72\n      jump\t// in\n    tag_215:\n        /* \"#utility.yul\":10091:10147   */\n    tag_214:\n        /* \"#utility.yul\":10171:10209   */\n      tag_216\n        /* \"#utility.yul\":10203:10207   */\n      dup3\n        /* \"#utility.yul\":10197:10208   */\n      sload\n        /* \"#utility.yul\":10171:10209   */\n      tag_39\n      jump\t// in\n    tag_216:\n        /* \"#utility.yul\":10256:10323   */\n      tag_217\n        /* \"#utility.yul\":10316:10322   */\n      dup3\n        /* \"#utility.yul\":10308:10314   */\n      dup3\n        /* \"#utility.yul\":10302:10306   */\n      dup6\n        /* \"#utility.yul\":10256:10323   */\n      tag_91\n      jump\t// in\n    tag_217:\n        /* \"#utility.yul\":10350:10351   */\n      0x00\n        /* \"#utility.yul\":10374:10378   */\n      0x20\n        /* \"#utility.yul\":10361:10378   */\n      swap1\n      pop\n        /* \"#utility.yul\":10406:10408   */\n      0x1f\n        /* \"#utility.yul\":10398:10404   */\n      dup4\n        /* \"#utility.yul\":10395:10409   */\n      gt\n        /* \"#utility.yul\":10423:10424   */\n      0x01\n        /* \"#utility.yul\":10418:11036   */\n      dup2\n      eq\n      tag_219\n      jumpi\n        /* \"#utility.yul\":11080:11081   */\n      0x00\n        /* \"#utility.yul\":11097:11103   */\n      dup5\n        /* \"#utility.yul\":11094:11171   */\n      iszero\n      tag_220\n      jumpi\n        /* \"#utility.yul\":11146:11155   */\n      dup3\n        /* \"#utility.yul\":11141:11144   */\n      dup8\n        /* \"#utility.yul\":11137:11156   */\n      add\n        /* \"#utility.yul\":11131:11157   */\n      mload\n        /* \"#utility.yul\":11122:11157   */\n      swap1\n      pop\n        /* \"#utility.yul\":11094:11171   */\n    tag_220:\n        /* \"#utility.yul\":11197:11264   */\n      tag_221\n        /* \"#utility.yul\":11257:11263   */\n      dup6\n        /* \"#utility.yul\":11250:11255   */\n      dup3\n        /* \"#utility.yul\":11197:11264   */\n      tag_94\n      jump\t// in\n    tag_221:\n        /* \"#utility.yul\":11191:11195   */\n      dup7\n        /* \"#utility.yul\":11184:11265   */\n      sstore\n        /* \"#utility.yul\":11053:11275   */\n      pop\n        /* \"#utility.yul\":10388:11275   */\n      jump(tag_218)\n        /* \"#utility.yul\":10418:11036   */\n    tag_219:\n        /* \"#utility.yul\":10470:10474   */\n      0x1f\n        /* \"#utility.yul\":10466:10475   */\n      not\n        /* \"#utility.yul\":10458:10464   */\n      dup5\n        /* \"#utility.yul\":10454:10476   */\n      and\n        /* \"#utility.yul\":10504:10541   */\n      tag_222\n        /* \"#utility.yul\":10536:10540   */\n      dup7\n        /* \"#utility.yul\":10504:10541   */\n      tag_80\n      jump\t// in\n    tag_222:\n        /* \"#utility.yul\":10563:10564   */\n      0x00\n        /* \"#utility.yul\":10577:10785   */\n    tag_223:\n        /* \"#utility.yul\":10591:10598   */\n      dup3\n        /* \"#utility.yul\":10588:10589   */\n      dup2\n        /* \"#utility.yul\":10585:10599   */\n      lt\n        /* \"#utility.yul\":10577:10785   */\n      iszero\n      tag_225\n      jumpi\n        /* \"#utility.yul\":10670:10679   */\n      dup5\n        /* \"#utility.yul\":10665:10668   */\n      dup10\n        /* \"#utility.yul\":10661:10680   */\n      add\n        /* \"#utility.yul\":10655:10681   */\n      mload\n        /* \"#utility.yul\":10647:10653   */\n      dup3\n        /* \"#utility.yul\":10640:10682   */\n      sstore\n        /* \"#utility.yul\":10721:10722   */\n      0x01\n        /* \"#utility.yul\":10713:10719   */\n      dup3\n        /* \"#utility.yul\":10709:10723   */\n      add\n        /* \"#utility.yul\":10699:10723   */\n      swap2\n      pop\n        /* \"#utility.yul\":10768:10770   */\n      0x20\n        /* \"#utility.yul\":10757:10766   */\n      dup6\n        /* \"#utility.yul\":10753:10771   */\n      add\n        /* \"#utility.yul\":10740:10771   */\n      swap5\n      pop\n        /* \"#utility.yul\":10614:10618   */\n      0x20\n        /* \"#utility.yul\":10611:10612   */\n      dup2\n        /* \"#utility.yul\":10607:10619   */\n      add\n        /* \"#utility.yul\":10602:10619   */\n      swap1\n      pop\n        /* \"#utility.yul\":10577:10785   */\n      jump(tag_223)\n    tag_225:\n        /* \"#utility.yul\":10813:10819   */\n      dup7\n        /* \"#utility.yul\":10804:10811   */\n      dup4\n        /* \"#utility.yul\":10801:10820   */\n      lt\n        /* \"#utility.yul\":10798:10977   */\n      iszero\n      tag_226\n      jumpi\n        /* \"#utility.yul\":10871:10880   */\n      dup5\n        /* \"#utility.yul\":10866:10869   */\n      dup10\n        /* \"#utility.yul\":10862:10881   */\n      add\n        /* \"#utility.yul\":10856:10882   */\n      mload\n        /* \"#utility.yul\":10914:10962   */\n      tag_227\n        /* \"#utility.yul\":10956:10960   */\n      0x1f\n        /* \"#utility.yul\":10948:10954   */\n      dup10\n        /* \"#utility.yul\":10944:10961   */\n      and\n        /* \"#utility.yul\":10933:10942   */\n      dup3\n        /* \"#utility.yul\":10914:10962   */\n      tag_93\n      jump\t// in\n    tag_227:\n        /* \"#utility.yul\":10906:10912   */\n      dup4\n        /* \"#utility.yul\":10899:10963   */\n      sstore\n        /* \"#utility.yul\":10821:10977   */\n      pop\n        /* \"#utility.yul\":10798:10977   */\n    tag_226:\n        /* \"#utility.yul\":11023:11024   */\n      0x01\n        /* \"#utility.yul\":11019:11020   */\n      0x02\n        /* \"#utility.yul\":11011:11017   */\n      dup9\n        /* \"#utility.yul\":11007:11021   */\n      mul\n        /* \"#utility.yul\":11003:11025   */\n      add\n        /* \"#utility.yul\":10997:11001   */\n      dup9\n        /* \"#utility.yul\":10990:11026   */\n      sstore\n        /* \"#utility.yul\":10425:11036   */\n      pop\n      pop\n      pop\n        /* \"#utility.yul\":10388:11275   */\n    tag_218:\n      pop\n        /* \"#utility.yul\":9978:11281   */\n      pop\n      pop\n      pop\n        /* \"#utility.yul\":9886:11281   */\n      pop\n      pop\n      jump\t// out\n        /* \"#utility.yul\":11287:11435   */\n    tag_95:\n        /* \"#utility.yul\":11389:11400   */\n      0x00\n        /* \"#utility.yul\":11426:11429   */\n      dup2\n        /* \"#utility.yul\":11411:11429   */\n      swap1\n      pop\n        /* \"#utility.yul\":11287:11435   */\n      swap3\n      swap2\n      pop\n      pop\n      jump\t// out\n        /* \"#utility.yul\":11441:11831   */\n    tag_96:\n        /* \"#utility.yul\":11547:11550   */\n      0x00\n        /* \"#utility.yul\":11575:11614   */\n      tag_230\n        /* \"#utility.yul\":11608:11613   */\n      dup3\n        /* \"#utility.yul\":11575:11614   */\n      tag_65\n      jump\t// in\n    tag_230:\n        /* \"#utility.yul\":11630:11719   */\n      tag_231\n        /* \"#utility.yul\":11712:11718   */\n      dup2\n        /* \"#utility.yul\":11707:11710   */\n      dup6\n        /* \"#utility.yul\":11630:11719   */\n      tag_95\n      jump\t// in\n    tag_231:\n        /* \"#utility.yul\":11623:11719   */\n      swap4\n      pop\n        /* \"#utility.yul\":11728:11793   */\n      tag_232\n        /* \"#utility.yul\":11786:11792   */\n      dup2\n        /* \"#utility.yul\":11781:11784   */\n      dup6\n        /* \"#utility.yul\":11774:11778   */\n      0x20\n        /* \"#utility.yul\":11767:11772   */\n      dup7\n        /* \"#utility.yul\":11763:11779   */\n      add\n        /* \"#utility.yul\":11728:11793   */\n      tag_67\n      jump\t// in\n    tag_232:\n        /* \"#utility.yul\":11818:11824   */\n      dup1\n        /* \"#utility.yul\":11813:11816   */\n      dup5\n        /* \"#utility.yul\":11809:11825   */\n      add\n        /* \"#utility.yul\":11802:11825   */\n      swap2\n      pop\n        /* \"#utility.yul\":11551:11831   */\n      pop\n        /* \"#utility.yul\":11441:11831   */\n      swap3\n      swap2\n      pop\n      pop\n      jump\t// out\n        /* \"#utility.yul\":11837:12112   */\n    tag_56:\n        /* \"#utility.yul\":11969:11972   */\n      0x00\n        /* \"#utility.yul\":11991:12086   */\n      tag_234\n        /* \"#utility.yul\":12082:12085   */\n      dup3\n        /* \"#utility.yul\":12073:12079   */\n      dup5\n        /* \"#utility.yul\":11991:12086   */\n      tag_96\n      jump\t// in\n    tag_234:\n        /* \"#utility.yul\":11984:12086   */\n      swap2\n      pop\n        /* \"#utility.yul\":12103:12106   */\n      dup2\n        /* \"#utility.yul\":12096:12106   */\n      swap1\n      pop\n        /* \"#utility.yul\":11837:12112   */\n      swap3\n      swap2\n      pop\n      pop\n      jump\t// out\n\n    auxdata: 0xa26469706673582212208c58ab2bfcfed6ada6f28defd890d74ae3cd3cf3e0c924e479b475c8ff08072664736f6c63430008180033\n}\n",
				"bytecode": {
					"linkReferences": {},
					"object": "608060405234801561000f575f80fd5b50610a0c8061001d5f395ff3fe608060405234801561000f575f80fd5b5060043610610060575f3560e01c80632e5effac146100645780632e64cec114610095578063397a01f9146100b35780635d19f424146100e35780636057361d146101135780636f760f411461012f575b5f80fd5b61007e600480360381019061007991906103c5565b61014b565b60405161008c929190610489565b60405180910390f35b61009d610200565b6040516100aa91906104b7565b60405180910390f35b6100cd60048036038101906100c891906103c5565b610208565b6040516100da91906104d0565b60405180910390f35b6100fd60048036038101906100f8919061061c565b6102a3565b60405161010a91906104b7565b60405180910390f35b61012d600480360381019061012891906103c5565b6102d0565b005b61014960048036038101906101449190610663565b6102d9565b005b6001818154811061015a575f80fd5b905f5260205f2090600202015f91509050805f01549080600101805461017f906106ea565b80601f01602080910402602001604051908101604052809291908181526020018280546101ab906106ea565b80156101f65780601f106101cd576101008083540402835291602001916101f6565b820191905f5260205f20905b8154815290600101906020018083116101d957829003601f168201915b5050505050905082565b5f8054905090565b6003602052805f5260405f205f915090508054610224906106ea565b80601f0160208091040260200160405190810160405280929190818152602001828054610250906106ea565b801561029b5780601f106102725761010080835404028352916020019161029b565b820191905f5260205f20905b81548152906001019060200180831161027e57829003601f168201915b505050505081565b6002818051602081018201805184825260208301602085012081835280955050505050505f915090505481565b805f8190555050565b5f6040518060400160405280838152602001848152509050600181908060018154018082558091505060019003905f5260205f2090600202015f909190919091505f820151815f0155602082015181600101908161033791906108b7565b5050508160028460405161034b91906109c0565b9081526020016040518091039020819055508260035f8481526020019081526020015f20908161037b91906108b7565b50505050565b5f604051905090565b5f80fd5b5f80fd5b5f819050919050565b6103a481610392565b81146103ae575f80fd5b50565b5f813590506103bf8161039b565b92915050565b5f602082840312156103da576103d961038a565b5b5f6103e7848285016103b1565b91505092915050565b6103f981610392565b82525050565b5f81519050919050565b5f82825260208201905092915050565b5f5b8381101561043657808201518184015260208101905061041b565b5f8484015250505050565b5f601f19601f8301169050919050565b5f61045b826103ff565b6104658185610409565b9350610475818560208601610419565b61047e81610441565b840191505092915050565b5f60408201905061049c5f8301856103f0565b81810360208301526104ae8184610451565b90509392505050565b5f6020820190506104ca5f8301846103f0565b92915050565b5f6020820190508181035f8301526104e88184610451565b905092915050565b5f80fd5b5f80fd5b7f4e487b71000000000000000000000000000000000000000000000000000000005f52604160045260245ffd5b61052e82610441565b810181811067ffffffffffffffff8211171561054d5761054c6104f8565b5b80604052505050565b5f61055f610381565b905061056b8282610525565b919050565b5f67ffffffffffffffff82111561058a576105896104f8565b5b61059382610441565b9050602081019050919050565b828183375f83830152505050565b5f6105c06105bb84610570565b610556565b9050828152602081018484840111156105dc576105db6104f4565b5b6105e78482856105a0565b509392505050565b5f82601f830112610603576106026104f0565b5b81356106138482602086016105ae565b91505092915050565b5f602082840312156106315761063061038a565b5b5f82013567ffffffffffffffff81111561064e5761064d61038e565b5b61065a848285016105ef565b91505092915050565b5f80604083850312156106795761067861038a565b5b5f83013567ffffffffffffffff8111156106965761069561038e565b5b6106a2858286016105ef565b92505060206106b3858286016103b1565b9150509250929050565b7f4e487b71000000000000000000000000000000000000000000000000000000005f52602260045260245ffd5b5f600282049050600182168061070157607f821691505b602082108103610714576107136106bd565b5b50919050565b5f819050815f5260205f209050919050565b5f6020601f8301049050919050565b5f82821b905092915050565b5f600883026107767fffffffffffffffffffffffffffffffffffffffffffffffffffffffffffffffff8261073b565b610780868361073b565b95508019841693508086168417925050509392505050565b5f819050919050565b5f6107bb6107b66107b184610392565b610798565b610392565b9050919050565b5f819050919050565b6107d4836107a1565b6107e86107e0826107c2565b848454610747565b825550505050565b5f90565b6107fc6107f0565b6108078184846107cb565b505050565b5b8181101561082a5761081f5f826107f4565b60018101905061080d565b5050565b601f82111561086f576108408161071a565b6108498461072c565b81016020851015610858578190505b61086c6108648561072c565b83018261080c565b50505b505050565b5f82821c905092915050565b5f61088f5f1984600802610874565b1980831691505092915050565b5f6108a78383610880565b9150826002028217905092915050565b6108c0826103ff565b67ffffffffffffffff8111156108d9576108d86104f8565b5b6108e382546106ea565b6108ee82828561082e565b5f60209050601f83116001811461091f575f841561090d578287015190505b610917858261089c565b86555061097e565b601f19841661092d8661071a565b5f5b828110156109545784890151825560018201915060208501945060208101905061092f565b86831015610971578489015161096d601f891682610880565b8355505b6001600288020188555050505b505050505050565b5f81905092915050565b5f61099a826103ff565b6109a48185610986565b93506109b4818560208601610419565b80840191505092915050565b5f6109cb8284610990565b91508190509291505056fea26469706673582212208c58ab2bfcfed6ada6f28defd890d74ae3cd3cf3e0c924e479b475c8ff08072664736f6c63430008180033",
					"opcodes": "PUSH1 0x80 PUSH1 0x40 MSTORE CALLVALUE DUP1 ISZERO PUSH2 0xF JUMPI PUSH0 DUP1 REVERT JUMPDEST POP PUSH2 0xA0C DUP1 PUSH2 0x1D PUSH0 CODECOPY PUSH0 RETURN INVALID PUSH1 0x80 PUSH1 0x40 MSTORE CALLVALUE DUP1 ISZERO PUSH2 0xF JUMPI PUSH0 DUP1 REVERT JUMPDEST POP PUSH1 0x4 CALLDATASIZE LT PUSH2 0x60 JUMPI PUSH0 CALLDATALOAD PUSH1 0xE0 SHR DUP1 PUSH4 0x2E5EFFAC EQ PUSH2 0x64 JUMPI DUP1 PUSH4 0x2E64CEC1 EQ PUSH2 0x95 JUMPI DUP1 PUSH4 0x397A01F9 EQ PUSH2 0xB3 JUMPI DUP1 PUSH4 0x5D19F424 EQ PUSH2 0xE3 JUMPI DUP1 PUSH4 0x6057361D EQ PUSH2 0x113 JUMPI DUP1 PUSH4 0x6F760F41 EQ PUSH2 0x12F JUMPI JUMPDEST PUSH0 DUP1 REVERT JUMPDEST PUSH2 0x7E PUSH1 0x4 DUP1 CALLDATASIZE SUB DUP2 ADD SWAP1 PUSH2 0x79 SWAP2 SWAP1 PUSH2 0x3C5 JUMP JUMPDEST PUSH2 0x14B JUMP JUMPDEST PUSH1 0x40 MLOAD PUSH2 0x8C SWAP3 SWAP2 SWAP1 PUSH2 0x489 JUMP JUMPDEST PUSH1 0x40 MLOAD DUP1 SWAP2 SUB SWAP1 RETURN JUMPDEST PUSH2 0x9D PUSH2 0x200 JUMP JUMPDEST PUSH1 0x40 MLOAD PUSH2 0xAA SWAP2 SWAP1 PUSH2 0x4B7 JUMP JUMPDEST PUSH1 0x40 MLOAD DUP1 SWAP2 SUB SWAP1 RETURN JUMPDEST PUSH2 0xCD PUSH1 0x4 DUP1 CALLDATASIZE SUB DUP2 ADD SWAP1 PUSH2 0xC8 SWAP2 SWAP1 PUSH2 0x3C5 JUMP JUMPDEST PUSH2 0x208 JUMP JUMPDEST PUSH1 0x40 MLOAD PUSH2 0xDA SWAP2 SWAP1 PUSH2 0x4D0 JUMP JUMPDEST PUSH1 0x40 MLOAD DUP1 SWAP2 SUB SWAP1 RETURN JUMPDEST PUSH2 0xFD PUSH1 0x4 DUP1 CALLDATASIZE SUB DUP2 ADD SWAP1 PUSH2 0xF8 SWAP2 SWAP1 PUSH2 0x61C JUMP JUMPDEST PUSH2 0x2A3 JUMP JUMPDEST PUSH1 0x40 MLOAD PUSH2 0x10A SWAP2 SWAP1 PUSH2 0x4B7 JUMP JUMPDEST PUSH1 0x40 MLOAD DUP1 SWAP2 SUB SWAP1 RETURN JUMPDEST PUSH2 0x12D PUSH1 0x4 DUP1 CALLDATASIZE SUB DUP2 ADD SWAP1 PUSH2 0x128 SWAP2 SWAP1 PUSH2 0x3C5 JUMP JUMPDEST PUSH2 0x2D0 JUMP JUMPDEST STOP JUMPDEST PUSH2 0x149 PUSH1 0x4 DUP1 CALLDATASIZE SUB DUP2 ADD SWAP1 PUSH2 0x144 SWAP2 SWAP1 PUSH2 0x663 JUMP JUMPDEST PUSH2 0x2D9 JUMP JUMPDEST STOP JUMPDEST PUSH1 0x1 DUP2 DUP2 SLOAD DUP2 LT PUSH2 0x15A JUMPI PUSH0 DUP1 REVERT JUMPDEST SWAP1 PUSH0 MSTORE PUSH1 0x20 PUSH0 KECCAK256 SWAP1 PUSH1 0x2 MUL ADD PUSH0 SWAP2 POP SWAP1 POP DUP1 PUSH0 ADD SLOAD SWAP1 DUP1 PUSH1 0x1 ADD DUP1 SLOAD PUSH2 0x17F SWAP1 PUSH2 0x6EA JUMP JUMPDEST DUP1 PUSH1 0x1F ADD PUSH1 0x20 DUP1 SWAP2 DIV MUL PUSH1 0x20 ADD PUSH1 0x40 MLOAD SWAP1 DUP2 ADD PUSH1 0x40 MSTORE DUP1 SWAP3 SWAP2 SWAP1 DUP2 DUP2 MSTORE PUSH1 0x20 ADD DUP3 DUP1 SLOAD PUSH2 0x1AB SWAP1 PUSH2 0x6EA JUMP JUMPDEST DUP1 ISZERO PUSH2 0x1F6 JUMPI DUP1 PUSH1 0x1F LT PUSH2 0x1CD JUMPI PUSH2 0x100 DUP1 DUP4 SLOAD DIV MUL DUP4 MSTORE SWAP2 PUSH1 0x20 ADD SWAP2 PUSH2 0x1F6 JUMP JUMPDEST DUP3 ADD SWAP2 SWAP1 PUSH0 MSTORE PUSH1 0x20 PUSH0 KECCAK256 SWAP1 JUMPDEST DUP2 SLOAD DUP2 MSTORE SWAP1 PUSH1 0x1 ADD SWAP1 PUSH1 0x20 ADD DUP1 DUP4 GT PUSH2 0x1D9 JUMPI DUP3 SWAP1 SUB PUSH1 0x1F AND DUP3 ADD SWAP2 JUMPDEST POP POP POP POP POP SWAP1 POP DUP3 JUMP JUMPDEST PUSH0 DUP1 SLOAD SWAP1 POP SWAP1 JUMP JUMPDEST PUSH1 0x3 PUSH1 0x20 MSTORE DUP1 PUSH0 MSTORE PUSH1 0x40 PUSH0 KECCAK256 PUSH0 SWAP2 POP SWAP1 POP DUP1 SLOAD PUSH2 0x224 SWAP1 PUSH2 0x6EA JUMP JUMPDEST DUP1 PUSH1 0x1F ADD PUSH1 0x20 DUP1 SWAP2 DIV MUL PUSH1 0x20 ADD PUSH1 0x40 MLOAD SWAP1 DUP2 ADD PUSH1 0x40 MSTORE DUP1 SWAP3 SWAP2 SWAP1 DUP2 DUP2 MSTORE PUSH1 0x20 ADD DUP3 DUP1 SLOAD PUSH2 0x250 SWAP1 PUSH2 0x6EA JUMP JUMPDEST DUP1 ISZERO PUSH2 0x29B JUMPI DUP1 PUSH1 0x1F LT PUSH2 0x272 JUMPI PUSH2 0x100 DUP1 DUP4 SLOAD DIV MUL DUP4 MSTORE SWAP2 PUSH1 0x20 ADD SWAP2 PUSH2 0x29B JUMP JUMPDEST DUP3 ADD SWAP2 SWAP1 PUSH0 MSTORE PUSH1 0x20 PUSH0 KECCAK256 SWAP1 JUMPDEST DUP2 SLOAD DUP2 MSTORE SWAP1 PUSH1 0x1 ADD SWAP1 PUSH1 0x20 ADD DUP1 DUP4 GT PUSH2 0x27E JUMPI DUP3 SWAP1 SUB PUSH1 0x1F AND DUP3 ADD SWAP2 JUMPDEST POP POP POP POP POP DUP2 JUMP JUMPDEST PUSH1 0x2 DUP2 DUP1 MLOAD PUSH1 0x20 DUP2 ADD DUP3 ADD DUP1 MLOAD DUP5 DUP3 MSTORE PUSH1 0x20 DUP4 ADD PUSH1 0x20 DUP6 ADD KECCAK256 DUP2 DUP4 MSTORE DUP1 SWAP6 POP POP POP POP POP POP PUSH0 SWAP2 POP SWAP1 POP SLOAD DUP2 JUMP JUMPDEST DUP1 PUSH0 DUP2 SWAP1 SSTORE POP POP JUMP JUMPDEST PUSH0 PUSH1 0x40 MLOAD DUP1 PUSH1 0x40 ADD PUSH1 0x40 MSTORE DUP1 DUP4 DUP2 MSTORE PUSH1 0x20 ADD DUP5 DUP2 MSTORE POP SWAP1 POP PUSH1 0x1 DUP2 SWAP1 DUP1 PUSH1 0x1 DUP2 SLOAD ADD DUP1 DUP3 SSTORE DUP1 SWAP2 POP POP PUSH1 0x1 SWAP1 SUB SWAP1 PUSH0 MSTORE PUSH1 0x20 PUSH0 KECCAK256 SWAP1 PUSH1 0x2 MUL ADD PUSH0 SWAP1 SWAP2 SWAP1 SWAP2 SWAP1 SWAP2 POP PUSH0 DUP3 ADD MLOAD DUP2 PUSH0 ADD SSTORE PUSH1 0x20 DUP3 ADD MLOAD DUP2 PUSH1 0x1 ADD SWAP1 DUP2 PUSH2 0x337 SWAP2 SWAP1 PUSH2 0x8B7 JUMP JUMPDEST POP POP POP DUP2 PUSH1 0x2 DUP5 PUSH1 0x40 MLOAD PUSH2 0x34B SWAP2 SWAP1 PUSH2 0x9C0 JUMP JUMPDEST SWAP1 DUP2 MSTORE PUSH1 0x20 ADD PUSH1 0x40 MLOAD DUP1 SWAP2 SUB SWAP1 KECCAK256 DUP2 SWAP1 SSTORE POP DUP3 PUSH1 0x3 PUSH0 DUP5 DUP2 MSTORE PUSH1 0x20 ADD SWAP1 DUP2 MSTORE PUSH1 0x20 ADD PUSH0 KECCAK256 SWAP1 DUP2 PUSH2 0x37B SWAP2 SWAP1 PUSH2 0x8B7 JUMP JUMPDEST POP POP POP POP JUMP JUMPDEST PUSH0 PUSH1 0x40 MLOAD SWAP1 POP SWAP1 JUMP JUMPDEST PUSH0 DUP1 REVERT JUMPDEST PUSH0 DUP1 REVERT JUMPDEST PUSH0 DUP2 SWAP1 POP SWAP2 SWAP1 POP JUMP JUMPDEST PUSH2 0x3A4 DUP2 PUSH2 0x392 JUMP JUMPDEST DUP2 EQ PUSH2 0x3AE JUMPI PUSH0 DUP1 REVERT JUMPDEST POP JUMP JUMPDEST PUSH0 DUP2 CALLDATALOAD SWAP1 POP PUSH2 0x3BF DUP2 PUSH2 0x39B JUMP JUMPDEST SWAP3 SWAP2 POP POP JUMP JUMPDEST PUSH0 PUSH1 0x20 DUP3 DUP5 SUB SLT ISZERO PUSH2 0x3DA JUMPI PUSH2 0x3D9 PUSH2 0x38A JUMP JUMPDEST JUMPDEST PUSH0 PUSH2 0x3E7 DUP5 DUP3 DUP6 ADD PUSH2 0x3B1 JUMP JUMPDEST SWAP2 POP POP SWAP3 SWAP2 POP POP JUMP JUMPDEST PUSH2 0x3F9 DUP2 PUSH2 0x392 JUMP JUMPDEST DUP3 MSTORE POP POP JUMP JUMPDEST PUSH0 DUP2 MLOAD SWAP1 POP SWAP2 SWAP1 POP JUMP JUMPDEST PUSH0 DUP3 DUP3 MSTORE PUSH1 0x20 DUP3 ADD SWAP1 POP SWAP3 SWAP2 POP POP JUMP JUMPDEST PUSH0 JUMPDEST DUP4 DUP2 LT ISZERO PUSH2 0x436 JUMPI DUP1 DUP3 ADD MLOAD DUP2 DUP5 ADD MSTORE PUSH1 0x20 DUP2 ADD SWAP1 POP PUSH2 0x41B JUMP JUMPDEST PUSH0 DUP5 DUP5 ADD MSTORE POP POP POP POP JUMP JUMPDEST PUSH0 PUSH1 0x1F NOT PUSH1 0x1F DUP4 ADD AND SWAP1 POP SWAP2 SWAP1 POP JUMP JUMPDEST PUSH0 PUSH2 0x45B DUP3 PUSH2 0x3FF JUMP JUMPDEST PUSH2 0x465 DUP2 DUP6 PUSH2 0x409 JUMP JUMPDEST SWAP4 POP PUSH2 0x475 DUP2 DUP6 PUSH1 0x20 DUP7 ADD PUSH2 0x419 JUMP JUMPDEST PUSH2 0x47E DUP2 PUSH2 0x441 JUMP JUMPDEST DUP5 ADD SWAP2 POP POP SWAP3 SWAP2 POP POP JUMP JUMPDEST PUSH0 PUSH1 0x40 DUP3 ADD SWAP1 POP PUSH2 0x49C PUSH0 DUP4 ADD DUP6 PUSH2 0x3F0 JUMP JUMPDEST DUP2 DUP2 SUB PUSH1 0x20 DUP4 ADD MSTORE PUSH2 0x4AE DUP2 DUP5 PUSH2 0x451 JUMP JUMPDEST SWAP1 POP SWAP4 SWAP3 POP POP POP JUMP JUMPDEST PUSH0 PUSH1 0x20 DUP3 ADD SWAP1 POP PUSH2 0x4CA PUSH0 DUP4 ADD DUP5 PUSH2 0x3F0 JUMP JUMPDEST SWAP3 SWAP2 POP POP JUMP JUMPDEST PUSH0 PUSH1 0x20 DUP3 ADD SWAP1 POP DUP2 DUP2 SUB PUSH0 DUP4 ADD MSTORE PUSH2 0x4E8 DUP2 DUP5 PUSH2 0x451 JUMP JUMPDEST SWAP1 POP SWAP3 SWAP2 POP POP JUMP JUMPDEST PUSH0 DUP1 REVERT JUMPDEST PUSH0 DUP1 REVERT JUMPDEST PUSH32 0x4E487B7100000000000000000000000000000000000000000000000000000000 PUSH0 MSTORE PUSH1 0x41 PUSH1 0x4 MSTORE PUSH1 0x24 PUSH0 REVERT JUMPDEST PUSH2 0x52E DUP3 PUSH2 0x441 JUMP JUMPDEST DUP2 ADD DUP2 DUP2 LT PUSH8 0xFFFFFFFFFFFFFFFF DUP3 GT OR ISZERO PUSH2 0x54D JUMPI PUSH2 0x54C PUSH2 0x4F8 JUMP JUMPDEST JUMPDEST DUP1 PUSH1 0x40 MSTORE POP POP POP JUMP JUMPDEST PUSH0 PUSH2 0x55F PUSH2 0x381 JUMP JUMPDEST SWAP1 POP PUSH2 0x56B DUP3 DUP3 PUSH2 0x525 JUMP JUMPDEST SWAP2 SWAP1 POP JUMP JUMPDEST PUSH0 PUSH8 0xFFFFFFFFFFFFFFFF DUP3 GT ISZERO PUSH2 0x58A JUMPI PUSH2 0x589 PUSH2 0x4F8 JUMP JUMPDEST JUMPDEST PUSH2 0x593 DUP3 PUSH2 0x441 JUMP JUMPDEST SWAP1 POP PUSH1 0x20 DUP2 ADD SWAP1 POP SWAP2 SWAP1 POP JUMP JUMPDEST DUP3 DUP2 DUP4 CALLDATACOPY PUSH0 DUP4 DUP4 ADD MSTORE POP POP POP JUMP JUMPDEST PUSH0 PUSH2 0x5C0 PUSH2 0x5BB DUP5 PUSH2 0x570 JUMP JUMPDEST PUSH2 0x556 JUMP JUMPDEST SWAP1 POP DUP3 DUP2 MSTORE PUSH1 0x20 DUP2 ADD DUP5 DUP5 DUP5 ADD GT ISZERO PUSH2 0x5DC JUMPI PUSH2 0x5DB PUSH2 0x4F4 JUMP JUMPDEST JUMPDEST PUSH2 0x5E7 DUP5 DUP3 DUP6 PUSH2 0x5A0 JUMP JUMPDEST POP SWAP4 SWAP3 POP POP POP JUMP JUMPDEST PUSH0 DUP3 PUSH1 0x1F DUP4 ADD SLT PUSH2 0x603 JUMPI PUSH2 0x602 PUSH2 0x4F0 JUMP JUMPDEST JUMPDEST DUP2 CALLDATALOAD PUSH2 0x613 DUP5 DUP3 PUSH1 0x20 DUP7 ADD PUSH2 0x5AE JUMP JUMPDEST SWAP2 POP POP SWAP3 SWAP2 POP POP JUMP JUMPDEST PUSH0 PUSH1 0x20 DUP3 DUP5 SUB SLT ISZERO PUSH2 0x631 JUMPI PUSH2 0x630 PUSH2 0x38A JUMP JUMPDEST JUMPDEST PUSH0 DUP3 ADD CALLDATALOAD PUSH8 0xFFFFFFFFFFFFFFFF DUP2 GT ISZERO PUSH2 0x64E JUMPI PUSH2 0x64D PUSH2 0x38E JUMP JUMPDEST JUMPDEST PUSH2 0x65A DUP5 DUP3 DUP6 ADD PUSH2 0x5EF JUMP JUMPDEST SWAP2 POP POP SWAP3 SWAP2 POP POP JUMP JUMPDEST PUSH0 DUP1 PUSH1 0x40 DUP4 DUP6 SUB SLT ISZERO PUSH2 0x679 JUMPI PUSH2 0x678 PUSH2 0x38A JUMP JUMPDEST JUMPDEST PUSH0 DUP4 ADD CALLDATALOAD PUSH8 0xFFFFFFFFFFFFFFFF DUP2 GT ISZERO PUSH2 0x696 JUMPI PUSH2 0x695 PUSH2 0x38E JUMP JUMPDEST JUMPDEST PUSH2 0x6A2 DUP6 DUP3 DUP7 ADD PUSH2 0x5EF JUMP JUMPDEST SWAP3 POP POP PUSH1 0x20 PUSH2 0x6B3 DUP6 DUP3 DUP7 ADD PUSH2 0x3B1 JUMP JUMPDEST SWAP2 POP POP SWAP3 POP SWAP3 SWAP1 POP JUMP JUMPDEST PUSH32 0x4E487B7100000000000000000000000000000000000000000000000000000000 PUSH0 MSTORE PUSH1 0x22 PUSH1 0x4 MSTORE PUSH1 0x24 PUSH0 REVERT JUMPDEST PUSH0 PUSH1 0x2 DUP3 DIV SWAP1 POP PUSH1 0x1 DUP3 AND DUP1 PUSH2 0x701 JUMPI PUSH1 0x7F DUP3 AND SWAP2 POP JUMPDEST PUSH1 0x20 DUP3 LT DUP2 SUB PUSH2 0x714 JUMPI PUSH2 0x713 PUSH2 0x6BD JUMP JUMPDEST JUMPDEST POP SWAP2 SWAP1 POP JUMP JUMPDEST PUSH0 DUP2 SWAP1 POP DUP2 PUSH0 MSTORE PUSH1 0x20 PUSH0 KECCAK256 SWAP1 POP SWAP2 SWAP1 POP JUMP JUMPDEST PUSH0 PUSH1 0x20 PUSH1 0x1F DUP4 ADD DIV SWAP1 POP SWAP2 SWAP1 POP JUMP JUMPDEST PUSH0 DUP3 DUP3 SHL SWAP1 POP SWAP3 SWAP2 POP POP JUMP JUMPDEST PUSH0 PUSH1 0x8 DUP4 MUL PUSH2 0x776 PUSH32 0xFFFFFFFFFFFFFFFFFFFFFFFFFFFFFFFFFFFFFFFFFFFFFFFFFFFFFFFFFFFFFFFF DUP3 PUSH2 0x73B JUMP JUMPDEST PUSH2 0x780 DUP7 DUP4 PUSH2 0x73B JUMP JUMPDEST SWAP6 POP DUP1 NOT DUP5 AND SWAP4 POP DUP1 DUP7 AND DUP5 OR SWAP3 POP POP POP SWAP4 SWAP3 POP POP POP JUMP JUMPDEST PUSH0 DUP2 SWAP1 POP SWAP2 SWAP1 POP JUMP JUMPDEST PUSH0 PUSH2 0x7BB PUSH2 0x7B6 PUSH2 0x7B1 DUP5 PUSH2 0x392 JUMP JUMPDEST PUSH2 0x798 JUMP JUMPDEST PUSH2 0x392 JUMP JUMPDEST SWAP1 POP SWAP2 SWAP1 POP JUMP JUMPDEST PUSH0 DUP2 SWAP1 POP SWAP2 SWAP1 POP JUMP JUMPDEST PUSH2 0x7D4 DUP4 PUSH2 0x7A1 JUMP JUMPDEST PUSH2 0x7E8 PUSH2 0x7E0 DUP3 PUSH2 0x7C2 JUMP JUMPDEST DUP5 DUP5 SLOAD PUSH2 0x747 JUMP JUMPDEST DUP3 SSTORE POP POP POP POP JUMP JUMPDEST PUSH0 SWAP1 JUMP JUMPDEST PUSH2 0x7FC PUSH2 0x7F0 JUMP JUMPDEST PUSH2 0x807 DUP2 DUP5 DUP5 PUSH2 0x7CB JUMP JUMPDEST POP POP POP JUMP JUMPDEST JUMPDEST DUP2 DUP2 LT ISZERO PUSH2 0x82A JUMPI PUSH2 0x81F PUSH0 DUP3 PUSH2 0x7F4 JUMP JUMPDEST PUSH1 0x1 DUP2 ADD SWAP1 POP PUSH2 0x80D JUMP JUMPDEST POP POP JUMP JUMPDEST PUSH1 0x1F DUP3 GT ISZERO PUSH2 0x86F JUMPI PUSH2 0x840 DUP2 PUSH2 0x71A JUMP JUMPDEST PUSH2 0x849 DUP5 PUSH2 0x72C JUMP JUMPDEST DUP2 ADD PUSH1 0x20 DUP6 LT ISZERO PUSH2 0x858 JUMPI DUP2 SWAP1 POP JUMPDEST PUSH2 0x86C PUSH2 0x864 DUP6 PUSH2 0x72C JUMP JUMPDEST DUP4 ADD DUP3 PUSH2 0x80C JUMP JUMPDEST POP POP JUMPDEST POP POP POP JUMP JUMPDEST PUSH0 DUP3 DUP3 SHR SWAP1 POP SWAP3 SWAP2 POP POP JUMP JUMPDEST PUSH0 PUSH2 0x88F PUSH0 NOT DUP5 PUSH1 0x8 MUL PUSH2 0x874 JUMP JUMPDEST NOT DUP1 DUP4 AND SWAP2 POP POP SWAP3 SWAP2 POP POP JUMP JUMPDEST PUSH0 PUSH2 0x8A7 DUP4 DUP4 PUSH2 0x880 JUMP JUMPDEST SWAP2 POP DUP3 PUSH1 0x2 MUL DUP3 OR SWAP1 POP SWAP3 SWAP2 POP POP JUMP JUMPDEST PUSH2 0x8C0 DUP3 PUSH2 0x3FF JUMP JUMPDEST PUSH8 0xFFFFFFFFFFFFFFFF DUP2 GT ISZERO PUSH2 0x8D9 JUMPI PUSH2 0x8D8 PUSH2 0x4F8 JUMP JUMPDEST JUMPDEST PUSH2 0x8E3 DUP3 SLOAD PUSH2 0x6EA JUMP JUMPDEST PUSH2 0x8EE DUP3 DUP3 DUP6 PUSH2 0x82E JUMP JUMPDEST PUSH0 PUSH1 0x20 SWAP1 POP PUSH1 0x1F DUP4 GT PUSH1 0x1 DUP2 EQ PUSH2 0x91F JUMPI PUSH0 DUP5 ISZERO PUSH2 0x90D JUMPI DUP3 DUP8 ADD MLOAD SWAP1 POP JUMPDEST PUSH2 0x917 DUP6 DUP3 PUSH2 0x89C JUMP JUMPDEST DUP7 SSTORE POP PUSH2 0x97E JUMP JUMPDEST PUSH1 0x1F NOT DUP5 AND PUSH2 0x92D DUP7 PUSH2 0x71A JUMP JUMPDEST PUSH0 JUMPDEST DUP3 DUP2 LT ISZERO PUSH2 0x954 JUMPI DUP5 DUP10 ADD MLOAD DUP3 SSTORE PUSH1 0x1 DUP3 ADD SWAP2 POP PUSH1 0x20 DUP6 ADD SWAP5 POP PUSH1 0x20 DUP2 ADD SWAP1 POP PUSH2 0x92F JUMP JUMPDEST DUP7 DUP4 LT ISZERO PUSH2 0x971 JUMPI DUP5 DUP10 ADD MLOAD PUSH2 0x96D PUSH1 0x1F DUP10 AND DUP3 PUSH2 0x880 JUMP JUMPDEST DUP4 SSTORE POP JUMPDEST PUSH1 0x1 PUSH1 0x2 DUP9 MUL ADD DUP9 SSTORE POP POP POP JUMPDEST POP POP POP POP POP POP JUMP JUMPDEST PUSH0 DUP2 SWAP1 POP SWAP3 SWAP2 POP POP JUMP JUMPDEST PUSH0 PUSH2 0x99A DUP3 PUSH2 0x3FF JUMP JUMPDEST PUSH2 0x9A4 DUP2 DUP6 PUSH2 0x986 JUMP JUMPDEST SWAP4 POP PUSH2 0x9B4 DUP2 DUP6 PUSH1 0x20 DUP7 ADD PUSH2 0x419 JUMP JUMPDEST DUP1 DUP5 ADD SWAP2 POP POP SWAP3 SWAP2 POP POP JUMP JUMPDEST PUSH0 PUSH2 0x9CB DUP3 DUP5 PUSH2 0x990 JUMP JUMPDEST SWAP2 POP DUP2 SWAP1 POP SWAP3 SWAP2 POP POP JUMP INVALID LOG2 PUSH5 0x6970667358 0x22 SLT KECCAK256 DUP13 PC 0xAB 0x2B 0xFC INVALID 0xD6 0xAD 0xA6 CALLCODE DUP14 0xEF 0xD8 SWAP1 0xD7 BLOBBASEFEE 0xE3 0xCD EXTCODECOPY RETURN 0xE0 0xC9 0x24 0xE4 PUSH26 0xB475C8FF08072664736F6C634300081800330000000000000000 "
				},
				"gasEstimates": {
					"creation": {
						"codeDepositCost": "514400",
						"executionCost": "547",
						"totalCost": "514947"
					},
					"external": {
						"addPerson(string,uint256)": "infinite",
						"findFavNumber(string)": "infinite",
						"findpersonFromNumber(uint256)": "infinite",
						"listofPeople(uint256)": "infinite",
						"retrieve()": "2432",
						"store(uint256)": "22580"
					}
				},
				"methodIdentifiers": {
					"addPerson(string,uint256)": "6f760f41",
					"findFavNumber(string)": "5d19f424",
					"findpersonFromNumber(uint256)": "397a01f9",
					"listofPeople(uint256)": "2e5effac",
					"retrieve()": "2e64cec1",
					"store(uint256)": "6057361d"
				}
			},
			"storageLayout": {
				"storage": [
					{
						"astId": 3,
						"contract": "contracts/arrays.sol:arrays",
						"label": "favoriteNumber",
						"offset": 0,
						"slot": "0",
						"type": "t_uint256"
					},
					{
						"astId": 12,
						"contract": "contracts/arrays.sol:arrays",
						"label": "listofPeople",
						"offset": 0,
						"slot": "1",
						"type": "t_array(t_struct(person)8_storage)dyn_storage"
					},
					{
						"astId": 16,
						"contract": "contracts/arrays.sol:arrays",
						"label": "findFavNumber",
						"offset": 0,
						"slot": "2",
						"type": "t_mapping(t_string_memory_ptr,t_uint256)"
					},
					{
						"astId": 20,
						"contract": "contracts/arrays.sol:arrays",
						"label": "findpersonFromNumber",
						"offset": 0,
						"slot": "3",
						"type": "t_mapping(t_uint256,t_string_storage)"
					}
				],
				"types": {
					"t_array(t_struct(person)8_storage)dyn_storage": {
						"base": "t_struct(person)8_storage",
						"encoding": "dynamic_array",
						"label": "struct arrays.person[]",
						"numberOfBytes": "32"
					},
					"t_mapping(t_string_memory_ptr,t_uint256)": {
						"encoding": "mapping",
						"key": "t_string_memory_ptr",
						"label": "mapping(string => uint256)",
						"numberOfBytes": "32",
						"value": "t_uint256"
					},
					"t_mapping(t_uint256,t_string_storage)": {
						"encoding": "mapping",
						"key": "t_uint256",
						"label": "mapping(uint256 => string)",
						"numberOfBytes": "32",
						"value": "t_string_storage"
					},
					"t_string_memory_ptr": {
						"encoding": "bytes",
						"label": "string",
						"numberOfBytes": "32"
					},
					"t_string_storage": {
						"encoding": "bytes",
						"label": "string",
						"numberOfBytes": "32"
					},
					"t_struct(person)8_storage": {
						"encoding": "inplace",
						"label": "struct arrays.person",
						"members": [
							{
								"astId": 5,
								"contract": "contracts/arrays.sol:arrays",
								"label": "favnumber",
								"offset": 0,
								"slot": "0",
								"type": "t_uint256"
							},
							{
								"astId": 7,
								"contract": "contracts/arrays.sol:arrays",
								"label": "name",
								"offset": 0,
								"slot": "1",
								"type": "t_string_storage"
							}
						],
						"numberOfBytes": "64"
					},
					"t_uint256": {
						"encoding": "inplace",
						"label": "uint256",
						"numberOfBytes": "32"
					}
				}
			},
			"userdoc": {
				"kind": "user",
				"methods": {},
				"version": 1
			}
		}
	}
}